S01B0000626F6F746C6F616465722D6170706C6F616465722E733337C9
S21400000000100020C7A10000C5A100006BA30000DF
S214000010C5A10000C5A10000C5A10000C5A1000043
S214000020C5A10000C5A1000050BE0000C5A100008B
S214000030C5A1000098BE0000C5A10000C5A1000033
S214000040C5A10000C5A10000C5A10000C5A1000013
S214000050C5A10000C5A10000C5A10000C5A1000003
S214000060C5A10000C5A10000C5A10000C5A10000F3
S214000070C5A10000C5A10000C5A10000C5A10000E3
S214000080C5A10000C5A10000C5A10000C5A10000D3
S214000090C5A10000C5A10000C5A10000C5A10000C3
S2140000A0C5A10000C5A10000C5A10000C5A10000B3
S2140000B0C5A10000618B0000C5A1000031950000BD
S2140000C055BD000051BD00003D8D000061BD000023
S2140000D059BD0000099500005DBD00009195000027
S2140000E01D7700006D77000071950000C5A1000027
S2140000F0C5A10000C5A10000C5A10000C5A1000063
S214000100C5A10000C5A10000C5A10000C5A1000052
S214000110C5A10000C5A10000C5A10000C5A1000042
S214000120C5A10000C5A10000C5A10000C5A1000032
S214000130C5A10000C5A10000C5A10000C5A1000022
S21400014070B506468AB032480BF02CFA3148324B6E
S21400015000210360314B324C436004F0A5F92AA31A
S214000160D3E90023CDE900234FF0FF334FF0FF32F1
S21400017020600BF07CFA02224FF0FF3120680BF073
S21400018078FA00239422CDE9073309933C23CDE97E
S21400019003320593962303A92068069304F088FA91
S2140001A002F0F0F82546014620680BF079FA206840
S2140001B00BF0E6FAB6F9001055F8080B0BF085FAC6
S2140001C07668D6B9284602F087FDA37B66F300035F
S2140001D0A373202310222384124B83F8212383F851
S2140001E0222383F8262383F8252383F8232383F802
S2140001F0202383F824230AB070BD3068A060B2883C
S214000200B379AA80AB71E4E70855005100000000FE
S214000210690345ECA41A0020FD390000981A002056
S214000220741A002000E100E010B5054C237833B9BD
S214000230044B13B1044800E000BF0123237010BD37
S2140002407012002000000000EC07010008B5034B08
S2140002501BB10349034800E000BF08BD00000000D2
S21400026074120020EC07010010B5234C01F03CFC92
S21400027001F042FD236F23F0070343F003032367D7
S2140002800AF0F8FA1D4B00209B6A9B075EBF01220E
S2140002901B4B9A62D4F8203123F0030343F0020389
S2140002A0C4F82031D4F8243123F0070343F00203C6
S2140002B0C4F82431D4F8403123F0030343F002039A
S2140002C0C4F84031D4F8603123F0030343F002034E
S2140002D0C4F86031D4F8403223F0030343F002033D
S2140002E0C4F84032D4F8003223F0070343F0020388
S2140002F0C4F8003210BD00BF0080005000C000509F
S21400030000E00050064B0748DA1C121AC11E22F005
S2140003100302994288BF002203490BF047BD00BF85
S214000320601000200010002000080100064B07485F
S214000330DA1C121AC11E22F00302994288BF00225C
S21400034000210BF05ABD00BF98230020601000204B
S2140003504FF400414FF0FF30124B134A10B59A602D
S214000360D3F8882042F47002C3F888200F4A9166BA
S21400037001F1884101F5005210664FF6DF705066B5
S2140003800220C3F8D000BFF34F8FBFF36F8F08244F
S2140003904FF440330648C0F88041D36004600B61D8
S2140003A010BD00BF00ED00E000000000009000500F
S2140003B000E100E0014B1868704700BF0410002001
S2140003C0084B1B6F03F00703022B04D0032B05D04A
S2140003D0012B05D0FEE7044B18687047034BFBE77C
S2140003E003487047008000500410002008100020CA
S2140003F0002D310108B5FFF7E3FF054B1B6FC3F374
S21400040003330133B0FBF3F0024B186008BD00BFA6
S21400041000800050001000200048704700B4C4045C
S214000420014B1868704700BF08100020054B186085
S214000430054B1B6F03F00703032B01D1FFF7DABF51
S214000440704700BF0810002000800050004870472A
S214000450002D3101014B1868704700BF0C100020BA
S21400046010B5154BADF5087D03AC0FCB84E80F0037
S2140004702C22002107A80BF0C0FCFF234FF4947237
S21400048000213EA88DF81D300BF0B7FC4822002155
S2140004900DEB02000BF0B1FC6822002124A80BF043
S2140004A0ACFC009424AB12AA3EA907A800F0E2F820
S2140004B00DF5087D10BD00BF24BE00000122044BD0
S2140004C01A700023034A1370034A1370704700BF64
S2140004D0672300206623002068230020002238B50A
S2140004E0134B144C1A700122134B1A7023689A7817
S2140004F0EAB1DA78DAB11A78510707D5986A09F0BE
S21400050012FF18B14FF4C03000F0BEF923681A7815
S21400051092070CD55D6809F0EEFE854207D9236880
S2140005204FF4C030596ABDE8384000F085B938BD90
S21400053067230020941200206623002007B5024699
S21400054001200B46064908700649074809680091CD
S21400055006490068096800F09FFB03B05DF804FBDD
S21400056068230020981200209C120020941200207D
S214000570044A05490548202312680968006800F007
S21400058051BB00BF8C120020901200209C1200204D
S214000590094B1A68D37892782AB1002B41F20C00E6
S2140005A018BF0020704741F20C0240F20570002B85
S2140005B008BF1046704700BF9412002008B5FFF72A
S2140005C053FE02F0DDF902F0CBF901F0CFFEBDE8F4
S2140005D0084001480AF0E7BCA012002010B5234BE3
S2140005E0234C18681B7992B08DF80C302388029043
S2140005F0ADF80D30A37868468DF80F300AF0E1FCB0
S21400060041F60833ADF810309DF806300098C3F375
S21400061000038DF81230BDF80430CDF81300ADF8A5
S214000620173040F60223ADF8283000238DF82A3024
S21400063002F0E2F902F0E6F92046032102F0E8F9BA
S21400064002F0EEF902F0D2F9112102A80AF0CDFC70
S21400065003210AA80AF0D0FC01200AF0D4FC0028E6
S21400066040F2017008BF002012B010BD34BE00007A
S2140006703ABE000070B5134C134E20601348144D5C
S214000680016014490A60144A1360049A134B1A60F6
S21400069033780BB10AF093FC2B78002BF8D0104B74
S2140006A01B784BB123689A784AB1DB7840F2057024
S2140006B0002B18BF002070BD40F20370FBE740F22D
S2140006C00570F8E794120020672300209C12002093
S2140006D066230020901200208C1200209812002022
S2140006E068230020F0B5421ED11C034685B019D8F9
S2140006F06E460D4C04F110073546206861680834D4
S21400070003C5BC422E46F7D10DF10F010F3311F889
S214000710010912F8014F844204D19A42F7D1012010
S21400072005B0F0BD0020FBE73EBE00002DE9F0411D
S2140007300368044603F16043B3F5004F4FF0000032
S214000740A0B029D8826A636816699E4224D8B3F599
S214000750002F21D8656B06F14003AB4268D8B5F58B
S214000760002F65D82846FFF7BDFF002860D0284632
S21400077009F0A5FD80B16B6973B1022B0FD1AB698F
S214000780C4F1040119444FF0FF32204600F0B8FDD2
S214000790284BC31A5842584120B0BDE8F08140F2B9
S2140007A0046328460493FFF79DFF08B90020F3E78B
S2140007B0284609F084FD0028F8D00027D7F83480B2
S2140007C04046FFF78FFF0028F0D0503EB045EDD8EA
S2140007D0284605A909F07AFD0028E7D0BA6A059BE5
S2140007E012699A42E2D89C42E0D8B3F5002FDDD8D1
S2140007F006A800F041FE059A2146121B06A809F03D
S21400080004FF06A809F003FF059C00F049FE0390CC
S21400081000F04AFE21460090039B04F1200206A841
S21400082000F0B0FD04900498B0FA80F04009B3E7F9
S2140008300120B1E7E320BBDE30B54FF0FF3289B0D0
S21400084005460C4600F05CFD0D4B984215D140F273
S214000850022009F013FE1C22002101A80BF0CDFA9D
S214000860084B2946684600930AF02AF86846211F76
S2140008700AF026F8684601F0F5FB002009B030BD06
S214000880E320BBDE0100064310B5044688B040F204
S214000890022009F0F3FD1C22002101A80BF0ADFA9E
S2140008A0054B2146684600930AF00AF8684601F0B0
S2140008B0D9FB002008B010BD00000343234B10B541
S2140008C01B68C3F30743012B0DD1214B04205A6E3E
S2140008D04FF480231F494B6601F510410862500310
S2140008E05CBF1D4A53661D4BD3F88420110606D400
S2140008F04FF400621A67D3F88420D206FBD409F0BE
S21400090025FD09F0A9FD09F071FC09F071FC18B18C
S2140009104FF4017000F098F8FFF7A2FD044609F0C6
S21400092069FC1CB140F203739C4203D140F20120E3
S21400093000F08AF8A4F20574012C94BF40F203205C
S2140009404FF4017000F080F8002010BD0080E00F2A
S214000950008000500090005000A000500040005062
S21400096037B50124334B8DF806408DF80740D3F891
S21400097094305B0610D509F08CFDA0F2022080B200
S214000980072809D804FA00F010F0C90F1EBF00238C
S2140009908DF806308DF807304FF490335B680133DE
S2140009A008D14FF4027009F069FD00238DF8063077
S2140009B08DF807309DF8073063B14FF49030FFF79D
S2140009C0B5FE8DF806009DF806301BB94FF4027090
S2140009D009F054FD9DF8063053B34FF400424FF033
S2140009E0FF31154B9A6603F1744319664FF6FF7193
S2140009F059660021114BC3F8D010BFF34F8FBFF3D9
S214000A006F8F08250E4CC4F88050BFF34F8FBFF38E
S214000A106F8F4FF440300B490861C4F88051C860AE
S214000A204FF4903001F140618A66986009F092FCBC
S214000A3003B030BD004000500090005000ED00E0D4
S214000A4000E100E000A0004408B509F017FDBFF380
S214000A504F8F0549054BCA6802F4E0621343CB602A
S214000A60BFF34F8F00BFFDE700ED00E00400FA057E
S214000A704FF4003208B5044B9A6601F05BFAB0FA00
S214000A8080F0400908BD00BF00900050072BF8B565
S214000A9006460F4614461D4601D90020F8BD012122
S214000AA0202000F045FF0121212000F041FF8CB1FD
S214000AB044EA06039B07F0D14FF40032064B31465A
S214000AC09A66284623463A4601F05EFAB0FA80F067
S214000AD04009E3E70120E1E70090005030B500222E
S214000AE00C24064B04FB02F1CD58854201D1581860
S214000AF030BD01320C2AF5D10020F9E7E8BE00002F
S214000B007FB50023CDE90033082315460DEB03021D
S214000B10044609F0F4FC41F203039842064626D147
S214000B2094F8433063B10822E06C0DEB020109F043
S214000B306CFD08230DEB03021146A06C09F054FD72
S214000B40039A029B6A6094F843202B605AB9094ABC
S214000B50934208D0084A934205D00822E06C0DEB79
S214000B60020109F052FD6B68236500236365304679
S214000B7004B070BDF70A0AF7FC0404FC2DE9F7433D
S214000B80044658680E4617469846002840D011F08E
S214000B90030340D19B6A206E1B6902EB000C1D1DEF
S214000BA065451CD81C33984219D28542294638BF61
S214000BB001469C4594BFC1EB0C02C1EB0302081A28
S214000BC0C5F1680506EB00096818204449460192FD
S214000BD00BF0ECF8FF214846019A0BF00EF9226E56
S214000BE00E4B9A420AD80E49B818884206D99B1A64
S214000BF0F258C4F880204FF0FF32F2503A46D8E957
S214000C000035206E3146A8470020226E3A44226600
S214000C1003B0BDE8F08341F20200F9E7048001006A
S214000C20078001002DE9F04100254FF0FF3704460C
S214000C308846164603F0200380F842301822FF212B
S214000C40C0E91855A0F8405080F84350A0F844502A
S214000C5080F84650C0F8887068300BF0CEF88822CE
S214000C602946C4E91286C4F88070C4F8847004F17A
S214000C7090000BF0C2F8074BC4F82071C4E9463563
S214000C8084F8245116B1304600F0F6FB0020BDE88B
S214000C90F08100BF000101012DE9F04FA5B0984694
S214000CA0CDE91123002304460E462E9D1393139A76
S214000CB0424501D30020D1E094F84630132BF7D8F4
S214000CC0DFE813F06700B400AE00520039002D00D4
S214000CD0C1013900B901390073013900B901A80210
S214000CE01703140012014F024F0215034FF00009BC
S214000CF0636D0F2B00F298800127102314AA20465C
S214000D00CDF80490009711A909F0F9FB41F203030E
S214000D100890089A9A4200F0D980089B45E04FF068
S214000D200109D4E91432934200F2E88084F8469030
S214000D3041F2030339E04FF00109D4E91417B94230
S214000D4072D9C91BDDE91272BF1A94F84020032934
S214000D50174440F28181032F00F28181204611A9B9
S214000D6009F0ACFB002320E00127636D072BDFD8DA
S214000D70082314AA2046CDE9007711A909F0BFFB85
S214000D8041F203030B900B9A9A4200F023810B9BCF
S214000D900BE014AA204611A9FFF7B2FE41F20302A7
S214000DA00590059B934208D0059B049341F20303EC
S214000DB0049A9A423FF47BAF4FE0159A1499226545
S214000DC000226265A24A914240F00F81022284F816
S214000DD04620EAE7012314AA009320460823019739
S214000DE011A909F08CFB41F203030690069A9A4279
S214000DF001D0069BD9E7149B03F07F43B3F1407FF5
S214000E0005D0132384F8463041F20903CDE7159B3D
S214000E10D90706D594F8423043F0010384F84230EF
S214000E200027636D072BD5D9012309E1204614AAB4
S214000E3011A9FFF765FE41F203030790079F9F4243
S214000E400FD0079F41F203030497049A9A423FF497
S214000E502EAF049B0BB10023F370049825B0BDE8B9
S214000E60F08F1498FFF73AFE28B9132341F20807CB
S214000E7084F84630E6E7437994F824219A4205D967
S214000E80132341F20E0784F84630DBE70268714907
S214000E908A4205D00289D20748BF013384F824313C
S214000EA094F84230D9070DD5028994F8433092075A
S214000EB006D53BB1132341F2010784F84630C1E75B
S214000EC0002BF7D0037984F84630BBE7D4F848A067
S214000ED000F0EEFA80230221CDE9000315AA3B4676
S214000EE0504600F025FA03E7226D0123A265002292
S214000EF084F84330E26584F84630D8E614AA2046E3
S214000F00CDE9009911A909F0FAFA41F20303099014
S214000F10099A9A4201D0099B47E714AF06F10803E5
S214000F200DF1680C3A4603CA6245186059601746C8
S214000F3003F10803F6D110681860337843F0010314
S214000F403370EEE6337843F004033370179BB362D6
S214000F5073785F0726D5EB238DF8503017238DF86E
S214000F605130A6238DF852305E2300208DF8533082
S214000F70236D6066C4F8843094F8453043F002036D
S214000F8084F84530EF686FB104222B6814A9B8477F
S214000F900822606E2B68EF6816A91044B847636E87
S214000FA0103363660B2384F84630636D072B3FF6D9
S214000FB0BFAE012316AACDE900332046082311A9A7
S214000FC009F09DFA41F203030A900A9A9A42B9D0B0
S214000FD00A9BEAE63378159A43F002033370149BB3
S214000FE07360236D083B73622AB1132384F846307E
S214000FF041F20103D9E6042384F8463094F84530DC
S214001000626643F0010384F84530AEE6042314AA72
S2140010102046CDE9007711A909F071FA41F20303E1
S2140010200C900C9A9A4201D00C9BBEE6236D042BC2
S21400103002D9149B23660127636D032BE6D9092387
S21400104084F8463074E600236366072353E700BF40
S214001050EB17A603F90707F98F42FFF47FAE402986
S21400106028BF40218F4228BF0F46032F88BF27F096
S21400107003073B4614AA2046CDE9009911A909F0BA
S2140010803EFA41F203030D900D9A9A4201D00D9B51
S2140010908BE694F846A0BAF1070F04D1D5F808B04D
S2140010A0BBF1000F1BD1042FC7F1040B88BF4FF014
S2140010B0000B14AB5A46FF21D8190AF09EFEBAF16F
S2140010C0090FBB4414D12B465A46204614A9FFF7F5
S2140010D055FD0D900D9B002B3FF42FAED7E73A46FB
S2140010E02B68606E14A9D847626E3A44626624E69E
S2140010F0BAF1040F21D1737898077FF51EAEEB681E
S214001100002B3FF41AAE626E042A0BD80BEB0203D8
S214001110062B07D915AB9B1A1A68C4F884204FF023
S214001120FF321A605A462B68606EEF6814A9B847FB
S214001130626E0BEB02076766FFE5BAF10B0F7FF4F2
S214001140FCAD737859077FF5F8ADD5F80CA0BAF169
S214001150000F3FF4F2AD5A462B68606E14A9D047D4
S214001160E6E700218A6A496B1269503A91423FF6D7
S2140011703FAF112B0FD194F81831002B7FF454AEEB
S21400118041F206030E930E9A9A4202D1132384F874
S21400119046300E9B09E694F84430002B7FF444AEAC
S2140011A0CDE9003314AA4023204611A909F0A7F977
S2140011B041F203030E900E9A9A42EAD1E06C09F0CF
S2140011C026FA94F81831A3B104F1B403E06C009346
S2140011D01CAA04F1940314A900F0D4F80E900E9BF8
S2140011E09BB10023F370132384F8463041F20603C4
S2140011F0DBE5E76C00F054F9039000F055F9039B2B
S21400120000901CAA384614A9E6E70123F37084F878
S214001210443009E6002314AACDE90033204604230F
S21400122011A909F06CF941F203030F900F9A9A4244
S21400123002D00F9B049310E6D4F888202E4B9A42D7
S21400124005D0132384F8463041F20503F2E7012364
S214001250F37094F84530DA0707D5EF682FB104220B
S2140012602B68104604F18401B84794F845309B0774
S21400127007D5EF682FB104222B68104604F18401CD
S214001280B847236E63B36F6857B34FF0FF3304F16C
S2140012908001042210A8109303910AF077FD20B174
S2140012A004222B6803991548B84704F168090422FC
S2140012B0494610A80AF06AFD90B100239B6A1422E2
S2140012C0D3F8108004F16C0108F10800D5E9003766
S2140012D0B847D5E900370422494608EB0200B8476C
S2140012E00123B3700E2384F846300023A2E70023C0
S2140012F0F37041F20700B1E5E320BBDE0480010095
S21400130030B50824094B00255C66012403F5FE234E
S2140013105C6001449D601A61DC60884201D1586AB5
S21400132030BD10F8012B1A62F7E700BF009000509E
S214001330F8B516464FF400521D46114B04469A6601
S2140013400222C3F860220F4609F04FFDDDE90612BF
S214001350204609F04EFD002384F838706362336837
S214001360C4F839307368C4F83D30B368C4F8413007
S2140013702B0C6DBA84F84530A4F84650F8BD00BF73
S214001380009000502DE9F041B0B014460646369D58
S21400139000286AD0002968D0002A66D0002B64D0C6
S2140013A0002D62D006224FF400500692304A20AF3D
S2140013B090660320C2F860020022BE4609920C9294
S2140013C00F920A4601F12008F44610685168083268
S2140013D0ACE803004245E646F6D122460DF1A00CE5
S2140013E004F1200E644610685168083203C4724542
S2140013F0A446F7D10DF1400C1A46644603F1200EC0
S214001400234610685168083203C372451C46F7D15C
S2140014102B4618AC2035224618685968083303C294
S214001420AB421446F7D14023CDE90A730893202334
S2140014300AAA0E9303AB07CACDF81CC00D9683E824
S214001440070007AB93E807008DE807000DAB0ECB4F
S214001450084809F018FC0690069B40F20460002B32
S21400146008BF002030B0BDE8F08140F20160F9E727
S21400147000900050D0C000004FF40052074B10B54B
S2140014809A6602220446C3F8602209F0C3F8204692
S214001490BDE81040002109F0C1B800BF0090005020
S2140014A0004870474CE30700004870476CE30700AD
S2140014B00048704786E207002DE9F34799460A9BE5
S2140014C00C46196805463F29164642D85A68002A2F
S2140014D041D0224A002E14BFB046904601F03F0786
S2140014E0091928BF5A68196024BF01325A60AFB183
S2140014F0C7F1400AA24521D82946524609EB070003
S2140015000AF054FC0123414600934A463346002025
S21400151009F09DF8B046403C55443C443F2C0CD95D
S214001520A3092A46009341463346002009F08FF867
S21400153024F03F031D4404F03F0400272CB122464C
S214001540294609EB07000AF031FC002002B0BDE88E
S214001550F0879046C2E7DFF80480BFE778BF000058
S21400156030B40546084611461A46DDE9023425B968
S21400157031B1029430BCFFF79FBF024830BC7047C1
S2140015800846FBE780AFFFFF2DE9F04117461468D9
S21400159086B01E46E3008DF80F30630952688DF85A
S2140015A00E30630B8DF80D30630D8DF80C30D300C4
S2140015B003EB54738DF80B3004F03F045309372CBB
S2140015C08DF80A304FEA52334FEA525205468DF8EC
S2140015D00820884694BFC4F13802C4F17802CDE9E9
S2140015E000178DF809300D4903460020FFF7B8FFB5
S2140015F0082143462A4600970DEB0100FFF75CFFE3
S214001600284605F1200350F8042B984246F8042B90
S214001610F9D1002006B0BDE8F08100BF98BF0000F9
S214001620044BD3F88420D206FBD4D3F88400C0F34E
S214001630811070470040005038B5104B0546D3F86F
S21400164020310C4603F00303022B0BD0032B0DD0E6
S214001650012B0FD1FEF7AEFE052305B1286004B1BD
S214001660236038BDFEF7DCFE0323F6E7FEF7EEFE4A
S2140016700223F2E700231846EFE700BF0080005081
S21400168073B50D4600210E4B0191D3F880410646F6
S21400169004F00304012C09D0022C0CD00C460EB129
S2140016A0019B336005B12C6002B070BD01A8FFF746
S2140016B0C3FF0F24F3E7FEF7C9FE0190EFE700BF74
S2140016C00080005038B5174B0546D3F824310C4639
S2140016D003F00703013B052B20D8DFE803F0030FD8
S2140016E0171B0B13FEF766FE052305B1286004B131
S2140016F0236038BDFEF75EFE0623F6E7FEF790FE93
S2140017000323F2E7FEF78CFE0423EEE7FEF79EFEC9
S2140017100223EAE708F062FD0723E6E700231846FF
S214001720E3E700BF0080005038B5104B0546D3F8FD
S21400173040310C4603F00303022B0BD0032B0DD0D5
S214001740012B0FD108F04CFD092305B1286004B128
S214001750236038BDFEF77EFE0823F6E708F043FD5B
S2140017600B23F2E700231846EFE700BF0080005087
S21400177038B5134B0546D3F800320C4603F0070382
S214001780013B032B18D8DFE803F0020A0E1208F01C
S21400179027FD092305B1286004B1236038BDFEF794
S2140017A059FE0823F6E708F01EFD0B23F2E7FEF7C6
S2140017B021FE0E23800AEDE700231846EAE700BF65
S2140017C00080005038B5104B0546D3F840320C4622
S2140017D003F00303022B0BD0032B0DD0012B0FD1EC
S2140017E008F0FEFC092305B1286004B1236038BD6B
S2140017F0FEF730FE0823F6E708F0F5FC0B23F2E7C9
S21400180000231846EFE700BF0080005038B5104BA5
S2140018100546D3F860310C4603F00303022B0BD0C9
S214001820032B0DD0012B0FD108F0DAFC092305B1EC
S214001830286004B1236038BDFEF70CFE0823F6E7E7
S21400184008F0D1FC0B23F2E700231846EFE700BFB1
S2140018500080005010B40D4C0B46D4F8204204F023
S2140018600304012C0AD0022C0CD008B10021016020
S2140018700BB100221A605DF8044B70475DF8044B0C
S214001880FFF7DABE5DF8044BFFF74EBF008000504E
S214001890B0F5207F1FD009D8B0F5007F15D003D84B
S2140018A068B1B0F5C07F0AD000200CE0B0F5607FCC
S2140018B0FAD10B4BD3F88000C0F3011003E0084BBD
S2140018C0186FC0F3033001307047054BD3F8900013
S2140018D0C0F30460F7E7024B186FC0F38020F2E70E
S2140018E0008000504FF400320E4B014610B5002029
S2140018F09A66FFF7CDFF41F6713248430A490B4B13
S21400190088428CBF4FF480100020DC69DA639A6846
S21400191022F4401202439A60E20344BF0022DA63D4
S21400192010BD00BF00900050005A62020000035035
S214001930420910B510D0012A10D00B4B0B4C022ACE
S21400194018BF234600F01F0051B103F58053012253
S21400195002FA00F0186010BD1346F3E7044BF1E7F7
S21400196003F50053F3E700BF688000506082005024
S2140019706480005008B5802008F0B4FE034B9842FF
S2140019809EBF4FF48032024B1A6708BD005A6202AF
S21400199000A000501FB50023B0F5807F019377D0DC
S2140019A028D8382800F094800BD82438092810D876
S2140019B009280ED8DFE800F0676767670D0D620D2F
S2140019C0377D52285FD008D83D283BD03E2800F00F
S2140019D08480019805B05DF804FB8028F9D1414B5E
S2140019E01B6F03F00703013B032BF2D8DFE803F07D
S2140019F044413F6CB0F5D06F5BD019D8B0F5A06FFE
S214001A0066D00AD8B0F5806F3DD0B0F5906FE0D1C3
S214001A10002001A9FFF756FEDBE7B0F5B06F2DD02A
S214001A20B0F5C06FD5D1002001A9FFF77DFED0E745
S214001A30B0F5006FECD00AD8B0F5E06F4DD0B0F539
S214001A40F06FC6D1002001A9FFF7E0FEC1E7B0F5B0
S214001A50086FBED1234BD3F8003103F00303022BEB
S214001A602CD0032B2ED0012B30D1FEF7D9FC03232C
S214001A7000E005230193ACE70223FBE7002001A961
S214001A80FFF7FEFDA5E7002001A9FFF7D5FDA0E7BB
S214001A9002934FF0E0231B695B0705D5FEF7AAFC0F
S214001AA00C230393039BE5E703A902A8FFF73CFE7C
S214001AB0F8E7002001A9FFF75BFE8AE7FEF7CAFCFD
S214001AC00823D7E708F08AFB0723D3E70123D1E7EB
S214001AD0002001A9FFF7BEFE7BE7002001A9FFF763
S214001AE071FE76E7008000504FF40022034B5A66E2
S214001AF0012203F580439A62704700BF00900050B1
S214001B0070B504468020FFF745FF032800F082806A
S214001B104FF40022444B02215A6645F60E03434A10
S214001B20C2F88030424B9962012103F580539962D6
S214001B30936DD903FCD4D4E900131B0543EA016373
S214001B40E17B94F822500B43217B94F8236043EA10
S214001B500143617B43EA0133A17B43EA81131361AE
S214001B609169D4E904031B0643EA806301F000414F
S214001B700B43A17EE07E0B43217E43EA0143617E58
S214001B8043EA01239361E369126A002B0CBF00212C
S214001B90082122F00D0242EA030242EA8002234BA9
S214001BA042EA01021A6294F820204FEA421232D129
S214001BB0986A94F8211020F0330042EA011202439A
S214001BC042F001029A621B4A996D32EA0101FBD18A
S214001BD0022217498A621A659A6D5200FCD4186967
S214001BE0A26820F4700040EA02504FF000421861EC
S214001BF00F4B9A611DB9022203F580539A6216B9FB
S214001C0001220D4B9A6294F824301BB1074B0B4A05
S214001C10C3F8802070BD996A21F0330131430A432E
S214001C2042EA4502EEE700BF0090005000C00050B8
S214001C3000D000500300014000E00050F1A7FFFF75
S214001C40014B93F90000704769230020B0F5207F10
S214001C5010B50C4642D008D8B0F5007F33D003D874
S214001C6088B1B0F5C07F0ED010BDB0F5607FFBD157
S214001C701F4B013CD3F8801021F0300141EA0414D8
S214001C80C3F88040F0E708F025FD08F0EEFD4FF4BD
S214001C908031184A164B1167196F013C21F47041C8
S214001CA041EA04341C67FEF7A5FB0446FFF7B8FCC0
S214001CB0C0F10201204608F0D2FD00F02DF8BDE884
S214001CC01040FFF757BE0A4B013CD3F8901021F0A6
S214001CD0F85141EA0464C3F89040C5E7044B013C60
S214001CE0196F21F4806141EA84241C67BCE700BFB9
S214001CF0008000500090005008B50121022000F03E
S214001D001DF808F0E7FC08F0B0FD4FF48032014BF8
S214001D101A6708BD0090005008B54FF4C07008F070
S214001D20E1FCBDE80840044988428CBF022101213D
S214001D304FF42070FFF78ABF80F0FA02F8B5044629
S214001D401C4BD3F88420D106FBD4D3F88430C3F3DD
S214001D5081139C422CD0FEF733FB012C064602D1A1
S214001D60214608F07CFD08F09AFD4FF00072124BF9
S214001D7007465A66204608F0A2FD4FF480630D4DD4
S214001D80621E93402B676B6E9A0103D4D5F884309D
S214001D909B060AD5384608F086FD022C08D1304648
S214001DA0BDE8F840002108F05ABDD5F88430EAE7CF
S214001DB0F8BD00BF004000500060005007B518B9DD
S214001DC00191FEF7FDFA0199064B1B7843B1064BCD
S214001DD0984205D8012003B05DF804EBFFF7AEBFCC
S214001DE00220F8E76A230020005A62024FF0004201
S214001DF010B501244AF6CD31154B5A66154A03F53F
S214001E000B2354605A6C1964224088B9996811F003
S214001E10010F114903D08C60D86AC007FCD5012396
S214001E204B6012B10D4B0E4A1A6409F037FC10BD18
S214001E30D96A0907FCD42021074B59620121A3F572
S214001E408053996005494B6A9B06FCD5E9E700BFBD
S214001E5000900050005009500060095000400950A2
S214001E603254FFFF4FF0004238B5194B194C5A66F2
S214001E70012203F50C235A604AF6CD33656C2364C1
S214001E804378154093401343134AD363A36882787C
S214001E9023F0740343EA0213C278002A14BF042214
S214001EA000221343A3600279837943EA0223236165
S214001EB04279C37943EA022363610078FFF796FF0D
S214001EC00DB1064B236409F0E9FB012038BD00BFC5
S214001ED00090005000400950004000503254FFFF70
S214001EE0F0B5114A114C124E00F00105E3695F0788
S214001EF013D40DB9334213D103EA00078F4207D13A
S214001F000B4A1A40002A14BF6FF001000020F0BDF3
S214001F10013AEBD16FF00200F9E74FF0FF30F6E739
S214001F206FF00100F3E700BF8096980000000350B2
S214001F30020001004FF4003238B50F4B0F4C9A6682
S214001F4041F671330122E569E3630D4B0021DA6047
S214001F50022360612120236105F48035FFF7C0FF6E
S214001F6010B92120FFF7BCFF0122064BDA600DB145
S214001F700023E36338BD00BF00900050000003500C
S214001F8000100350002003502DE9F04F06464FF492
S214001F90402501202C4CDFF8BCC04FF40037CCF8AD
S214001FA0040044F8265030250024DFF8ACE0DFF8C3
S214001FB0AC9005FB06E5EC652C662C67234CDFF839
S214001FC0A0A0A76641F6713704F51C34D4F81C802F
S214001FD0E763E76800FA06F60743E7604BB9E2688E
S214001FE018F4803F22F00102E26000D0E363184656
S214001FF028E001F5005000EA0900401A984228BF80
S21400200018466161D4F81CB087081BF0040F17D17E
S214002010013F3F0147F060576F66AA66C5F86CA09F
S214002020CCF82460DEF834703E42FBD0084F014402
S2140020307E630427CCF82860024427611B1ACDE78C
S2140020404FF0FF30BDE8F08F004004500090005085
S21400205000200450001004500000045000E0FFFF71
S214002060180003502DE9F843C3690446042B6ED8C4
S21400207008F015FC374B384A596E4FF48033374812
S214002080536602F5E622C2F80006C90300F50070A2
S214002090C2F804065CBFA2F5E4225366304A314B10
S2140020A0E669136023683048536004F10C0303EBC1
S2140020B08601121B8B4202EB030520D163680027C2
S2140020C0344603BB39462546254A41EA06619160F7
S2140020D01368516892684B4053400022AA4231D19F
S2140020E040F82230BFF34F8F2049214BCA6802F4D4
S2140020F0E0621343CB60BFF34F8F00BFFDE753F89A
S214002100047B2F60D6E70022D3F8009000EB840E05
S214002110D3F808C0F046CCF3990C624502EB0701F1
S21400212002EB04050EF1040E06D35A68012ACBD042
S2140021300F462C465B68C4E759F822100132C8F8EF
S2140021400010E5E750F8221001324B40C6E7BDE824
S214002150F88300BF0080005000900050004C00A0A4
S214002160004C00B0DEC0ECE50C4C00B000ED00E02A
S2140021700400FA054FF480311A4B30B5586E03F55B
S2140021808053596603F5E623D3F8043603F1C042BC
S214002190A2F58042B2F5606F01D9002030BDC203BF
S2140021A058BF114A03F1805358BF516618680F4A4A
S2140021B019469042F1D11A69501DB0F5007FECD255
S2140021C003F11400940000EB82000022834205D144
S2140021D00B195869831A58425841DFE753F8045BD5
S2140021E06A40F3E70080005000A00050DEC0ECE537
S2140021F038B5104B10495A6E4FF48033D20358BF8F
S2140022000E4A4B6601F5E621D1F80456044658BF3F
S214002210536640B1FFF7AEFF40B1002005F1805590
S2140022206B68236038BD4FF4E020FBE74FF47E0078
S214002230F8E700BF008000500090005000A000505B
S2140022404FF48032064B5A6603F5E6235B69C3F308
S2140022508512827003F03F021B0B427003707047BA
S2140022600090005038B50446054D09F02AFA0FCC08
S2140022700FC594E8030085E80300002038BD00BFC2
S214002280A812002047F6FF739A42F0B567D00229DD
S21400229067D8354DCF0015F8313005EBC100012B5E
S2140022A0847813D10025C3781B1B9D4202D3E01807
S2140022B0C0B2F0BD591B4668A3EB510136F9116058
S2140022C09642D4BF0D4601F1FF33EEE74068002882
S2140022D0EFD0B0F90030934204DBB0F902309342FD
S2140022E0B8BF134682883D44FF2A19BFC8214FF065
S2140022F0280CB0F90610B0F908C0A1EB03020CBF19
S2140023000126002692FBFCF26D78324412B295420A
S21400231001DD002A01DA6A1E12B24FF47A7700EB6A
S214002320C206F188B668013213FB016112B221EAD7
S214002330E17101F5FA719542B1FBF7F104DD00EBAE
S214002340C206B6888E42EAD200EBC20232F8040C0D
S214002350884228BF0846A04238BF2046A8E7FF208C
S214002360A7E70020A5E700BFA812002008B504488C
S214002370FFF778FFBDE80840012009F0C6B900BFA6
S21400238028C80000004870474010002060B5054689
S21400239019B10139B1F5806F10D2094EF06810F40A
S2140023A08030FBD143EA0121120741EA050302F01F
S2140023B08052134343F00043736060BD0120FCE786
S2140023C00020025C0122054B9A60DA68D203FCD436
S2140023D0D86820F00F000004000C70470020025C54
S2140023E0014B1868704700BF0010025C044B1A6867
S2140023F042F480721A601A6822F480721A6070477B
S2140024000010025C024B186B00F00E00704700BF15
S2140024100010025C82B01FB507930A9B04AC8B4287
S21400242028BF0B4604E907001048D100079948BFAB
S21400243003330160099948BF23F0030323F0704378
S21400244001F0E041194341F000518160002102F0A3
S214002450E042019C134343F00053C1600461836172
S214002460416304B0BDE8104002B070470000025C53
S2140024703F22034B1A631022DA6103229A637047E5
S2140024800000025C024AD36B9B07FCD4704700BF77
S2140024900000025C034B986A10F0240018BF04206A
S2140024A0704700BF0000025C08B5FFF7F3FF064B5D
S2140024B0DB6B23F47F4323F0EF0303431EBF0122AD
S2140024C0024BC3F8FC2F08BD0000025C00F0FF3F83
S2140024D0032208B5054B186019615A63FFF7C8FF59
S2140024E0FFF7D0FFBDE80840FFF7DEBF0000025C44
S2140024F042680346182A10B50AD0202A1DD0102A92
S2140025002BD1174AD2F80424D4010AD4012013E0B0
S214002510134AD2F804249001F8D50A6842F008025B
S2140025200A6010481A6882424FF000000ED10A680E
S21400253042F040020A60586010BD094AD2F80424EE
S2140025405201E3D50A6842F00402E9E7064CA242CB
S214002550F2D10A6842F08002ECE70720ECE700BF01
S2140025600000025C6B2300206C2300200B4607B59E
S2140025700749D1F80414C90708D50021009202467D
S214002580084600F033F803B05DF804FB0120FAE7D4
S2140025900000025C0B4607B50749D1F80414C907CA
S2140025A008D5009201210246002000F01FF803B073
S2140025B05DF804FB0120FAE70000025C1FB50A4C38
S2140025C0D4F8044464070CD5CDE900120021069C1B
S2140025D00222CDE902340346084600F031F804B082
S2140025E010BD0120FBE700BF0000025CF0B51C46F2
S2140025F05B6815468DB01A07129E1AD1CBB1726869
S214002600934216D10C4B0D4A53F8217009AB07CAFA
S21400261083E807001A462946CDE90533CDE903339A
S214002620CDE90163009447F4807008F04EFA0DB0CF
S214002630F0BD0720FBE700BF08C00000D8BF0000C1
S2140026402DE9F0418CB0DDE9127C7C681E46DDE9A0
S214002650143E200728D13CB3DCF80400844223D182
S2140026605868102820D1DEF8040010281CD10F4826
S21400267009AC50F821500E4951F822800D4A07CA7D
S21400268084E8070045EA080022463146CDE9054EB3
S214002690CDE90344CDE901C4009740F0300008F0CE
S2140026A014FA0CB0BDE8F0810720FAE708C0000075
S2140026B0E4BF0000D8BF00000138C0B206289ABFA9
S2140026C0014B185C00207047E4C000000138C0B21F
S2140026D006289ABF014B185C00207047EBC000002C
S2140026E00138C0B206289ABF014B185C002070471C
S2140026F0F2C000002DE9F04FBBB0804603A880E88A
S2140027000E007E4B9DF81091D3F80024D40603D417
S21400271001203BB0BDE8F08F08F1FF32059EDDE9F1
S21400272003A7062A00F2E780DFE802F0041A202654
S2140027302C323800D3F80C34D807E9D50123079398
S2140027400023B9F1010FCDE908332DD0B9F1020FFE
S21400275000F092804046FFF7C3FF6324054631E051
S214002760D3F80C349907D3D50223E8E7D3F80C3412
S2140027705A07CDD50423E2E7D3F80C341B07C7D598
S2140027800823DCE7D3F80C34DD06C1D51023D6E7E2
S214002790D3F80C349C06BBD52023D0E7D3F80C34F2
S2140027A05806B5D54023CAE7544BD3F80C34D903A2
S2140027B0AED5079B404643F4C0630793FFF77CFF04
S2140027C00324054613230422009307A94FF0005361
S2140027D012A808F037F95146009446F000533A46DE
S2140027E008F030F94FF0000B04465E46DDF814A101
S2140027F0469B9B4564D1B9F1030F0AD14046FFF7CB
S2140028006FFF874277D14046FFF760FF01383042BE
S21400281071D1002E67D1032332462046009308A9C3
S214002820334608F00FF904260446A4F1100002907F
S21400283008F01EF93146029808F025F9489AAA428F
S21400284028BF2A461446002A53D0002347990093EF
S2140028500AA8499B08F0F6F82A1B04D0002319465C
S214002860009308F0EFF8103808F002F912A80AA949
S214002870FFF72EFE00204CE7204BD3F80C24D203A3
S2140028807FF546AFD3F80C349B037FF541AF97B185
S2140028907C423946374604F00304079B404643F41F
S2140028A0E0630793FFF708FF24023E4605460F46FF
S2140028B044F0A30486E704210DF1200A0C46ECE759
S2140028C0DAF8042016444AB1032300932046DAF8C7
S2140028D00830DAF8001008F0B5F804460BF1010BE2
S2140028E00AF10C0A84E716F0030618BFC6F10406C0
S2140028F09BE70AA8B0E707200BE700BF0000025CD2
S21400290008B5FFF773FD0122014B1A7008BD00BF22
S2140029106D2300204FF40052034B00209A660322DA
S214002920C3F86022704700BF0090005008B5FFF75C
S21400293057FDC30708D5FFF765FD062804D00A280B
S214002940F5D1FFF7DDFFF2E74FF40052034B00200E
S2140029509A660322C3F8602208BD00BF00A000509C
S21400296007B56B46054A1068516803C36846FFF70B
S21400297079FA002003B05DF804FB00BFF9C0000040
S21400298030B58BB06C46154D0FCD0FC40FCD0FC4B0
S21400299095E8030084E80300114BD3F84C2112039A
S2140029A014D4D3F85041E4B28DF81940FFF748F933
S2140029B0204480F308008DF818000A48FDF736FD1D
S2140029C06846FFF79DF800200BB030BD064B1C880C
S2140029D04FF6FF739C4208BF8C24E5E704C1000055
S2140029E00080E00F00F049020001E00F014808F007
S2140029F03CBB00BFC0120020014808F00BBB00BF64
S214002A00C0120020014800F053B800BFC0120020DA
S214002A100A460146014800F07BB800BFC0120020FD
S214002A20014800F0B5B800BFC01200201FB50A79F3
S214002A30064B02920A6808310192022200920CCBE1
S214002A4008F0E3FB05B05DF804FB00BF3CC10000E6
S214002A5030B50B7985B00333029301F1440301933B
S214002A6002230C460546114A009314310CCA08F09E
S214002A70CCFB238A04F12C010293E36828460193D9
S214002A80237A009394E80C0008F0BFFB0546237AEF
S214002A90A4F845002279216884F8443004F1470000
S214002AA009F084F9284605B030BD00BF34C10000E7
S214002AB038B50546124B134CD4E9020183E80300EF
S214002AC019462846FFF7B2FFD4E9040110220E4B40
S214002AD083E80300194628461A72FFF7B9FFD4E9BF
S214002AE006010222094B20341A7283E80300DC60D8
S214002AF0194628461A82BDE8384008F094BA00BF46
S214002B00C413002050C100002013002078130020BA
S214002B10F8B504460D4B0E4D0F46D5E9090183E87E
S214002B200300194620461646FFF780FFD5E90B013D
S214002B300222084B1A7283E80300DF60194620461B
S214002B401E82BDE8F840FFF783BF00BFA413002035
S214002B5050C10000C812002010B50C4630B907F06E
S214002B604CFB034B186023600423A380002010BD99
S214002B70E413002010B50C4630B907F03CFB034BBD
S214002B80186023600423A380002010BDE8130020F3
S214002B902DE9F74306466D464FF00809404C414B79
S214002BA0414F94E8030083E8030019463046FFF7D8
S214002BB03DFFD4E9020187E8030028463B4987F831
S214002BC0089008F02BFA95E8030007F10C0383E859
S214002BD0030039463046FFF73BFFD4E904010C23D7
S214002BE04FF00208324F87E80300284631493B720F
S214002BF008F014FA95E8030007F10C0383E80300D5
S214002C0039463046FFF724FFD4E906012A4B2B4A03
S214002C1083E803001946304683F80880DA60A3F894
S214002C201090FFF715FFD4E90801254B254A264FDB
S214002C30DA60012283E80300194630461A8283F8D8
S214002C400880FFF705FFD4E90A0187E80300284655
S214002C501E4987F8088008F0E1F995E8030007F1B7
S214002C600C0383E803003946194F3046FFF7F0FEA1
S214002C70D4E90C0187E803002846164987F808803F
S214002C8008F0CCF995E8030007F10C0383E803008D
S214002C903946304603B0BDE8F043FFF7D9BE00BF63
S214002CA0FCC10000FC150020F4140020B3B00000A6
S214002CB04C1500209BB000004414002034C20000D5
S214002CC0A41500203CC200009C140020752B0000B8
S214002CD0EC130020592B0000074B9A6CDB6C110A92
S214002CE00270120C82701A0AC2701A0C1B0E417007
S214002CF002714371704700BF0080E00F7FB500236C
S214002D000130CDE9043380B2054BCDE901016946B7
S214002D1004200093039208F099FA07B05DF804FBCC
S214002D206E2300201B22014B1A807047442300208C
S214002D30F7B50346CDE9001207460E4615464FF492
S214002D408040094A094908F0A3F9002201231146E8
S214002D500420074C237067706680257103B0BDE8B9
S214002D60F040FFF7CBBF00BFDDC300003DC2000050
S214002D706E230020034610B5094A044609494FF45D
S214002D80804008F085F90322074B02201A700022C3
S214002D90A3F801401146BDE81040FFF7AFBF00BFE3
S214002DA0C6C3000071C200006E23002030B50C467A
S214002DB085B004A901E90C00054603460A4A4FF40B
S214002DC080400A49009408F063F905220320084B66
S214002DD002991A709DF80C205D705C8005B0BDE805
S214002DE03040FFF78BBF00BFABC300007DC20000C2
S214002DF06E23002037B5034605460C4600914FF477
S214002E008040094A094908F043F90722084B042084
S214002E101A7000221146A3F80150A3F8034003B02D
S214002E20BDE83040FFF76ABF90C30000A1C20000B3
S214002E306E23002038B5094A05460C460B464FF46B
S214002E408040074908F024F90B22064B29461A70E1
S214002E5000202246BDE83840FFF750BF80C3000080
S214002E60C6C200006E23002008B54FF48040074A13
S214002E70074908F00DF91322064B1A700022BDE828
S214002E80084011461046FFF739BF00BF6FC3000069
S214002E90D5C200006E23002073B5034614460546CF
S214002EA00E4600924FF48040084A094908F0F0F8B0
S214002EB00922084B31461A70A21C5A70032022467B
S214002EC05D8002B0BDE87040FFF718BF59C3000030
S214002ED0DBC200006E2300202DE9F3411C4690461D
S214002EE0CDE9001307460E4603460A4A4FF48040D3
S214002EF0094908F0CDF81123224641460520074D22
S214002F002B70231D6B706F80AE8002B0BDE8F04161
S214002F10FFF7F4BE3EC30000F9C200006E23002097
S214002F2070B50D4603780C4A04460C494FF48040B1
S214002F3008F0AEF800230A4E691E204689B2738058
S214002F4000F040F8024628B171882078BDE870404D
S214002F50FFF7EEBE70BD00BF36C3000023C30000FF
S214002F6044230020024610B500B3114B1968888828
S214002F7090421BD398880024904281BF01200968A4
S214002F80988099609868998828B904B198604FF637
S214002F90FF729A8009E08A4204D001310124006859
S214002FA089B2F1E70CB19A80986010BD0020FCE76A
S214002FB01C1600204FF6FF72014B18609A8070476F
S214002FC01C1600202DE9F04704780546122C0E4604
S214002FD088B017D8012C18D9A31E102B15D8DFE8F7
S214002FE013F0160014002F0014005A0014000E01EF
S214002FF014009F0014001400140014001400510163
S2140030001400CC00522C00F0DE8006243FE002299B
S21400301040F0B681B0F80130B34A4FF48040B3496F
S21400302008F036F8B5F80140B4F5007F28BF4FF435
S21400303000742046FFF79EFEAD4B1C80002426E061
S214003040042924D1B0F80330AA4A0093B0F801301E
S214003050A9494FF4804008F01BF8B5F8017006AD9A
S214003060BEB22946304608F04EF8044618B1A04BCA
S2140030705F800A240BE09DF81C303146022B08BF07
S214003080012095E80C0018BF0220FFF78FFE2046AF
S21400309008B0BDE8F08702278E1FB6B20196B0F8DA
S2140030A00330964A0093B0F8013095494FF48040BB
S2140030B007F0EEFF05F10508EB1D019600938DF86D
S2140030C01470CDF810804246059BB5F80310B5F88D
S2140030D0010008F025F84FF6FF76B042044606D108
S2140030E0AA786B7843EA0223814A5380C1E700231B
S2140030F0CDE90033CDF818808DF81C7008AB013090
S214003100314613E90C0080B208F00AF80146B042D6
S2140031101CBF00F1FF3189B22046FFF76BFE8DE73A
S214003120022940F02D81B0F80130764A4FF48040F5
S214003130754907F0ADFF3146B5F8010008F042F8D2
S2140031406B4E044628B16B78AA7843EA0223738054
S2140031509DE733880146013BADF81030B5F8010015
S21400316004AB06AA08F040F804460028EBD1BDF8E8
S21400317010100698FFF75EFE89E78E1EB6B2009620
S214003180B0F80130614A4FF48040614907F080FF93
S2140031900821B5F8010008F015F8044630B1AA7801
S2140031A06B7843EA0223524A538070E7014633465F
S2140031B0B5F80100EA1C07F0ECFF04460028EED143
S2140031C0FFF752FE63E78E1EB6B20096B0F80130E7
S2140031D0504A4FF480404E4907F05AFF0421B5F894
S2140031E0010007F0EFFF044600287FF427AF0146F2
S2140031F03346B5F80100EA1C07F0CBFF47E70E1F81
S214003200B6B2022E02D0102E40F0BA800024B5F8D6
S21400321003304FF480400093B5F801303E4A3649FB
S21400322007F036FFCDE900446B1D06938DF81C6051
S21400323008AB13E90C00B5F80310B5F8010007F069
S2140032406FFF4FF6FF7398420646294F05D16B78FD
S214003250AA7843EA02237B800BE73B882146043B9F
S214003260ADF80E3004AA0DF10E0307F0BDFF0446BC
S21400327008B17E800BE73046BDF80E200499FFF7B4
S2140032800BFE04E70E1FB6B2022E01D0102E77D129
S2140032900024B5F803304FF480400093B5F80130B1
S2140032A01E4A154907F0F4FECDE9004405F1050A6B
S2140032B0F6B28DF81460CDF810A05246059BB5F80E
S2140032C00310B5F8010007F02BFF4FF6FF794845CD
S2140032D00746DFF81C8023D16B78AA7843EA0223DE
S2140032E0A8F80230C5E600BFA9C4000071C20000FD
S2140032F04423002096C40000EEC3000083C40000F0
S2140033000CC400007BC4000035C4000072C400007A
S214003310DBC2000069C400005BC4000048C40000B3
S214003320CDE90044CDF818A006AC8DF81C6001303D
S21400333094E80C00494680B207F0F2FE0546B8F85D
S21400334000304845A3F1060318BF00F1FF352246BA
S214003350ADF80E304FF0000138460DF10E0318BFE1
S214003360ADB207F041FF044610B1A8F802708EE631
S21400337029463846BDF80E30069AFFF7ADFD86E6BC
S214003380042484E60022014B1A6070472C180020A3
S21400339003291FB51CD90288131D994218D304D8D7
S2140033A04388042B03D0062B06D0012011E01146DB
S2140033B00430FFF7B5FDF8E70022CDE90222064A01
S2140033C06946009202221846019207F03FFFECE79A
S2140033D0002005B05DF804FB4E10002037B5002233
S2140033E00DF10700114600F05FF89DF807300C4C11
S2140033F00BB10023236021680A4DC1F5017292B219
S21400340029440DF1070000F04FF8216801442846D2
S2140034102160FFF7BDFF08B10023236003B030BD75
S2140034202C1800202816002010B504464FF4807390
S21400343000210E4A0E4807F09CFF4FF480730021CF
S2140034400C4A0D4807F095FF2046FCF779FE07F07A
S21400345051FF00F035FD08F080F8830705D500F031
S214003460F9FBBDE8104000F049BA10BD6019002015
S21400347048190020481800203018002008B51346C8
S2140034800A460146024808F033F8C0B208BD00BF3D
S2140034904819002008B5034807F074FF003818BF25
S2140034A0012008BD4819002073B50E460446019257
S2140034B007F0F5F9214605463246019B044808F018
S2140034C017F80446284607F0EEF9204602B070BD0D
S2140034D03018002008B5034807F054FF003818BF1E
S2140034E0012008BD3018002073B50E460446019230
S2140034F007F0D5F9214605463246019B044807F0F9
S214003500C2FF0446284607F0CEF9204602B070BD3A
S2140035104819002010B50C460146044808F012F879
S214003520A04234BF0020012010BD00BF301800208C
S21400353073B50E46114605460192FFF7EBFF0446AB
S21400354028B132462946019B024807F09CFF2046D8
S21400355002B070BD3018002010B5034CA07900F002
S21400356007FE0023236010BD601A00201FB50B4C19
S2140035700B4AA37A0B490393637A4FF48050029365
S214003580237A0193E3790093A37907F081FDA01DC8
S21400359000F072FD0023236004B010BD601A002006
S2140035A06DC60000B8C400001FB5104C104AB4F831
S2140035B00D304FF480500293B4F809300D49019352
S2140035C0A3790093B4F8073007F062FDB4F807104B
S2140035D0A07900F083FDB4F80D10B4F8090000F0EF
S2140035E091FD0023236004B010BD00BF601A0020C8
S2140035F03FC60000E1C40000014B99801860704788
S214003600601A00200022014B1A607047601A0020E2
S214003610034A13681BB19288824200D1184770474C
S214003620601A0020014B187018467047752300205A
S214003630162838B503464FF0020514BF0346132379
S2140036400B4C0C4A4FF480500B496370257007F002
S2140036501FFD2946204600F06DFD00F0C9FE074B11
S214003660074A05301A60627898809A7138BD00BFA4
S2140036707523002007C6000018C50000601A002049
S2140036805935000030B5044603787B4A4FF4805025
S2140036907A4985B007F0FCFC23780C2B0AD80C2B53
S2140036A00BD8DFE803F05A3F790A0A0A0A0A890AA1
S2140036B00A0A1600142B00F0A880204600F024F911
S2140036C0002867D1072223786D48022102704370D4
S2140036D023E0A3884FF4805001936388694A0093DF
S2140036E06378694907F0D4FC4FF0FF32644C0C2332
S2140036F0A2700222E270002223706271012340F25F
S214003700FF2263702371604900924FF480505F4A35
S214003710019307F0BDFC0621204605B0BDE8304009
S21400372000F008BDE3885A4A5A494FF4805007F023
S214003730AFFCE179A379584A43EA01239380134604
S214003740564943F8061BD4F80110C2F80610B4F820
S21400375005209A80E2799A711CE06389504A4D49A7
S2140037604FF4805007F094FCE27AA37A4A4943EA81
S21400377002238B800B464B4A43F8062BD4F80120D5
S214003780C1F80620D4F805205A60B4F809201A813A
S214003790E27A9A7205B030BD6378434A4FF480509F
S2140037A0424907F075FC00F023FE3B4B404A0530CB
S2140037B01A6098806278CEE7D4F80530D4F80120F5
S2140037C03C49CDE900234FF480503B4A07F060FCAB
S2140037D000F014FAD4F80130294C034003F0FF033C
S2140037E020F0FF00184309252346002203F8015B5A
S2140037F0C4F801002F495A60CDE900024FF480500A
S2140038002E4A07F045FC294686E7B4F807302C4ACE
S2140038100293B4F805304FF480500193B4F80330A7
S21400382028490093B4F8013007F032FCB4F80310CE
S214003830B4F8010000F074FC1523114C6FF0270259
S21400384023700723E2702371E271237200216FF068
S21400385004004FF4FB62FB236070A1706071A171DD
S2140038604FF48050CDE9013216490092164A07F00F
S2140038700FFC092150E700BFFEC500002EC5000062
S21400388075230020F3C500003FC5000095C6000064
S21400389087C6000070C50000601A00206D35000065
S2140038A059C60000A935000032C6000018C5000041
S2140038B05935000080C5000027C6000018C6000065
S2140038C0E9C5000099C50000DBC5000010B5084B2F
S2140038D04FF480509C79074A2346074907F0D8FBE7
S2140038E0204600F017FCBDE81040FFF78BBE00BF77
S2140038F0601A002002C70000A4C600000122014B87
S2140039001A70704781230020244B73B51E78044636
S2140039102EB10378162B05D0182B27D0002630465C
S21400392002B070BD83781E4A009343781D494FF459
S214003930805007F0ADFB6378A47817201C4004F095
S2140039400304022C18BF0124FFF76CFE05464470E2
S214003950847023464FF48050134A1249009407F0AF
S21400396097FB0221284607F0C2FCD8E7B0F80330E0
S2140039700E4A019383780E49009343784FF48050A3
S21400398007F086FBB4F803100A48FFF735FED4F8B4
S2140039900120094BC3F80620C1E700BF81230020A1
S2140039A02DC70000B4C6000022C7000015C70000DF
S2140039B0D4C60000CD380000601A002013B50D4BA9
S2140039C001281B880C4CADF80030ADF8043002BF5F
S2140039D002238DF8003004236946206808BF8DF85E
S2140039E0043007F02CFE206801A907F03EFE02B066
S2140039F010BD00BF34C70000741A002070B5334CE9
S214003A0011464FF4867086B01E46154607F043FBF7
S214003A10236933B929464FF4837007F03CFB06B0A0
S214003A2070BDA5F10802324321D101AA0321206806
S214003A3007F084FE636860615B7A04F11801237600
S214003A409DF804300220DA1F53425341627E63F32E
S214003A500002039B6276E361BDF806306383236948
S214003A60984701220021206807F06EFED7E705F18F
S214003A707F42324305D10021012006B0BDE87040E8
S214003A80184715F4A04209D04FF480714FF48170A6
S214003A9007F001FB002103202369EEE705F4A0638D
S214003AA01A4308D001214FF4817007F0F4FA002180
S214003AB0FF202369E1E705F0A042134319BF012167
S214003AC040F2011029464FF48370EEE7741A002086
S214003AD00A46014602484FF40073006807F02ABE03
S214003AE0741A0020F0B50446164D174A6B68807AA3
S214003AF05B7A85B0D75C0E46FFF760FF237AB9B2D3
S214003B00022B0CD1002328681A4600F0FBFCA8B153
S214003B100021FF20334605B0BDE8F04018470022DC
S214003B2020688DF80C3002900092286802ABADF841
S214003B300D208DF80F2000F0F3FCE8E72E6105B0AD
S214003B40F0BD00BF741A002036C700002DE9F04112
S214003B5004461D4D1D4A6B680E465B7A86B0D15CE6
S214003B60807A0191FFF72AFF237A4FF00108022B93
S214003B7002BF0023029301238DF80C30636818BF40
S214003B80226803F164030493637A4FF0000418BFBD
S214003B90029201998DF8143002AA234628688DF8FF
S214003BA015808DF8164000F0E1FC07464246214697
S214003BB0286807F0C9FD2FB12146FF20B04706B0A0
S214003BC0BDE8F0812E61FAE7741A002036C70000BF
S214003BD008B500214FF4857007F05DFA0022044B0B
S214003BE003211A6118680122BDE8084007F0CCBC22
S214003BF0741A0020004870477C1A0020014B188C6D
S214003C00704700BF741A00207FB502238DF80A3073
S214003C10064B5A8B59690332ADF80820186801AA7A
S214003C2007F090FD019807B05DF804FB741A0020B9
S214003C30002313B5064C0093437AD0E90021606058
S214003C40206807F0BEFD00F00DF802B010BD00BF02
S214003C50741A0020024A138C43F48073138470474E
S214003C60741A002038B50D4C238CDB050CD5636820
S214003C700B4D1B7A2A789A4206D0012B05D0022BD0
S214003C8007D063681B7A2B7038BD206800F012FFDF
S214003C90F7E7206800F014FFF3E700BF741A00206F
S214003CA08223002010B50024064B1C60064B1C70B7
S214003CB007F04BFBB0FA80F3044A5B091370044B21
S214003CC01C7010BDB41E0020842300208523002015
S214003CD08323002010B5074B1C782CB9064B1B78A5
S214003CE033B107F03AFB044600F066F8204610BDF4
S214003CF08124F9E7842300208523002038B50A466E
S214003D000F4903460978C1B10E49087850B90E4CE0
S214003D1024783CB90D4C20681518B5F5806F02D98B
S214003D208220087038BD1946094B184408F03EF842
S214003D302560BDE8384000F00DB88120F2E700BFEE
S214003D40852300208423002083230020B41E002027
S214003D50B41A002038B5134B134D1A782968022A76
S214003D600ED0032901D8002038BD104A1068104A2A
S214003D70904203D084200F4B1870F5E702221A7089
S214003D800A48FCF7DBFB04462A680749074807F0A1
S214003D90B9FA002CE7D041F207039C42E3D0852015
S214003DA0E9E700BF85230020B41E0020B41A0020D7
S214003DB0EB17A603842300200022014B1A707047DD
S214003DC0852300201FB5124C1148637A0133DBB2FD
S214003DD0272B88BF25236372FFF72AFF0023CDE930
S214003DE00233E368627C01930123617DD2070948B0
S214003DF001F102018DF80C3048BF8DF80E30FFF748
S214003E0067FE054901A8FFF76DFE04B010BD00BFB0
S214003E10B81E0020CC1E00201D3E0000022810B553
S214003E201BD002D8012805D0FEE7032843D0FF2880
S214003E3041D0F9E7214C637C990707D5FFF7C8FE08
S214003E40FFF7C0FF637C6FF341036374637CDA079C
S214003E5030D4BDE81040FFF7B5BF4B78DB072AD556
S214003E604C68217801F00F03032B11D0052B22D1CB
S214003E70C90904F1080007F072FBD8B1FFF7A8FEE5
S214003E80FFF7C2FE01462046BDE8104000F0B6BA75
S214003E90C90904F1080007F062FB58B1074C94F812
S214003EA03D1004F13C000231FFF712FE637C43F044
S214003EB00203637410BDFFF78BFECAE7B81E00202E
S214003EC010B5094C00215C2204F1080007F095FFAC
S214003ED042F210730549E360054BC4E9001342F251
S214003EE00153238110BD00BFB81E0020D6BE898EA8
S214003EF05555550038B50446FFF76AFE002C3FD0EE
S214003F00204C257C627CB5FA85F35B0963F30002DE
S214003F106274FFF76FFE837905F00F05C3F30003A5
S214003F2045EA8315237D23F04F031D43637D2575E6
S214003F300BB9062363750368C4F816308288124BE3
S214003F409A80FFF757FE837994F83C20C3F300036A
S214003F509B0143F0040322F04F02134384F83C30E5
S214003F6094F83D3013B9062384F83D300368C4F84E
S214003F703E308288054B9A80BDE83840FFF722BF66
S214003F8038BD00BFB81E0020CE1E0020F61E002042
S214003F9020290A4608B509D8054B06315975014649
S214003FA003F11C0007F002FF002008BD1220FCE70A
S214003FB0B81E002020290A4608B50AD8064B063146
S214003FC083F83D10014603F1440007F0EFFE0020A1
S214003FD008BD1220FCE700BFB81E00200A20D0B59E
S214003FE00B4CE38C584305F0C1FC0646A08C0F46EC
S214003FF005F0BCFC0022074B05F022FD02460B46EE
S2140040003046394605F046FE05F02CFF2083D0BD2D
S2140040101C1F00200000F43F1FB5154C40F60100A1
S214004020218907F038F8A37E5A061FD423F0070329
S21400403043F001032089A376FFF7EAFAA37A04F196
S2140040400C00234493F82A306375FFF7F1FDD4E99A
S2140040500032A3EB520103EB520302934FF480337A
S214004060019101A803490393FFF770FD04B010BD4A
S2140040701C1F0020FD4100000022134630B58BB007
S214004080D910415C03F007042141CC0742BF02F17E
S2140040902801694401F8283C03F1010348BF0132B6
S2140040A0252BEDD100230C4CD910415C03F00705FD
S2140040B02941C9075FBFB3FBF2F102FB113128317A
S2140040C069444CBFD9B211F8281C0133252B04F8DB
S2140040D0011BE9D10BB030BD461F002010B540F2E1
S2140040E0E244074A6043136800F5807004FB013120
S2140040F0536801EB500118441160506010BD00BFBA
S2140041001C1F0020024B9884D984FFF767BF00BFAE
S2140041101C1F0020014B1875704700BF1C1F002095
S214004120C908884228BF0846014B1885704700BF5B
S2140041301C1F0020044B5A6D22B95865A3F858106E
S21400414001207047002070471C1F002010B5044651
S2140041500346054A4FF40060044906F099FF2046DE
S214004160BDE81040FFF764BAAAC700005EC70000AB
S21400417010B504460346084A4FF40060074906F0A7
S21400418087FF074A2046BDE81040937E43F0400371
S214004190937607F0AAB800BF9BC700005EC7000072
S2140041A01C1F002010B5144CA37E5B0623D4FFF71B
S2140041B00FFD40F2E243A18C226803FB0122A37AA2
S2140041C0226094F84F2013442522B3FBF2F002FB42
S2140041D010332289A372013222810A22636802FB0D
S2140041E001336360238B5A1E228323B9BDE8104037
S2140041F00820FFF7BDBF10BD1C1F002002282DE9B8
S214004200F74380460E460BD003D8012800F0DC802A
S214004210FEE7032800F0DE80FF2800F0DB80F7E7EB
S2140042204F78714C17F0010763D14FF0FF3140F61D
S214004230030006F030FF3D46A37E6C4F13F0200FC0
S21400424012D0616D6FF34513A376002900F09E80AF
S2140042503B7894F8582043F003033B707A70B81C00
S21400426007F0A4FD00236365FFF714F9A37E60F34F
S2140042704103C3F30012C3F3C001920042EAC10235
S214004280A37642EA00133A7803F01C0322F01C02DD
S21400429013433B7040F60200398806F0FCFE79783E
S2140042A052480231C9B2FFF713FCA37E7668D907DD
S2140042B009D56FF30003A37600236360FFF7A4FC21
S2140042C02060FFF78BFE002D00F08B80337803F024
S2140042D00303022B05D0032B6FD0012B40F0818007
S2140042E0002528467278B11C03B0BDE8F043FFF7FE
S2140042F01FB9D1F8049040F60300B9F8001006F094
S214004300CAFE99F80030A27EC3F3001363F382025C
S21400431099F80030A276C3F3C001C2F300129142AE
S2140043202FD103F00303022B29D0032B08D0012B37
S21400433027D1002099F8011031B3FFF7EBF80746B4
S2140043403D46A27E99F80010C2F3C003C1F3800177
S214004350994208D083F00103DB0043F0200322F0EB
S21400436028021343A376002F3FF466AFA37EC3F361
S214004370001282F0010262F30413A3765CE738466B
S214004380D8E700252F46DCE70D46DAE794F8282024
S214004390B91C0DF10700FFF771F858B19DF807300A
S2140043A0002B08BF4FF001083B78787068F30103D4
S2140043B03B7059E74FF00108F6E77178B01C03B080
S2140043C0BDE8F043FFF75EB9074B9B7E9A0708D41B
S2140043D05B0706D4FFF7E6FE03B0BDE8F043FFF741
S2140043E01BBE03B0BDE8F0831C1F0020781F002012
S2140043F0014B1889704700BF1C1F0020F7B5274DDA
S21400440004460E465C220021284607F0F6FC2023D0
S214004410AB7605232B83627E237E012743EA0223A5
S214004420AB84627F237F04F11E0043EA0223EB8401
S21400443094F82330C3F3040385F84F3094F8233000
S214004440C3F3421385F850301B232B85FFF714FE69
S214004450D4F80E30E27CEB60A37C2E6043EA0223A5
S214004460227D2F7543EA02432B6195F84F30607D1D
S214004470AB72E18A3944FFF731FEFFF7CDFDEB8CD6
S214004480074A084900934FF40060AB8C06F000FE24
S214004490204606F028FF384603B0F0BD1C1F00205B
S2140044A08EC7000071C70000F8B50D4610B900248D
S2140044B02046F8BD0E4F3E68002EF8D100F088F872
S2140044C004460028F3D0386000F0CEF8204607F007
S2140044D070F838B130463E6000F0C6F8204607F067
S2140044E063F8E4E7002DE3D02046A847E0E700BFE6
S2140044F078200020024B1868003818BF012070474B
S2140045007820002010B507F02AFA044618B9034BA5
S21400451001215B689847204610BD00BF1C10002094
S214004520F7B5114D04460F466E6801210020CDE90F
S2140045300032B047DDE9003206463946204607F02D
S21400454017FA044618B901202B68984704463EB16E
S21400455000F0BCFA00B91CB100216B680846984709
S214004560204603B0F0BD00BF1C100020F7B5104D6C
S21400457004460F466B680121002001929847394691
S2140045800646019A204607F076F8044618B9012038
S2140045902B68984704463EB100F098FA00B91CB163
S2140045A000216B6808469847204603B0F0BD00BF60
S2140045B01C100020431E033306D8044B984228BF25
S2140045C01846642838BF6420704700BF40420F007A
S2140045D0F8B5054606F063F907460E4B1E6826B981
S2140045E0384606F060F9344610E0B46884B1237C9F
S2140045F09C46DB070CD44CF0010C95E80F0084F8C1
S21400460010C084E80F00384606F04DF92046F8BD85
S2140046103668E4E71010002038B505460C46E1B1D0
S2140046200B6843B11B68013317D0CB681BB18B688E
S214004630003B18BF01231846D722412100F024FA78
S214004640204602F0B3F80023054A85F80C311360C3
S214004650044AC5E92F43136038BD0023EBE700BFCB
S214004660802000208420002010B5044618B9054B91
S214004670054A136010BD00F0A1FBD4F8C830002B2B
S214004680F6D1F4E791B500001410002010B50C46E2
S21400469000F0AAFB1CB100F00BFC0128FBD1BDE822
S2140046A01040024B002103205B6818471C100020B6
S2140046B008B502460868FFF77DFF08604868FFF700
S2140046C079FF48608868FFF775FF8860C868FFF75D
S2140046D071FF0B69C860581C03D00B48834228BF83
S2140046E003460B614B69581C03D00748834228BF1A
S2140046F0034688694B61FFF75DFFBDE808408861A7
S214004700104601F0E5B900BF40420F002DE9F84F12
S214004710D0F8C03080460E4613B1038B8B4274D05F
S214004720D8F8BCB0BBF1000F41D0DBF80830002B46
S2140047303DD0DBF80C20D2B3D8F8D0A0BAF1000FE9
S21400474038D04FF000094D464F4601E0DBF8083000
S21400475005EBC50403EB8404E3890135B34215D8A1
S214004760238AB34212D3B4F91220B8F92430934204
S21400477052DD404698F80011FDF784FD98F8153094
S21400478081468342274604D9DBF80C209542DDD3C8
S21400479037B300233A4640461946D0470020A8F8CB
S2140047A01860C8F8C07088F80991BDE8F88F032033
S2140047B0BDE8F88FD14647F6FF755446514604EBE0
S2140047C0C40703EB8707FB89B34218D83B8AB3427A
S2140047D015D3B7F91220AA4204D14FF0FF09DDE73E
S2140047E00120E2E7404698F80011FDF74BFD98F8E7
S2140047F0153081468342D1D93946DBF80C20013486
S214004800A24205D9DBF80830D9E70020BDE8F88FCA
S2140048100029E5D00F46C1E72746BAE72DE9F04163
S21400482082B09DF820C0D0F8D08004460D461646CB
S2140048301F468DF807C0B8F1000F2ED000220DF1EC
S21400484007031146C047D4F8BC20194B20461A600F
S214004850184BD4F8C0201A60174B1D6000F0C2FD3C
S21400486005461EB9284602B0BDE8F081B0FA80F0D1
S21400487040F265323321400900F006F939462046F9
S21400488001F046F805460D4B20461B68D4F8C010CC
S2140048909847284602B0BDE8F081417D90F809317E
S2140048A06246994228BF194600F022FDCBE700BFBA
S2140048B080200020842000207C200020141000206F
S2140048C02DE9F04385B005460F4614461E4601F016
S2140048D083FA01F0A7FA00283BD1DFF82481D8F844
S2140048E000301BB1D5F8BC2093421FD000F0E0FA90
S2140048F0012838D1D8F800308BB31A687AB3D5F8C7
S214004900BC1009688A4246D0D5F8C0301A682846D6
S21400491007F019F838B901243346224639462846A6
S2140049200096FFF77BFF05B0BDE8F083304B1B68B1
S214004930002BDBD0D5F8C0209342D7D12D4B1B6877
S2140049409F4222D000F0B4FA0128E5D04FF00109CA
S2140049500BE00022264B1A6001F05CFABDE7D5F8A2
S214004960BC301968D0E74FF00009012000F03CFA8F
S21400497000F09EFA0128FBD11F4B002103205B6844
S2140049809847B9F1000FB5D0C6E706B174B9002054
S21400499005B0BDE8F083164A1268D2B11168D5F8A2
S2140049A0C02012689142B6D05968B0E70122D5F807
S2140049B0D0408DF80F2084B10022284611460DF114
S2140049C00F03A0470D4B28461B68D5F8C010984724
S2140049D0DDE7D5F8C0201268E6E7697D95F809316D
S2140049E02846994228BF194600F082FCEAE700BF35
S2140049F0842000207C2000201C10002014100020A2
S214004A0080200020F8B50E46054605F048FF3146E2
S214004A1007462846FFF77AFE044620B1384605F0DA
S214004A2042FF2046F8BD0346024631462846FFF7B9
S214004A3047FF0446384605F036FF2046F8BD00BF5F
S214004A404FF4007307B50A490DF10602ADF80630BB
S214004A5006F072FEBDF80630B3F5007F05D10228D9
S214004A6008BF002003B05DF804FB0120FAE700BF92
S214004A7088200020024B1960024B1860FEE700BF3A
S214004A80181000208C22002008B550B90548064BA7
S214004A9001601A60054B1A68054B1A601868FFF724
S214004AA0E9FF08BD1810002088220020782000208A
S214004AB08C220020014906F054BE00BFAD5F000006
S214004AC0014906F04EBE00BF815F0000014B18781A
S214004AD0704700BF86230020024BD868C0F30360EF
S214004AE0704700BF000002B8431C07D06FF0FF02FB
S214004AF0034B10405A62A3F580535862704700BFBC
S214004B0000E000B808B5094AFFF7E6FF0B2806D014
S214004B100C2809D0092814BF0020022008BD106CFC
S214004B2010F48030F0D1F9E70220F7E7000002B871
S214004B3010B504234FF03A4101240A4AD1F818016F
S214004B40C2F81831C2F814314C634FF400511163A7
S214004B50410742BFC2F81431A2F58052C2F818319C
S214004B6010BD00BF002000BA37B50C46204D41B935
S214004B700A46072104F042FD1E4B6C665C6003B0DB
S214004B8030BD0722114604F039FD07221A4B0121D9
S214004B90DA60237901A885F864306379019307F019
S214004BA0E1F8019BC2B2D34000F00F0040EA0310C8
S214004BB085F86500A27985F86620E27985F8672091
S214004BC02268AA6601932BB102EB430132F8023B3E
S214004BD08A4207D12279013A1344084A136204F044
S214004BE02DFDCCE732F8020B834228BF0346EFE7E1
S214004BF0003F00B0643F00B0006000B8004000B85E
S214004C0000F01803182B074B03D10022C3F88C20A2
S214004C107047010701D50122F8E7C206F5D540F234
S214004C200112F3E7003F00B03A4B2DE9F3411D684F
S214004C3040F2022317460B4000F0010213430646DB
S214004C400C463AD0A10709D5334BD3F8083F03F0FA
S214004C50C003402B02BF0221304B99604FF0000882
S214004C600AB30023002201200021CDE9008803F0CA
S214004C700DFB4FF0FF31284602F0C4FC4146688326
S214004C800120FFF703FD696B05F1D40002F02CFD4F
S214004C9023490868FFF728FF4FF0FF330B602B7C93
S214004CA043F008032B74A20507D50121284606F019
S214004CB02EFD24F4007406430C43D5E94A23324003
S214004CC0234052EA030103D016492846096888475C
S214004CD0FB070FD51449154A0868002113681160B0
S214004CE00121134A117003B19847124B002102208C
S214004CF05B68984717F00E0F08D04FF4F3723B210D
S214004D00002002B0BDE8F041FFF7BEBE02B0BDE82D
S214004D10F08100BF78200020003000B0001002B8FC
S214004D202810002024100020A02200209C22002012
S214004D30892300201C100020F7B5D0E94AC7044696
S214004D40DDE908658CEA060087EA0501104019408F
S214004D5080EA0C007940C4E94A0123F4004105EAE0
S214004D600103002522F0010043F4007306EA000266
S214004D7043F00203CDE9005503F088FA237C9A0736
S214004D8017D5D4F82C319B0513D54FF48031204627
S214004D9006F0BDFC237C65F341032374D4E94A2363
S214004DA002400B4052EA030103D00349204609683B
S214004DB08847002003B0F0BD2410002038B10368F7
S214004DC0044A002B08BF1346034A13607047014B82
S214004DD0FAE700BFE9B7000024100020014B0020CE
S214004DE0D9677047003F00B003282DE9F7434CD839
S214004DF0274B13F80080274B1E5C274B13F80090B8
S214004E0005F04DFD074603F02FFC054640B1002394
S214004E100022CDE9003301200023002103F036FAFA
S214004E2003F02AFC48B100230022CDE9003300201D
S214004E3000234FF4004103F029FA26B3174BDC6C2D
S214004E4004F00804164B3146DC64404603F044FE8A
S214004E504A463146404603F0BFFE124BDC6465B15D
S214004E60114B1868416BD43002F03EFC0F490868BD
S214004E70FFF73AFE4FF0FF330B60384603B0BDE84D
S214004E80F04305F010BD3446DCE703B0BDE8F08320
S214004E905CC8000060C8000064C80000004000B89D
S214004EA0006000B8005000B87820002028100020CD
S214004EB008B5FFF711FE0138C0B20B2802D8054B23
S214004EC0185C08BD044B5B6913F0060F0CBF01208D
S214004ED00420F6E768C8000000C001B831F00F02F1
S214004EE010B50BD1FFF7E4FF012809D1054CA36FDD
S214004EF023F00F0001431046A16710BD0120FCE718
S214004F000220FAE7003F00B008B50D4B1A6C12F00D
S214004F10A00F13D15B6C5B0701D5012008BD094BC0
S214004F20D3F8083F23F07F4323F0FF03002BF4D091
S214004F30FFF7D2FD092801D00C28EED10020EDE7BE
S214004F40000002B8003000B0024638B588B9194BE8
S214004F501B684BBB0125C1F12704C4F11C03002BC1
S214004F60B8BF5B42232B23DC7DB1134B19700020A6
S214004F7038BDFFF79DFF012818D10F4B002593F988
S214004F800040C4F12704641AE7E7917405F087FC33
S214004F900A4AE402136A04F4FF2423F4FF231C43A2
S214004FA0146205F080FCE2E70320E1E70220DFE779
S214004FB00120DDE7782000208823002000C000B80C
S214004FC0094B08465A6A91020BD4D3F80021D2073F
S214004FD008D4D3F8803013F4706F14BF012000207B
S214004FE070470120704700BF004001B8F8B514466E
S214004FF00D46426B064682EA04030B405340436369
S214005000334A01F00B0323EA0401D1642340A2F5DE
S21400501080526907D36410D50121FFF7D1FF60B134
S21400502003F0FAFC4FF4007314F0040F14BF294A7F
S214005030294A53620422294B1A64EA0606D514F05C
S214005040100F14BF00221B22254B5A652B061DD5B8
S214005050270616D54FF400121E4B1A62012203F5DE
S2140050608053C3F8002105F01AFC0E2107460320E2
S21400507002F08EFA40F20122194B3846DA6205F049
S21400508012FC214606F1D40002F02EFBE80503D5FB
S214005090E10517D502F04CFAAA0503D5A30514D5E9
S2140050A002F052FA15F0600F0AD0D6F8C410304657
S2140050B006F09BFB80220B4BC3F888000A4B1A6154
S2140050C00020F8BD02F02EFAE6E702F037FAE9E72C
S2140050D0006000B8005001B8006001B8002002B8B7
S2140050E0004000B8003F00B0000002B8014B186A4C
S2140050F002F060BA004001B8014B186A06F032BDF3
S214005100004001B8437C5A1F012A01D9082B05D15B
S2140051104B7B2BB1012B05D0022B05D006F08EBBA6
S21400512002487047024870470248704720A10700AF
S21400513048E8010040420F0070B50E4605F0AFFB90
S2140051400546FFF7DFFC044620B1284605F0ABFB1A
S214005150204670BD03F060FC104B3278D3F8083F51
S214005160022A23F0F00315D0042A0CBF02220022E4
S21400517043EA02137278022A0ED0042A0CBF0222D7
S214005180002243EA8213054AC2F8083F0422044B71
S2140051901A64DAE70122EBE70122F2E7003000B0FA
S2140051A0002002B838B50D4605F079FB04461E4AC5
S2140051B0FFF792FC062826D804282BD8032829D0E7
S2140051C003F02AFC194B2A78D3F8083F022A23F06A
S2140051D00F0324D0042A0CBF0222002213436A784D
S2140051E0022A1ED0042A0CBF0222002243EA8203AF
S2140051F00E4A2046C2F8083F04220D4B1A6405F0FA
S21400520052FB00200AE00728DAD1D2F84431002BFE
S214005210CED1D5E7204605F046FB022038BD012258
S214005220DCE70122E2E700BF000002B8003000B071
S214005230002002B8F8B50D780446022D0E4690F808
S21400524000710AD1002001F00FFB002844D1012094
S21400525001F00AFB002818BF0125284601F004FBD0
S21400526000283BD084F80051B3882846A4F80431BF
S2140052707388A4F80231B38804F58076A364FF230C
S214005280A37506F0E0FB6075304601F0ADFA054602
S21400529028BB304601F0DEFA054600BBD4F8C03025
S2140052A053B194F80011B94206D02046B3F9122043
S2140052B0FCF7E8FF84F80901204601F013FB0A49D1
S2140052C0A4F804010123094AD1F8FC1004F1D40023
S2140052D002F0CCFD2846F8BD0025BEE701250323D5
S2140052E084F80031F6E700BF004F00B0AC3F00B0D6
S2140052F070B5054690F800010C4603281DD0FF291E
S2140053001DD01AB14FF0FF320E4B1A6006F09BFB11
S214005310064695F8000101F0D7FA844228BF0446F5
S214005320E4B2B44238BF3446E0B2A87501F0D0FB10
S214005330A0F1FF035842584170BD0220FCE701204F
S214005340FAE700BF2C10002038B590F8003104466C
S214005350032B3FD0D0F8C0504175C5B3D0F8D0303D
S214005360DBB990F809318B421DD300222046FFF7A7
S214005370BFFF054678B9184B1B78012B0BD8204683
S21400538001F0B0FA15490123154AD1F8FC1004F1D2
S214005390D40002F06BFD284638BDB0F92420B5F9DC
S2140053A012309A42E1DD0022204694F80911FFF7F8
S2140053B09FFF05460028EED1C4F8C000204606F040
S2140053C026F901462046BDE83840FFF71BBBFF2301
S2140053D08375E0E70225DEE748100020004F00B0A6
S2140053E0AC3F00B0F0B5C36B8BB0012B03D10025EA
S2140053F028460BB0F0BD0446564906F072FBD4F8BA
S214005400C0700546268BC4F8C40027B13B6813B1AC
S2140054105B68002B6AD105F042FA05F044FA0123D6
S2140054201A46D4F8C4508DF80E30BB89F31A9BB2D6
S214005430D7E90160ADF80C3000FB0366464B0296D8
S2140054401B689D4209D02946204606F0CEF98021E9
S214005450424BC3F88800424B19613146204604ABE4
S214005460099502F03DFA00283CD13E4A3E49FFF736
S21400547033FB431EDBB20B2B2FD8D35C012BF6D1AC
S214005480374A3A49136CDB01FCD40B6CDF07F9D4BE
S21400549004A901A802F00AFC054618BB228B344B6F
S2140054A05A64237C60F34103237406F089FAD4F827
S2140054B0C0305B691A68431EDBB2FD2B00921CD914
S2140054C0D61C1AD92B4B01321B681ED0DA1C8FD87B
S2140054D0024669462046009312E04B6913F0060F19
S2140054E0CED0C4E7022528460BB0F0BD1A68032AC2
S2140054F091D99B6A5A0E134695E70246694620469E
S21400550006F049FA28460BB0F0BDD91C05D802466D
S21400551069462046009306F03EFAD4F82C319B05E7
S21400552004D4237C43F00203237461E74FF48031F4
S214005530204606F0ECF8D4F82821D4F82C310240A6
S2140055400B4052EA03013FF453AF0B49204609686B
S21400555088474DE7FC4F00B094220020003F00B083
S214005560000002B868C8000000C001B800C002B859
S214005570008001B8381000202410002038B590F8BC
S2140055800C5104463DB305F08AF91F22124B013D2B
S2140055905A621540114A12495562D4F810518D6668
S2140055A0D4F81451CD66D1F80011C9070FD54FF0C5
S2140055B0FF31C3F80411216CC2F804114FF0F0411A
S2140055C0C3F81011E37CDB060B40C2F81031BDE8CF
S2140055D0384005F068B938BD006001B8005001B821
S2140055E0004001B810B58B780246012B0C467FD8D8
S2140055F0CB78012B7CD80878012879D849780429FB
S21400560076D809B1012B73D101283AD02068C2F8A8
S21400561018016378002B35D13649C1F88C304FF02D
S2140056206051354B1962354B1B7813B10621344B4C
S21400563099674FF08051334B02F1D400D964516B17
S21400564002F052F84FF480722F4BC3F81821C3F8BB
S2140056501421A378002B42D14FF03A4340F6FF7254
S2140056601A63E378002B3DD14FF03A4340F6FF72C1
S2140056701A676022254BDA6403F5E83340220020DF
S2140056801A6410BD013BDBB2032BE2D84FF0605129
S2140056901F4A52F82330184A43F400131162A2F549
S2140056A0805213620423A2F58832C2F88C30936FBE
S2140056B023F0060343F0040393674FF08052154B24
S2140056C0DA6402F0E1FF0028C3D04FF480730E4A7C
S2140056D0C2F81431A2F58052C2F81831B9E7FFF7C4
S2140056E027FABEE76022064BDA6403F5D833C5E72F
S2140056F00120C6E7004000B8006001B887230020FC
S214005700006000B8002002B8002000BA005000B8C0
S2140057104CC80000001002B82DE9F74F8046164628
S214005720084619B9012003B0BDE8F08F002AF9D069
S214005730032904D8002100F023FF0028F2D0B0F996
S214005740001083780029048807794579B0F806C0E8
S21400575003F00702C0F2AC80D01F41424141052A47
S214005760317294BF0021C3F30011C3F3801071722D
S2140057709909307301F00201C3F3C0000143C3F37B
S21400578040137173B373F773D8F83430A6F810C0AB
S214005790DB0600F18780063A012A00F28380454B3B
S2140057A001275B6D4FF03A431A6DDB6C083C03F043
S2140057B0070306339F40013F42F0005B3C401BF866
S2140057C0049001343C40621D3A40531C3B401BF899
S2140057D003301BF802A0A9F132094AEA032A98F816
S2140057E011304FFA89F983B30020D8F8CC300BB1CA
S2140057F049469847631CF07286F80A903B401BF8AF
S214005800031001333B401BF8032001333B4041EAC1
S21400581002211BF8032001333B401BF8033041EA0A
S214005820024141EA03611AF4804305D0224BDB6F44
S214005830002B14BF002302234046727B02F0FAFBC3
S21400584006233060B37100206DE71AF4805F25D020
S214005850D8F8C430ABB11A68022A12D993F82430AB
S214005860CAF30B00C0000BB1B0FBF3F08542BBD807
S2140058700028B9D0C5EB0525B5FBF0F0C043C0B293
S214005880B3E731464046FFF73DFC0190404605F041
S214005890C5FF019BB3FBF0F0C3B2E1E71BF80400C1
S2140058A04000ECE70020802330607381B0713AE757
S2140058B0022038E7004000B8003F00B070B54FF057
