S01E000062745F736F635F746865726D6F6D657465725F6D6F636B2E73333748
S214012000C00A0020B53D01007912030079120300D1
S214012010E52A0300791203007912030079120300FE
S2140120207912030079120300791203007912030072
S21401203079120300E0BF0300EB10030079120300DE
S2140120407912030079120300791203007912030052
S21401205079120300791203006B140300791203004E
S2140120607912030079120300791203007912030032
S214012070C9980100791203007912030001370100A3
S214012080B3110300791203007912030079120300D9
S21401209079120300814401007912030079120300CA
S2140120A079120300FD450100D945010079120300AC
S2140120B079120300D1ED020079120300B1F7020094
S2140120C021B503001DB50300ADEF02002DB50300D9
S2140120D025B5030089F7020029B5030011F80200AF
S2140120E055D2020025D40200F1F70200791203004E
S2140120F00328030079120300791203007912030002
S2140121007912030079120300791203007912030091
S2140121107912030079120300791203007912030081
S2140121207912030079120300791203007912030071
S2140121307912030079120300791203007912030061
S2140121402DE9F04F2DED088B8DB09DED1E7B09EE30
S214012150903ADDE920430A93229B09EE100A8A464B
S2140121600792069351EC170B53EC172BB0EE478AE8
S214012170F0EE678A1EF00CF880B14FF0FF3251EC9A
S214012180180BCF4B1EF02CF840B94FF0FF326FF40E
S214012190801351EC180B1EF005F898B1069B5146BA
S2140121A022930A9B19EE100ACDE9204319EE903AC4
S2140121B0079A8DED1E8B0DB0BDEC088BBDE8F04F78
S2140121C000F0A2B90022002351EC180B1DF0EAFF23
S2140121D0002800F0448118EE903A18EE108A03F1B8
S2140121E00049069BC9F30A5013F48063A0F2FF303E
S2140121F008BF06240B931DF0F9FCA1A3D3E9002325
S2140122001DF05EFDA0A3D3E900231DF0A3FBC9F3D7
S21401221013050F4645F07F5106460022A94B40465E
S21401222041F440111DF094FB99A3D3E900231DF05E
S21401223047FD02460B46304639461DF08BFB1DF026
S214012240D9FF83461DF0D2FC93A3D3E900230646AB
S2140122500F461DF035FD00229B4B1DF07BFB1DF04C
S214012260C9FF8FA3D3E900230546394630461DF042
S21401227027FD064628460F461DF0B8FC8AA3D3E97B
S21401228000231DF01DFD02460B46304639461DF063
S2140122905FFB02460B4606460F461DF011FD324611
S2140122A041EC1A0B3B46304639461DF053FB0022E3
S2140122B041EC1B0B854B51EC1A0B1DF02BFE00223B
S2140122C0834B1DF047FB02460B4651EC1A0B1DF0E3
S2140122D021FE00227F4B1DF03DFB02460B4651ECD2
S2140122E01A0B1DF017FE324641EC1A0B3B46002036
S2140122F04FF080411DF02CFB02460B4651EC1A0BA9
S2140123001DF028FB02460B4651EC1B0B1DF002FE8E
S21401231005F2FF350022704B1DF01CFB00222B0539
S2140123201DF0CEFC42464B4606460F461DF058FFB2
S214012330002840F09780CDE908670BF16303C72BAF
S214012340069B34BF04250525190521D558A3D3E9D5
S2140123500023404649461DF039FF002800F0BE80A4
S21401236055A3D3E90023404649461DF01BFF00282C
S21401237000F0B48000255C45CCBFA4EB0B00002424
S214012380AB46069BC8BF00F1FF3443F48063069357
S2140123900A9B9D4238BF5E1B069B28BF002613F092
S2140123A0020702D0002D18BF0026BBF1000F07D090
S2140123B0DDE90823404649461DF0ACFD80468946C6
S2140123C00022002351EC180B1DF0ECFE10B109F1B0
S2140123D000439946069B514623F40063CDE9036307
S2140123E019EE100A19EE903ACDE90089079A02947F
S2140123F000F08AF875B3069B024613F0200F00F131
S214012400010619EE903A14BF45206520514619EE93
S214012410104AA0470523002205930A238BEAEB7096
S214012420CDE90232A0EBEB704FEADB73013D01937D
S214012430009019EE903A3246514619EE100A04956C
S21401244021F065FC37B1079BC51A079B58190A9BF3
S214012450AB424CD80DB0BDEC088BBDE8F08F59EC03
S214012460188BBEE6002230463946194B1DF052FD48
S2140124700BF1FF3BCDE908015FE700BFAFF300803A
S214012480FB799F501344D33FB3C8608B288AC63F5D
S21401249061436F63A787D23F71A379094F930A40BF
S2140124A01655B5BBB16B0240EF39FAFE422EE63F38
S2140124B02D431CEBE2361A3F0000000080842E41BB
S2140124C0FFFFEF7F0000F83F0000E03F00002C40D8
S2140124D000002440000018400000F03F002C3FF4AC
S2140124E057AF0B9B002B3FF453AF013C50E702461E
S2140124F019EE903A5146202019EE104AA0470135B0
S214012500A3E700BF000000002DE9F04F2DED088B7A
S2140125108FB0DDE920AB08EE100A0F4608EE902AD0
S21401252009EE103ADDE922535246049350465B46C3
S2140125305946249E1DF02CFEA0B9049B2396229397
S21401254003232193B84B209318EE902A19EE103AE4
S214012550394618EE100A0FB0BDEC088BBDE8F04FF7
S21401256021F00DBB4FF0FF326FF4801350465946F1
S2140125701DF018FE30B1049B239622930423219369
S214012580AA4BE0E74FF0FF3250465946A84B1DF0E4
S21401259027FE70B1A74A06F00403002B08BF0322EA
S2140125A0A54B1CBF1346042204992396CDE921218D
S2140125B0C9E7504698A3D3E9002359461DF010FEFB
S2140125C038B997A3D3E90023504659461DF0EAFDD2
S2140125D098B1049B18EE902ACDE92253394619EE9C
S2140125E0103A18EE100ACDE920AB24960FB0BDECD8
S2140125F0088BBDE8F04FFFF7A3BD0022002350462D
S21401260059461DF0CFFD002800F081805B465246FA
S214012610002000211DF09CF9012382468B4605937C
S21401262016F4806F08BF06253021A94606ABA5F132
S2140126302002B9F1090FA5EB090406D909F1FF3902
S2140126404A4503F8011BF4D12024594650461DF093
S214012650D1FD7A4B054603EBC90393ED007BB0EE43
S21401266047AAF0EE67AA1DF0C1FA02460B4650468D
S21401267059461DF06DF953EC1A2B1DF021FB02464D
S2140126800B4643EC1B2B1DF0DDFD80461DF09EFA2C
S21401269002460B4651EC1B0B1DF05AF902460B463F
S2140126A043EC1B2B0022664B1DF09AFD88B308F104
S2140126B0010840461DF08AFA02460B4651EC1A0BF9
S2140126C01DF07AFD10B14FF000080135B9F1000F89
S2140126D051D128461DF08AFA02460B465046594605
S2140126E01DF036F90022564B804689461DF05AFDEC
S2140126F030B1002240464946514B1DF071FD10B1E4
S214012700E80700D5013506AB0A2223445AE00590B6
S21401271086E7002251EC1B0B494B1DF043FD0028B8
S214012720D4D1B8F1000F02D018F0010FCED008F1C5
S2140127300108CBE7B8FBF1F001FB1082B8F1090FF5
S21401274002F1300209F1FF3904F1010403F8012B0B
S21401275028D83021A14406AA202C11D04C4504F1DA
S214012760010321D104F138020DEB02042E2204F8F4
S214012770202C1C46C7E70A2106AB2344202CD9D1BE
S21401278006F00303012B06AB39D1049A002A36D092
S214012790059A12B916F00C0F02D0049A013A049267
S2140127A0302214E08046E9E7A1541C46D4E795FBA5
S2140127B0F2F102FB1155303503F8015B01340D4689
S2140127C00029DDD0202CF2D1DAE71A55013404991C
S2140127D0A14214D9202CF8D1049A0093CDE90142E4
S2140127E019EE103A18EE902A394618EE100A03969A
S2140127F021F0C5F90FB0BDEC088BBDE8F08F202C99
S214012800EAD0059AF2B12D2104F138026A4402F8A1
S214012810201C0134E0E700BF0000000065CDCD417B
S2140128200000000065CDCDC19FC40300A3C4030012
S214012830FFFFEF7F9AC4030096C40300A8C40300F9
S2140128400000E03F710704D504F138022B216A44E9
S214012850DDE73207C0D504F1380220216A44D6E705
S21401286070B505463E4C8AB020B10023008823602F
S2140128700CF006FC3B4828F0FBF83B4E3B4B304641
S21401288033603B4B736024F0AAF80021304616F003
S214012890B3FC31A3D3E90023A062C4E9062324F0E4
S2140128A0A6F8D4E90623194310434FF0FF33C4E9D1
S2140128B00601CDE900014FF0FF32A06A28F03FF98A
S2140128C002224FF0FF31A06A28F03EF901200CF0F9
S2140128D097F94FF4007300222649A06A28F08DF973
S2140128E0B0F5007F36D100239422CDE90733099352
S2140128F03C23CDE9033205939623A06A03A90693E8
S21401290016F0C8FD25B3287C0CF0D8FD0546E0B9C5
S214012910A06A28F053FA0CF079FD0CF053F920B1B7
S2140129204FF4807000210AF095FF0CF05BF920B19E
S2140129304FF4006000210AF08DFF012016F0B0FC74
S2140129400D4A0E49A06A24F048F828460AB070BD20
S214012950FF20D9E70725F8E709D501552000000033
S214012960A00F0020690345EC3C27002065F201001A
S214012970302700203025002083690300C369030047
S21401298010B5054C237833B9044B13B1044800E065
S21401299000BF0123237010BDF011002000000000CD
S2140129A0F40D040008B5034B1BB10349034800E0CE
S2140129B000BF08BD00000000F4110020F40D040063
S2140129C0A3F5803A704700BF174B002B08BF134B87
S2140129D09D46FFF7F5FF00218B460F461348144A24
S2140129E0121A28F0F0FD0E4B002B00D098470D4B25
S2140129F0002B00D098470020002104000D000D4850
S214012A00002802D00C4800E000BF1DF0E7FD2000C2
S214012A1029001EF05EFB1DF0CDFD00BF0000080082
S214012A200000000000000000C00A0020380F00204F
S214012A30882D00200000000000000000002337B5AC
S214012A40694601A8CDE9003301F00CF8112853D1ED
S214012A50032001F049F9344C58B1344920681FF07D
S214012A6013FF1EF0F8FB1EF0F7FB314920681FF03C
S214012A700BFF304920681FF007FF2F4B1B780BB167
S214012A802E4B00930320009C01F02EF9D0B1264D69
S214012A90264928681FF0F8FE1EF0DDFB1EF0DCFB61
S214012AA007EE904A9FED267AF8EEE77AC7EE877A28
S214012AB017EE900A1DF0ACF802460B46286821492D
S214012AC01FF0E2FE204B00220099187800F02AFE43
S214012AD080B1022001F008F960B1134C1B4920684F
S214012AE01FF0D2FE1EF0B7FB1EF0B6FB1849206899
S214012AF01FF0CAFE03B030BD0028BED0022001F090
S214012B00F3F80028B9D0084C104920681FF0BCFE25
S214012B101EF0A1FB1EF0A0FBDDE900320D49206886
S214012B201FF0B2FEA9E700BF8C150020D8B703003E
S214012B30DDB7030051B80300542C0020E0B1FFFFBD
S214012B4000007A443DB80300552C00201AB8030053
S214012B5053B803001FB8030010B5032001F0C4F8F2
S214012B6060B1144C144920681FF08EFE1EF073FBF2
S214012B701EF072FB114920681FF086FE00F050FF20
S214012B80B0B1022001F0B0F80A4C58B10C492068E7
S214012B901FF07AFE1EF05FFB1EF05EFB09492068FF
S214012BA01FF072FE20680849BDE810401FF06CBE99
S214012BB010BD00BF8C150020D8B7030086B80300EF
S214012BC01AB80300A6B8030051B8030070B503682D
S214012BD0A54A23F47F4323F00703934204468AB0B1
S214012BE000F02D8102F18072934200F063819F4ACA
S214012BF0934240F02281032001F076F890B19C4D7B
S214012C009C4928681FF040FE1EF025FB1EF024FBA1
S214012C1063899949019323890093E388A2882868E8
S214012C201FF032FE0DF11F0108A80FF053FA0546FA
S214012C3010B38F4C914920681FF026FE90492068FA
S214012C401FF022FE1EF007FB1EF006FB8D4B8E4A80
S214012C5000938E49772320681FF016FE8C492B4679
S214012C608C4A20681FF010FE284601F083F88A4936
S214012C7020681FF009FEFEE7032001F035F820B3B7
S214012C807B4C7C4920681FF0FFFD1EF0E4FA1EF025
S214012C90E3FA9DF820309DF81F0004939DF821303B
S214012CA07E4903939DF822307D4A02939DF8233096
S214012CB0002808BF0A4601939DF8243079490093FD
S214012CC020689DF825301FF0DFFD774E30460FF067
S214012CD049F9054610B3664C684920681FF0D4FDD3
S214012CE0674920681FF0D0FD1EF0B5FA1EF0B4FA51
S214012CF0644B654A00936549842320681FF0C4FD30
S214012D0063492B46634A20681FF0BEFD284601F042
S214012D1031F8614920681FF0B7FDFEE702213078DF
S214012D200FF05AF9044610B3514D544928681FF064
S214012D30ABFD534928681FF0A7FD1EF08CFA1EF064
S214012D408BFA504B504A00935049892328681FF04C
S214012D509BFD4F4923464F4A28681FF095FD2046A4
S214012D6001F008F84C4928681FF08EFDFEE7A02206
S214012D7003460090114630780FF00CF9054610B363
S214012D803B4C3E4920681FF07FFD3D4920681FF0FF
S214012D907BFD1EF060FA1EF05FFA3A4B3A4A00934A
S214012DA03A49922320681FF06FFD39492B46394A6C
S214012DB020681FF069FD284600F0DCFF36492068D0
S214012DC01FF062FDFEE7022130780FF019F9054683
S214012DD010B3274C294920681FF056FD2849206862
S214012DE01FF052FD1EF037FA1EF036FA254B264A22
S214012DF000932649972320681FF046FD24492B4659
S214012E00244A20681FF040FD284600F0B3FF2249FF
S214012E1020681FF039FDFEE7032000F065FF60B172
S214012E20134C144920681FF02FFD1EF014FA1EF0F3
S214012E3013FA1E4920681FF027FD0AB070BD032053
S214012E4000F052FF0028F8D0094C0A4920681FF00C
S214012E501BFD1EF000FA1EF0FFF9154920680AB0A6
S214012E60BDE870401FF010BDA0000600A0000100E4
S214012E708C150020D8B7030002B9030051B803002F
S214012E8029B9030044BA03002EB9030037B9030079
S214012E9046B9030043B903005BB90300F4B8030065
S214012EA0E6B803006CB903003A0D0020A1B903008F
S214012EB0B6B90300032000F017FF60B1384C39495A
S214012EC020681FF0E1FC1EF0C6F91EF0C5F9364970
S214012ED020681FF0D9FC354C022120780FF07CF8D1
S214012EE0054610B32E4C324920681FF0CDFC3149FF
S214012EF020681FF0C9FC1EF0AEF91EF0ADF92E4B8E
S214012F002E4A00932E49B32320681FF0BDFC2D499D
S214012F102B462D4A20681FF0B7FC284600F02AFFF2
S214012F202A4920681FF0B0FCFEE7022120780FF046
S214012F3067F8054610B31A4C1D4920681FF0A4FC1B
S214012F401C4920681FF0A0FC1EF085F91EF084F9CC
S214012F50194B1A4A00931A49B82320681FF094FCAB
S214012F6018492B46184A20681FF08EFC284600F0A8
S214012F7001FF164920681FF087FCFEE7032000F0DA
S214012F80B3FE00283FF459AF054C064920681FF0F0
S214012F907BFC1EF060F91EF05FF90D495EE700BF8D
S214012FA08C150020D8B70300C9B903003A0D0020DC
S214012FB051B8030029B9030044BA03002EB903002F
S214012FC037B9030046B9030043B903005BB90300F0
S214012FD0A1B9030037B5154800F08AFD054610B3C0
S214012FE0134C144920681FF04FFC134920681FF04A
S214012FF04BFC1EF030F91EF02FF9104B104A114908
S21401300000932068D5231FF03FFC0F492B460F4A3B
S21401301020681FF039FC284600F0ACFE0C492068F9
S2140130201FF032FCFEE703B030BD00BF0C120020DB
S2140130308C15002051B8030029B9030029BA0300F2
S2140130402EB9030037B9030046B9030043B903009C
S2140130505BB90300204B37B51870002936D01F4DD9
S2140130602B78002B30D0002301211D4A1D480093E8
S21401307000F058FD044610B31B4D1C4928681FF08C
S21401308003FC1B4928681FF0FFFB1EF0E4F81EF046
S214013090E3F8184B184A00931849EF2328681FF0E5
S2140130A0F3FB17492346174A28681FF0EDFB204615
S2140130B000F060FE144928681FF0E6FBFEE70146B3
S2140130C00848FFF7BBFC2C7003B030BD054803B0C1
S2140130D0BDE8304000F00CBD552C0020542C0020DB
S2140130E03D2A01000C1200208C15002051B8030067
S2140130F029B90300F2B903002EB9030037B903005A
S21401310046B9030043B903005BB9030010B5044692
S2140131101EF0FAF801280FD1084B9C420CD1084B3F
S21401312018701EF098F81EF097F8BDE81040054B91
S214013130054918681FF0A8BB10BD00BF28BE0300D4
S214013140542C00208C150020DCB9030030B58BB060
S2140131500DF11F0108A80EF0BDFF054618B3274C58
S214013160274920681FF090FB264920681FF08CFB3A
S2140131701EF071F81EF070F8234B244A2449009380
S214013180206840F249131FF07FFB22492B46224A52
S21401319020681FF079FB284600F0ECFD1F492068E7
S2140131A01FF072FBFEE7032000F09EFD20B3134CD8
S2140131B01B4920681FF068FB1EF04DF81EF04CF806
S2140131C09DF820309DF81F0004939DF82130154985
S2140131D003939DF82230144A02939DF82330002869
S2140131E008BF0A4601939DF82430104900932068D1
S2140131F09DF825301FF048FB0BB030BD8C15002024
S21401320051B8030029B90300ECB903002EB9030035
S21401321037B9030046B9030043B903005BB903009D
S214013220D8B70300F4B80300E6B803006CB903008E
S21401323030B503687F4A23F47F4323F007039342A4
S21401324089B040F0F4800822002112207A4B0EF05B
S214013250FDFE044610B3794D794928681FF014FB2A
S214013260784928681FF010FB1DF0F5FF1DF0F4FFEC
S214013270754B764A009376493D2328681FF004FB78
S21401328074492346744A28681FF0FEFA204600F067
S21401329071FD724928681FF0F7FAFEE7014603221E
S2140132A014206F4B0EF0D2FE044610B3634D6449F2
S2140132B028681FF0E9FA634928681FF0E5FA1DF04F
S2140132C0CAFF1DF0C9FF604B604A009360494B235B
S2140132D028681FF0D9FA5F4923465F4A28681FF01D
S2140132E0D3FA204600F046FD5C4928681FF0CCFA68
S2140132F0FEE70146052216205A4B0EF0A7FE0546AC
S21401330010B34E4C4E4920681FF0BEFA4D49206856
S2140133101FF0BAFA1DF09FFF1DF09EFF4A4B4B4A65
S21401332000934B49592320681FF0AEFA49492B46B2
S214013330494A20681FF0A8FA284600F01BFD4749B5
S21401334020681FF0A1FAFEE70DF10F0104A80EF0A8
S214013350C1FE044610B3394D394928681FF094FA66
S214013360384928681FF090FA1DF075FF1DF074FFAC
S214013370354B364A00933649642328681FF084FA91
S21401338034492346344A28681FF07EFA204600F066
S214013390F1FC324928681FF077FAFEE79DF81530F0
S2140133A001468DF818309DF8143008228DF8193032
S2140133B09DF8133018208DF81A30FF238DF81B3036
S2140133C0FE238DF81C309DF812308DF81D309DF8C7
S2140133D011308DF81E309DF810308DF81F3006AB79
S2140133E00EF034FE054610B3144C154920681FF044
S2140133F04BFA144920681FF047FA1DF02CFF1DF008
S2140134002BFF114B114A00931149742320681FF0BA
S2140134103BFA10492B46104A20681FF035FA284619
S21401342000F0A8FC0D4920681FF02EFAFEE709B04F
S21401343030BD00BFA000010053BA03008C15002068
S21401344051B8030029B903008EBA03005CBA030021
S21401345037B9030046B9030043B903005BB903005B
S21401346084BA030088BA030030B50A4C0A4B2268B6
S2140134700A4D1A600A4B85B02B600A4B019304F083
S214013480ADFE2B68029001A9206803931EF027FE6B
S21401349005B030BDCC0A0020B0200020AC200020B2
S2140134A0C00A0020F4BD0300014B18681EF02BBEB5
S2140134B0CC0A002038B504F091FE0446064D2B6870
S2140134C0D3F8B00204F07EFE28681EF02FFE2046D8
S2140134D0BDE8384004F076BECC0A002010B5234C77
S2140134E001F0C0FC01F096FE236F23F0070343F0C2
S2140134F0030323671EF08BF81D4B00209B6A9B0776
S2140135005EBF01221B4B9A62D4F8203123F00303DD
S21401351043F00203C4F82031D4F8243123F0070322
S21401352043F00203C4F82431D4F8403123F00303F6
S21401353043F00203C4F84031D4F8603123F00303AA
S21401354043F00203C4F86031D4F8403223F0030399
S21401355043F00203C4F84032D4F8003223F00703E4
S21401356043F00203C4F8003210BD00BF00800050D3
S21401357000C0005000E0005008B5184B1B68C3F3AC
S2140135800743012B0ED1164B04205A6E4FF48023AD
S2140135901449520358BF144A4B6601F5104108629C
S2140135A058BF536604F030FD1DF062FE04F0BEFC09
S2140135B01FF025F904F0DCFC1FF01BF904F00EFDEA
S2140135C0FFF78CFF04F0C2FC1DF049FE00F0AAFCD8
S2140135D001F026F8BDE8084005F0C2BA0080E00F09
S2140135E0008000500090005000A0005030B51C4DE7
S2140135F095B00DAC0FCD0FC495E80700032384E802
S21401360007008DF84D302923164A1749CDE90223C4
S214013610164B1024CDE904134FF480732246002183
S21401362009A8069327F0CFFF4FF4A020104B0DAA50
S214013630CDE907030F238DF824300E4B07A90A9313
S21401364020230B9301238DF831300B4B0B4800934D
S21401365002AB8DF8254005F06BF815B030BD00BF04
S2140136600CBE030000000650000500060008000717
S21401367024000650562C0020001500205C15002062
S214013680831E012B10B513D8012911D8124B042221
S2140136901B6905210020C3F3401301F0E1FFBDE8DB
S2140136A010400E4B01211A680D4B10685B6A1847D3
S2140136B08B1E012B0CD801280CD8BDE81040002227
S2140136C0054B05211B691046C3F3401301F0C8BF23
S2140136D00129E4D910BD00BF00C00350D80A00205C
S2140136E00015002008B50449044805F0FBFABDE8BA
S2140136F00840FFF77BBF00BFD00A0020541500200A
S21401370001481FF0A5B900BF5C150020014B1A6ADD
S214013710186810475C15002001481DF0F0BD00BF79
S21401372028BE030013B50446064B052218681B790C
S21401373000908DF804301B216B4620460EF0B4FC39
S21401374002B010BD1BBF030030B50368524A23F414
S2140137507F4323F007039342044685B063D002F10A
S2140137600172934265D04D4A934260D101220225EF
S21401377000211E200DF10D038DF80D50ADF80E2021
S2140137800EF064FC044610B3454D464928681FF008
S2140137907BF8454928681FF077F81DF05CFD1DF0A1
S2140137A05BFD424B424A009342499E2328681FF024
S2140137B06BF841492346414A28681FF065F82046C0
S2140137C000F0D8FA3E4928681FF05EF8FEE72A4660
S2140137D001460DF10E0323200EF038FC054630B3EA
S2140137E02F4C304920681FF04FF82F4920681FF0F2
S2140137F04BF81DF030FD1DF02FFD2C4B2C4A00938D
S2140138002C49A42320681FF03FF82B492B462B4A4E
S21401381020681FF039F8284600F0ACFA28492068DD
S2140138201FF032F8FEE781798088FFF7D3FB05B0F9
S21401383030BDB0F805301B2BF9D1C379012B05D16A
S21401384001890079C9B2FFF705FCF0E7022B03D125
S21401385000791DF0F8FCEAE7114D124928681FF0BF
S21401386013F8114928681FF00FF81DF0F4FC1DF03D
S214013870F3FC144B0E4A00930E49852328681FF06B
S21401388003F8114A114928681EF0FEFFE279104933
S21401389028681EF0F9FFFEE7A0000601A00001005F
S2140138A08C15002051B8030029B9030020BF03007E
S2140138B040BE030037B9030046B9030043B903000D
S2140138C05BB9030038BF0300B0BE0300B6BE0300F9
S2140138D0CEBE03007FB500240368464A23F47F4327
S2140138E023F00703934205468DF808408DF80940FA
S2140138F08DF80A408DF80B408DF80C408DF80D4080
S2140139006DD002F18272934271D1B0F80530282B46
S2140139106DD1FF2304A91A4611E903001DF094FC9A
S214013920012814BF41F2FC14334B4FF0280108BFA5
S214013930187004F0FC0228790EF09EFB064610B3C0
S2140139402E4C2F4920681EF09FFF2E4920681EF03E
S2140139509BFF1DF080FC1DF07FFC2B4B2B4A009338
S2140139602B494E2320681EF08FFF2A4933462A4AE8
S21401397020681EF089FF304600F0FCF927492068D0
S2140139801EF082FFFEE71C4B1B78002B2FD02879F8
S2140139900EF04AFB054650B3184C194920681EF034
S2140139A073FF184920681EF06FFF1DF054FC1DF0D0
S2140139B053FC154B154A00931549542320681EF0F5
S2140139C063FF14492B46144A20681EF05DFF284603
S2140139D000F0D0F9114920681EF056FFFEE7064BAD
S2140139E01B7823B104B0BDE870401FF062B904B083
S2140139F070BD00BFA0000601762C00208C150020AB
S214013A0051B8030029B90300B9BF03004ABF030038
S214013A1037B9030046B9030043B903005BB9030095
S214013A2038B500F0E7FE0B4D044618B100232B70A5
S214013A30102038BD012000F039FF18B100F00CFF4E
S214013A402C70F5E7044B054A1A60054B18600123F4
S214013A502B70EEE7772C0020DC0A0020E0B1FFFF98
S214013A6080150020124B70B51B7806460D46114C8A
S214013A7093B100F031FF4FF47A73434323602B6018
S214013A800D4A0E4913680020336003F57A738B42A2
S214013A9088BF0023136070BD44F6206223680B6064
S214013AA003F57A739342C8BF054B2360E8E700BF6E
S214013AB0772C0020DC0A002080150020A08601005B
S214013AC0E0B1FFFF002209490B684BB1834204D1E4
S214013AD0836A4AB19362012070471A469B6AF4E7EB
S214013AE00028F5D0184670470B60F4E784150020CF
S214013AF010B5044690B105F0A1FC2046FFF7E2FFA1
S214013B0058B194F82C0040B11DF09DFD044A13688D
S214013B10013B13601DF09DFD002010BD2220FCE737
S214013B20881500202DE9F04F85B005469146984648
S214013B300E469DF8387009B9002F62D12846FFF766
S214013B40D7FF044600283CD185F82C00686305F0B1
S214013B5051FD864239D905F0EDFC40F2E7318C463D
S214013B602146E6FB00C14FF47A72604600231CF042
S214013B7089FB4FF0FF32002383468A461CF082FB06
S214013B804FF0FF32E8860023584651461CF07AFB78
S214013B902B4611462846CDE900441B4A1FF016F86D
S214013BA0044670B9194AC5E90898136885F82D7056
S214013BB02E6323B31A469B6A002BFBD19562002322
S214013BC0AB62204605B0BDE8F08F47B12B463146C3
S214013BD02846CDE900440C4A05F0D0FCE0E7304623
S214013BE003A905F0ADFC04460028EAD12B46284679
S214013BF0CDE90077044A03991EF0C4FFD0E71560AB
S214013C00DDE72124DDE700BF113C0100841500201B
S214013C1091F82C3013B50C4683B98B8ECA8E93421D
S214013C200ED243B9CDE9003320460B46104A4FF079
S214013C30FF311EF08BFFA38E0133A38602B010BDA9
S214013C4052B191F82D307BB101230093D1E90823BD
S214013C502046096BFFF766FF0123064A84F82C30DD
S214013C60136801331360E9E7084605F0E7FBF3E75D
S214013C70113C01008815002070B5104D2B681BB152
S214013C8000260F4B1C6804B970BD94F82C3093B114
S214013C901DF0D9FC2B6884F82C60013B2B601DF0CD
S214013CA0D8FC94F82D3013B92046FFF70BFFD4E962
S214013CB0083120469847A46AE5E700BF881500202A
S214013CC084150020034B1B68002B0CBF0120042029
S214013CD0704700BF88150020024B1868B0FA80F0C4
S214013CE040097047881500200B4B02461B788BB1A4
S214013CF00A4B1B78834234BF00200120084B1B78F7
S214013D003BB1084B1B7843FA02F212F0010F08BFD1
S214013D10002070470120F1E73B0D00203C0D0020FC
S214013D20782C00203D0D0020012208B5074B1A70A3
S214013D300022074B1A700422064B1A701F22064BEC
S214013D401A7004F04BFA054B186008BD3B0D0020B5
S214013D50782C00203C0D00203D0D00208C15002005
S214013D60024B034918681EF08FBD00BF8C1500205A
S214013D70D9BF030070B50C4C0C49064620681EF0EE
S214013D8083FD04F02BFA0546206804F01BFA304642
S214013D90FFF7E6FF284604F015FA20680449BDE857
S214013DA070401EF071BD00BF8C150020DBBF030004
S214013DB0DDBF030008B500F02DF8124B12498B4207
S214013DC012D30020114B12498B4218D3FEF7FCFD8B
S214013DD0186850F82240586840F822400132986826
S214013DE08242F5D30C33EAE70022F8E71C6844F870
S214013DF0220001325C68A242F8D30833E4E70022CD
S214013E00F8E700BFFC0D0400080E0400080E0400CD
S214013E10080E04004FF400414FF0FF30124B134AD6
S214013E2010B59A60D3F8882042F47002C3F888204F
S214013E300F4A916601F1884101F5005210664FF66E
S214013E40DF7050660220C3F8D000BFF34F8FBFF378
S214013E506F8F08244FF440330648C0F88041D36082
S214013E6004600B6110BD00BF00ED00E00020010002
S214013E700090005000E100E0014B1868704700BF59
S214013E80E40A0020084B1B6F03F00703022B04D043
S214013E90032B05D0012B05D0FEE7044B18687047AD
S214013EA0034BFBE70348704700800050E40A0020FC
S214013EB0E80A0020002D310108B5FFF7E3FF054BA6
S214013EC01B6FC3F303330133B0FBF3F0024B1860EF
S214013ED008BD00BF00800050E00A0020004870477F
S214013EE000B4C404014B1868704700BFE80A0020FC
S214013EF0054B1860054B1B6F03F00703032B01D11D
S214013F00FFF7DABF704700BFE80A002000800050C4
S214013F1000487047002D3101014B1868704700BFFB
S214013F20EC0A00200020836A10B5B3F5903F0ED24C
S214013F301968084A91420AD1074C227812F0FD0FFF
S214013F4004D1DB69984708B90123237010BD4FF4EB
S214013F508170FBE707B0CD5E792C00204FF000534F
S214013F60074A1A60BFF34F8F0649074BCA6802F427
S214013F70E0621343CB60BFF34F8F00BFFDE700BF86
S214013F8002020FF000ED00E00400FA0570B5D0B1B2
S214013F90C9B10E4E431E013913F8014F2046A25DEA
S214013FA002F00302012A11F8012F08BF04F12000D4
S214013FB0B55C05F00305012D08BF2032801A01D13A
S214013FC0002CE9D170BD0120FCE700BF6D000400A4
S214013FD005490A681318054883428CBF4FF0FF3223
S214013FE00B601046704700BFF00A002000800020DA
S214013FF037B50468012105463A2000F057FE002334
S21401400001226179207901F02BFB142230232179DA
S21401401013FB012303F1A04303F570331B68627998
S214014020D340DB4303F001032370A379022B0ED1A7
S21401403000F07CFA2A460749607900F0A1FA0123CC
S214014040024661792079CDE9003301F0B1FA00200A
S21401405003B030BD131303002DE9F04F9A46564BBB
S21401406085B01B7806460F461546DDF83C909DF850
S21401407044B0DDF85080002B00F08D80072A00F256
S2140140808C800E9B002B00F08880B9F1000F00F0A9
S2140140908480129BB3F5006F7FDC012802D1109B50
S2140140A0002B7AD0454B03EB05131B7B002B76D0F8
S2140140B0434C10220021684627F085FA04EB45148C
S2140140C01022002F59D13946204627F07CFA43F2B8
S2140140D010036380BBF1000F03D1E37843F00303C1
S2140140E0E370374A0E9B02EB451CCCE90193129B09
S2140140F06901013BC3F30A009DF84C30012E03F021
S21401410003034FEA836343EA001E53582D48CDF854
S21401411000A000EA03004EEA0003535041D11323E6
S2140141200CF1100ECCF80C309CE80F008EE80F0056
S2140141306FF00301DCF81C20109B61F39F02012F36
S214014140CCF81C20CCF8143003D1CCF81890CCF85D
S21401415004300027194A290102EB051342F80180B1
S214014160159A28465A60694622469F605E7301F09A
S21401417017FB384605B0BDE8F08F0021204627F032
S21401418022FA4FF444736380BBF1000FA9D1E378A0
S21401419043F03003A4E70C48ECE70C48EAE70C4888
S2140141A0E8E7B8F1000FD4D19CF8023068F30413A5
S2140141B08CF80230CDE700BF7A2C00209015002045
S2140141C0101600200F80FFF3028000F0018000F03F
S2140141D0078000F038B5124B05461B78DBB1E0B11D
S2140141E01DF031FA0F4A00231146147B54B92B6097
S2140141F001251A0101EB03131D738C501DF029FADA
S214014200204638BD0133082B02F11002EDD11DF016
S21401421020FA0548F5E70548F3E70548F1E700BF4A
S2140142207A2C002090150020048000F0028000F017
S214014230018000F013B51DF006FA00230B4A147B2B
S2140142407CB90133082B02F11002F8D1019001F07C
S21401425049FA074B01981C701DF0FBF9204602B085
S21401426010BD1DF0F6F90348F9E700BF90150020D0
S2140142707A2C0020058000F00D4B10B51B78044603
S21401428093B1072812D81DF0DEF90A4B03EB04138D
S2140142901A7B2AB100241C731DF0DBF9204610BDE1
S2140142A01DF0D7F90448FAE70448F8E70448F6E7AA
S2140142B07A2C002090150020068000F0028000F085
S2140142C0018000F0154B13B51868002301908DF896
S2140142D004301DF0B8F9124B1C7824B11DF0B9F961
S2140142E0104802B010BD01221A701DF0B2F90E4B33
S2140142F001A81C731C7783F82C4083F83C4083F894
S2140143004C4083F85C4083F86C4083F87C4008237B
S2140143108DF8073001F012FA2046E2E730C00300BC
S2140143207A2C0020038000F0901500200A4A08B578
S21401433012785AB107280BD8084A02EB00131B7BE8
S21401434043B1002101F0ECF9002008BD0448FCE768
S2140143500448FAE70448F8E77A2C00209015002074
S214014360028000F0018000F0078000F00A4A08B5DC
S21401437012785AB107280BD8084A02EB00131B7BA8
S21401438043B1012101F0CCF9002008BD0448FCE747
S2140143900448FAE70448F8E77A2C00209015002034
S2140143A0028000F0018000F0078000F00A4A08B59C
S2140143B0127852B107280AD8084A02EB00131B7B71
S2140143C03BB101F03BFA002008BD0548FCE7054873
S2140143D0FAE70548F8E700BF7A2C00209015002080
S2140143E0028000F0018000F0078000F00D4B1B7882
S2140143F093B1072812D889B10B4B03EB00131B7B33
S21401440073B10A4B1A6D012303FA00F010401ABF6C
S21401441000200B70087070470548704705487047C4
S214014420054870477A2C00209015002000000450A3
S214014430028000F0018000F0078000F00B4A10B502
S21401444012780C4662B107280CD859B1084A02EB1B
S21401445000131B7B43B101F003FA2070002010BD4E
S2140144600448FCE70448FAE70448F8E77A2C0020F9
S21401447090150020028000F0018000F0078000F017
S2140144802DE9F843174B1F6D5B6D1F4000D5FEE706
S21401449001260025144CDFF85480DFF8549037428B
S2140144A017D02368C8F850609BB1A168284601312F
S2140144B06268A1609847637B012B0AD148B909EB72
S2140144C045131A7B60F341021A731A7F60F34102A7
S2140144D01A770135082D4FEA460604F11004DED19D
S2140144E0BDE8F88300000450901500200020045019
S2140144F01016002070B5044601250B4E04B970BD98
S21401450094FAA4F0B0FA80F005FA00F306EB001274
S21401451024EA03045368002BF0D0117B11B1916893
S2140145209847EBE79847E9E71017002008B51920E8
S21401453000F092FE28B14FF00072074BC3F88021BD
S2140145401A601A2000F088FE28B14FF08062024BF4
S214014550C3F880211A6008BD00E100E038B50546C1
S2140145600C461DF070F80022044B03EB05135C604B
S2140145701A73BDE838401DF06CB800BF1017002054
S214014580F8B505460F4616461DF05DF8104B05F0CA
S214014590FC02D3F824140023EC1804F0030414439B
S2140145A021FA04FC1CF0010F07D00133042BF3D1D0
S2140145B0FF241DF04EF82046F8BDFF2CF9D001224D
S2140145C0044B03EB0413C3E901761A73F1E700BF4A
S2140145D000C0035010170020074BD3F82404D3F86B
S2140145E0202403F50053104000F0553020F05020F1
S2140145F0C3F82004FFF77EBF00C00350074BD3F873
S2140146002404D3F8202403F50053104000F0AA3008
S21401461020F0A020C3F82004FFF76CBF00C00350B1
S214014620024B1968024B186814F0FAB9F80A002010
S214014630F40A002037B5920004460D46019227F091
S214014640C3F8431C0BD060B929462046019A26F0D0
S21401465083FF0028044808BF002003B030BD03488C
S214014660FBE70348F9E700BF10E000F021E000F0A7
S21401467024E000F013B5044601A801F095F99DF871
S2140146800630012223804FF4807300206380054B9F
S2140146909B680A3303F01F0302FA03F3636002B058
S2140146A010BD00BF0080E00F10B5044627F07CF86F
S2140146B0431C15D0B0B90C4B20469B680A3303F057
S2140146C01F020123934023F003032344984201D1A0
S2140146D0002010BD50F8042B0132F7D00348F8E74C
S2140146E00348F6E70348F4E70080E00F0EE000F029
S2140146F021E000F024E000F008B51CF09DFF014B1E
S214014700186008BD501F0020014B18681CF098BFA8
S214014710501F002000210846F0B52F4C2F4A236871
S214014720156845B11D68002D4BD09D889688AE4210
S21401473084BF134601210130052802F10802EFD19A
S21401474001B1236000210D462548264A03681668F4
S21401475046B11E68002E37D09E889788B7423CBF68
S214014760134601210135052D02F10802EFD101B1F1
S214014770036023681A6852B31B499C888A6F1B4BD7
S21401478022F0FF7203EA044322F4803213438B675C
S2140147904FF050234FF000429A6603681A68C2B180
S2140147A011499B888A6FC3F3080322F4FF7222F033
S2140147B0010213438B674FF050234FF080429A66F5
S2140147C0F0BD13460121B6E713460121CAE7084B9F
S2140147D0E0E7074BF1E700BF04200020142000208B
S2140147E0082000203C200020004000500000FF016F
S2140147F000600050012208B50F4B00211A700F48C7
S214014800282226F0E0FE282200210D4826F0DBFEB5
S2140148100C4B0D4A13600D4A13604FF040420C4B8F
S2140148205A669A6640220B4BC3F880211A60FFF73E
S21401483071FF002008BD00BF7C2C00201420002042
S2140148403C2000200C20002004200020082000200E
S2140148500060005000E100E010B5002440220E4B3D
S2140148601C700E4BC3F88020BFF34F8FBFF36F8FC2
S214014870C3F880214FF04042094B21465A66094849
S2140148809A66282226F09FFE28222146064826F010
S2140148909AFE204610BD00BF7C2C002000E100E0FF
S2140148A000600050142000203C20002008B5084B72
S2140148B01A78824203D0187018B1FFF72BFF002038
S2140148C008BD4FF04042034B5A669A66F7E700BFB1
S2140148D07B2C00200060005008B500F057FEDFED8D
S2140148E0117AB4EEE70AF1EE10FA18D4DFED0E7A7B
S2140148F0B4EE670AF1EE10FA37FE800A10EE100ADF
S2140149001BF086F90022094B1BF024F80022084B05
S2140149101BF020F81BF06EFC803840B208BDB0EEEC
S214014920670AEBE7000000C30000FE420000E03F1C
S21401493000006040154A38B5936E526E134013F06E
S214014940804212D0124B1B681D6835B100241C60D2
S2140149505C60FFF7C1FF2146A8474FF080420D4B30
S2140149605A66BDE83840FFF7D5BE002BF9DA0A4B88
S2140149701B681C682CB11A605A60FFF7ADFF012155
S214014980A0474FF00042034BEAE700BF004000504B
S214014990082000200060005004200020044BD3F8BB
S2140149A08420D206FBD4D3F88400C0F3811070476C
S2140149B00040005038B5104B0546D3F820310C4660
S2140149C003F00303022B0BD0032B0DD0012B0FD1C9
S2140149D0FFF752FA052305B1286004B1236038BDFC
S2140149E0FFF780FA0323F6E7FFF792FA0223F2E7CE
S2140149F000231846EFE700BF0080005073B50D4650
S214014A0000210E4B0191D3F88041064604F00304C1
S214014A10012C09D0022C0CD00C460EB1019B336040
S214014A2005B12C6002B070BD01A8FFF7C3FF0F24CB
S214014A30F3E7FFF76DFA0190EFE700BF0080005043
S214014A4038B5174B0546D3F824310C4603F0070357
S214014A50013B052B20D8DFE803F0030F171B0B13D0
S214014A60FFF70AFA052305B1286004B1236038BDB3
S214014A70FFF702FA0623F6E7FFF734FA0323F2E715
S214014A80FFF730FA0423EEE7FFF742FA0223EAE7DC
S214014A901CF0F3FB0723E6E700231846E3E700BF15
S214014AA00080005038B5104B0546D3F840310C460F
S214014AB003F00303022B0BD0032B0DD0012B0FD1D8
S214014AC01CF0DDFB092305B1286004B1236038BD65
S214014AD0FFF722FA0823F6E71CF0D4FB0B23F2E7D4
S214014AE000231846EFE700BF0080005038B5134B8F
S214014AF00546D3F800320C4603F00703013B032BAF
S214014B0018D8DFE803F0020A0E121CF0B8FB0923DE
S214014B1005B1286004B1236038BDFFF7FDF908230D
S214014B20F6E71CF0AFFB0B23F2E7FFF7C5F90E2300
S214014B30800AEDE700231846EAE700BF0080005030
S214014B4038B5104B0546D3F840320C4603F0030344
S214014B50022B0BD0032B0DD0012B0FD11CF08FFB9A
S214014B60092305B1286004B1236038BDFFF7D4F9E5
S214014B700823F6E71CF086FB0B23F2E70023184612
S214014B80EFE700BF0080005038B5104B0546D3F85C
S214014B9060310C4603F00303022B0BD0032B0DD020
S214014BA0012B0FD11CF06BFB092305B1286004B162
S214014BB0236038BDFFF7B0F90823F6E71CF062FB67
S214014BC00B23F2E700231846EFE700BF00800050F2
S214014BD010B40D4C0B46D4F8204204F00304012C0B
S214014BE00AD0022C0CD008B1002101600BB10022C2
S214014BF01A605DF8044B70475DF8044BFFF7DABEA8
S214014C005DF8044BFFF74EBF00800050B0F5207FE3
S214014C101FD009D8B0F5007F15D003D868B1B0F51C
S214014C20C07F0AD000200CE0B0F5607FFAD10B4BB4
S214014C30D3F88000C0F3011003E0084B186FC0F3EF
S214014C40033001307047054BD3F89000C0F3046081
S214014C50F7E7024B186FC0F38020F2E700800050A0
S214014C604FF400320E4B014610B500209A66FFF74E
S214014C70CDFF41F6713248430A490B4B88428CBF3F
S214014C804FF480100020DC69DA639A6822F440123F
S214014C9002439A60E20344BF0022DA6310BD00BFFC
S214014CA000900050005A620200000350420910B5FD
S214014CB010D0012A10D00B4B0B4C022A18BF2346EA
S214014CC000F01F0051B103F58053012202FA00F0F3
S214014CD0186010BD1346F3E7044BF1E703F50053E4
S214014CE0F3E700BF68800050608200506480005087
S214014CF008B580201CF0C3FB034B98429EBF4FF4BF
S214014D008032024B1A6708BD005A620200A00050AA
S214014D101FB50023B0F5807F019377D028D83828B7
S214014D2000F094800BD82438092810D809280ED80A
S214014D30DFE800F0676767670D0D620D377D522863
S214014D405FD008D83D283BD03E2800F084800198EB
S214014D5005B05DF804FB8028F9D1414B1B6F03F0C9
S214014D600703013B032BF2D8DFE803F044413F6C15
S214014D70B0F5D06F5BD019D8B0F5A06F66D00AD861
S214014D80B0F5806F3DD0B0F5906FE0D1002001A95D
S214014D90FFF756FEDBE7B0F5B06F2DD0B0F5C06F6C
S214014DA0D5D1002001A9FFF77DFED0E7B0F5006F51
S214014DB0ECD00AD8B0F5E06F4DD0B0F5F06FC6D1A3
S214014DC0002001A9FFF7E0FEC1E7B0F5086FBED1EC
S214014DD0234BD3F8003103F00303022B2CD0032B13
S214014DE02ED0012B30D1FFF77DF8032300E00523F9
S214014DF00193ACE70223FBE7002001A9FFF7FEFDC4
S214014E00A5E7002001A9FFF7D5FDA0E702934FF023
S214014E10E0231B695B0705D5FFF74EF80C230393C8
S214014E20039BE5E703A902A8FFF73CFEF8E700208D
S214014E3001A9FFF75BFE8AE7FFF76EF80823D7E7BD
S214014E401CF01BFA0723D3E70123D1E7002001A9B1
S214014E50FFF7BEFE7BE7002001A9FFF771FE76E7AC
S214014E60008000504FF40022034B5A66012203F5DE
S214014E7080439A62704700BF0090005008B5FFF764
S214014E8047FF082811D00938012811D84FF400121D
S214014E90094B4FF6FF705A6603F5D8335B6A13F079
S214014EA0010F18BF4FF4FA7008BD044B1888FBE7D2
S214014EB04FF6FF70F8E700BF00900050260D002067
S214014EC070B504468020FFF723FF032800F0828098
S214014ED04FF40022444B02215A6645F60E03434A1C
S214014EE0C2F88030424B9962012103F580539962E2
S214014EF0936DD903FCD4D4E900131B0543EA01637F
S214014F00E17B94F822500B43217B94F8236043EA1B
S214014F100143617B43EA0133A17B43EA81131361B9
S214014F209169D4E904031B0643EA806301F000415A
S214014F300B43A17EE07E0B43217E43EA0143617E63
S214014F4043EA01239361E369126A002B0CBF002137
S214014F50082122F00D0242EA030242EA8002234BB4
S214014F6042EA01021A6294F820204FEA421232D134
S214014F70986A94F8211020F0330042EA01120243A5
S214014F8042F001029A621B4A996D32EA0101FBD195
S214014F90022217498A621A659A6D5200FCD4186972
S214014FA0A26820F4700040EA02504FF000421861F7
S214014FB00F4B9A611DB9022203F580539A6216B906
S214014FC001220D4B9A6294F824301BB1074B0B4A11
S214014FD0C3F8802070BD996A21F0330131430A433A
S214014FE042EA4502EEE700BF0090005000C00050C4
S214014FF000D000500300014000E00050F1A7FFFF81
S2140150000121114A114B10B5946A9962916D890775
S214015010FCD502220C499A621A658B6D5B00FCD4A2
S2140150200B4B8A6993F9003022F47F020344000295
S21401503080B222F47F42104383F3080340EA034020
S21401504088618C6210BD00BF00C0005000D00050C7
S2140150507D2C0020014B93F9000070477D2C002029
S214015060F0B5D0E901434FF480061A4A4178057835
S21401507056664FF4D156022702F5B8325662164EDE
S2140150804F2977604FF0010728BF4F2106F580565C
S21401509077601669F603FCD441EA052151611B01CC
S2140150A0417B43EA04230B43017B43EA41039360BC
S2140150B0C37B817B1B0143EA4113417C0B43017C8B
S2140150C043EA41035360837C13B16FF4D1535362B7
S2140150D0F0BD00BF0090005000100250014B188038
S2140150E0704700BF260D00204FF4001208B5184B7C
S2140150F05A660223174A5360936813F48033FBD130
S214015100012822D1FEF7EEFE134B984215D003F587
S214015110122303F5F863984213D0104B00EB80027C
S214015120400AB3FBF0F0520A0A4BDA620122186316
S2140151305A620022074B5A6008BD45F67A10084AA3
S214015140F2E745F61A00074AEEE75362F1E700BFB9
S214015150009000500040025000F049026466666606
S214015160D8B80500BBCF0500B0F5207F10B50C46BA
S21401517042D008D8B0F5007F33D003D888B1B0F557
S214015180C07F0ED010BDB0F5607FFBD11F4B013C38
S214015190D3F8801021F0300141EA0414C3F88040AE
S2140151A0F0E71CF064F91CF02DFA4FF48031184A30
S2140151B0164B1167196F013C21F4704141EA043422
S2140151C01C67FEF779FE0446FFF7E8FBC0F1020113
S2140151D020461CF011FA00F02DF8BDE81040FFF74C
S2140151E087BD0A4B013CD3F8901021F0F85141EAF3
S2140151F00464C3F89040C5E7044B013C196F21F4E1
S214015200806141EA84241C67BCE700BF008000502F
S2140152100090005008B50121022000F0DBF81CF0D8
S21401522026F91CF0EFF94FF48032014B1A6708BDDE
S2140152300090005008B54FF4C0701CF020F9BDE88E
S2140152400840044988428CBF022101214FF4207096
S214015250FFF78ABF80F0FA02054B420953F8223065
S21401526000F01F0023FA00F0C04300F00100704771
S21401527000E100E0194B10B51B6873B3184A526879
S214015280012A2AD0174A8020C2F80031FFF740FDD4
S21401529005281FD14FF4C070FFF7B8FC012804465B
S2140152A004D102214FF4C070FFF75EFF07220E4BB8
S2140152B01A610122A3F580535A60094A1369DB0774
S2140152C0FCD5012C09D12146BDE810404FF4C07031
S2140152D0FFF74ABF0122054B5A6010BD642000202B
S2140152E000C001500080005000E0015000D0015085
S2140152F000224FF40031074B1A60074A516602F547
S21401530098325268012A02BF044AD2F800211A6074
S214015310704700BF642000200090005000800050BD
S214015320044A4178536F23F4407343EA01235367D9
S214015330704700BF0040005010B5044608B1FFF7A3
S214015340D7FF0E4A136943F00403136103F0BEFE50
S2140153501CF082F91CF070F926F02EFA1CF070F998
S2140153601CF07BF903F0C6FE1CB1BDE81040FFF748
S21401537081BFBDE81040FEF79FBD00BF00ED00E015
S21401538010B5044608B1FFF7B3FF0C4A136943F0A2
S2140153900403136103F09AFE1CF04EF926F00CFA92
S2140153A01CF04EF903F0A6FE1CB1BDE81040FFF755
S2140153B061BFBDE81040FEF77FBD00BF00ED00E015
S2140153C0034A0179D36E23F030030B43D36670474B
S2140153D000400050F8B504461C4BD3F88420D10693
S2140153E0FBD4D3F88430C3F381139C422CD0FEF750
S2140153F049FD012C064602D121461CF0FDF81CF0A1
S2140154001BF94FF00072124B07465A6620461CF0F5
S21401541029F94FF480630D4D621E93402B676B6E26
S2140154209A0103D4D5F884309B060AD538461CF079
S21401543007F9022C08D13046BDE8F84000211CF0DF
S214015440DBB8D5F88430EAE7F8BD00BF004000506D
S2140154500060005007B518B90191FEF713FD0199D8
S214015460064B1B7843B1064B984205D8012003B082
S2140154705DF804EBFFF7AEBF0220F8E77E2C0020B4
S214015480005A62020278034B012100201A70FFF7CE
S214015490E1BF00BF7E2C00204FF0004210B5012472
S2140154A04AF6CD31154B5A66154A03F50B2354605F
S2140154B05A6C1964224088B9996811F0010F114994
S2140154C003D08C60D86AC007FCD501234B6012B1AB
S2140154D00D4B0E4A1A6425F04CFB10BDD96A09071C
S2140154E0FCD42021074B59620121A3F58053996012
S2140154F005494B6A9B06FCD5E9E700BF00900050C2
S2140155000050095000600950004009503254FFFF16
S2140155104FF0004238B5194B194C5A66012203F573
S2140155200C235A604AF6CD33656C236443781540E4
S21401553093401343134AD363A368827823F074031A
S21401554043EA0213C278002A14BF0422002213433E
S214015550A3600279837943EA022323614279C379FE
S21401556043EA022363610078FFF796FF0DB1064B0D
S214015570236425F0FEFA012038BD00BF00900050DC
S21401558000400950004000503254FFFF064B9FED8B
S214015590070AD3F88830C3F30A0307EE903AFAEE07
S2140155A0CF7A37EEC00A70470040005033938843E5
S2140155B0072AF7B501F0030614461F464FF003010C
S2140155C02CD89500A94000FA05F21C4801911CF060
S2140155D04AF801991A4806FA05F21CF044F8194BE4
S2140155E019499DF82000002F08BF1946012303FA28
S2140155F004F40C60154B1649002808BF0B461C60C6
S214015600144B9DF82400C3F820441031A3F6DC3374
S214015610002808BF0B461C6003B0F0BDA2F10805C8
S214015620AD00A94000FA05F20B4801911CF01BF8E9
S21401563001990A4806FA05F2CFE700BF00C40350F5
S21401564008C4035010E4035010D4035014D403507C
S21401565014E4035000E0035004C403500CC4035088
S214015660F8B504460D461F4616464AB101238B403F
S2140156703021194A01FB0022FFB141F210015350BB
S21401568004EB4403072D4FF00F014FEA031317D81D
S214015690A80006FA00F28140104818441BF0E3FF08
S2140156A056B9012130230C4801FA05F503FB040025
S2140156B077B141F21003C550F8BD42F21001DEE7A2
S2140156C0A5F10800800006FA00F281400448E4E7EC
S2140156D042F21003EFE700BF00C0035004C00350BE
S2140156E00CC003504FF400120B4B10B5C3F88020CA
S2140156F0BFF34F8FBFF36F8F0024FF22074B214666
S2140157005C6520209A625C60FFF7D0FA2146BDE80E
S21401571010402120FFF7CABA00E100E00000045063
S214015720044A054B002918BF1346012202FA00F06D
S21401573018607047402004504010045010B50121F5
S21401574004462020FFF7B2FA01212120FFF7AEFA26
S2140157500122114B5A60227812069A606178A2786B
S21401576042EA01429A61FF229A6200229A631A640F
S2140157704FF000425A654FF0FF324FF4001103F527
S21401578000531A65054AC2F88011E3781B01DBB2A3
S21401579082F81533116010BD0000045000E100E0EE
S2140157A02DE9F04101250C46C3B2DFF888E0D1F8B7
S2140157B000809D408F7ACB7A94F80DC0097BCEF895
S2140157C050500EF5005E4EF820804FF0300E184E09
S2140157D01B050EFB006043EA074343EA415322F0F0
S2140157E00302C0F860C0C36502671BF02CFF736D2F
S2140157F02B437365237A13B1336C2B433364637A7B
S21401580013B1B36B2B43B3632279A37943EA024303
S214015810084A93616179E37943EA014306498B615A
S214015820034B55639D64BDE8F0411BF012BF00BFFA
S21401583000000450002004500010045010B501244C
S214015840C0B284401BF0FFFE044B5A6D22EA0402EC
S2140158505A659C62BDE810401BF0FBBE0000045078
S21401586010B50124C0B284401BF0EDFE074BDA6A86
S214015870224209D15B6B34EA03030CBF01240024E6
S2140158801BF0E7FE204610BD0024F9E70000045097
S2140158904FF40032054B9A6641F6713203F51C331C
S2140158A0DA63012203F50053DA6070470090005076
S2140158B041F671320121064BDA6303F50052D160DD
S2140158C00022DA634FF40032A3F518339A66704764
S2140158D000000350CB784A7810B55B010C7843EA98
S2140158E082030A79234343EA02130C22424302F15C
S2140158F0B0421363012C02BF8A78024B43F8202082
S21401590010BD00BFE880035008B54FF0B0435A6899
S21401591002B960B15B680BB11BF0B6FE4FF0B04147
S21401592030B10120074B58601BF0AEFEC86008BDC1
S2140159301BF0AAFE0223CB601BF0A6FE0122024B3F
S2140159405A60F4E700100058002000584FF0B043AA
S2140159505B6870B50BB11BF097FE0121104B4578C3
S214015960596083780679002BC37814BF022400247B
S214015970002B14BF042200224379DB0043EA0613FE
S2140159802B43234313434FF0B0429360054B5960BA
S2140159900378002B14BF0B460223D36070BD00BFF3
S2140159A000200058001000584FF48032064B5A660B
S2140159B003F5E6235B69C3F38512827003F03F02A9
S2140159C01B0B4270037070470090005070B505467F
S2140159D016461C4621B94FF420701BF050FD0146B7
S2140159E0402C1BD003D8DCB1202C1BD070BD602C02
S2140159F0FCD1042303FB06F2560806EB4113B3FB66
S214015A00F2F3094A203B02EAC303AA6822F06002C5
S214015A10AA60AA681443AC60EB61E7E70623E9E7EE
S214015A201023E7E70823E5E7F8FF7F00012200F5EA
S214015A30805310B55A6040F6AA6341F205024361ED
S214015A4000230E498360C365C26000F500520361FE
S214015A50C361C36491640A498365884202D0094CD4
S214015A60A04207D18842036502D0064B984201D175
S214015A70002343650123536010BD00BFFFFF0100F3
S214015A8000C005500000065070B50D46FFF7CEFF6A
S214015A90012300F580567360AB7C04461BB1836816
S214015AA043F080438360EB7C5BB1354A2B7D9442A7
S214015AB045D1A2F51032C2F88C31E36D43F0800374
S214015AC0E3652A8A6B7B20461343EA891343E36026
S214015AD02B7BD5E90112FFF779FF6B7D1BB1A3681C
S214015AE043F48033A360AB7D1BB1A36843F400434A
S214015AF0A360EB7D2A7E1B07120502F4E00203F089
S214015B00E0431343A365697E1D4A8B1E012B1D4B83
S214015B101FD894421BD002F5804294420CBF01224A
S214015B204FF0FF3203EB4213022041F21C620329BD
S214015B30985020D10423F3652B78636170BD124A17
S214015B40944204BFA2F52032C2F89C31B5E7002288
S214015B50E8E794420DD00C4A94420CBF01224FF064
S214015B60FF3203EB4213022042F21C6201299850D5
S214015B70DFE70022F5E7042204F50053DA65DBE7E8
S214015B8000C0055000C003500000065038B504465A
S214015B90054D25F015F80FCC0FC594E8030085E8F0
S214015BA00300002038BD00BF6820002047F6FF73C1
S214015BB09A42F0B567D0022967D8354DCF0015F85F
S214015BC0313005EBC100012B847813D10025C37851
S214015BD01B1B9D4202D3E018C0B2F0BD591B46689C
S214015BE0A3EB510136F911609642D4BF0D4601F17F
S214015BF0FF33EEE740680028EFD0B0F9003093425B
S214015C0004DBB0F902309342B8BF134682883D44A4
S214015C10FF2A19BFC8214FF0280CB0F90610B0F9B9
S214015C2008C0A1EB03020CBF0126002692FBFCF282
S214015C306D78324412B2954201DD002A01DA6A1EFD
S214015C4012B24FF47A7700EBC206F188B6680132D9
S214015C5013FB016112B221EAE17101F5FA71954275
S214015C60B1FBF7F104DD00EBC206B6888E42EAD23C
S214015C7000EBC20232F8040C884228BF0846A04254
S214015C8038BF2046A8E7FF20A7E70020A5E700BF0A
S214015C90682000200229F0B553D82B4800EBC10438
S214015CA010F83110636801290FD1E078A47890428A
S214015CB094BFC4EB0001C4EB0201001BCAB28242CE
S214015CC0C8BF002233F91200F0BD002B39D0A178ED
S214015CD0914202D3B3F90200F6E7E178B3F9000086
S214015CE09142F1D999886478A1F1FF06013C71428D
S214015CF003F10405E4B2714103F10C071FFA82FCBB
S214015D00CEB2B44216D805EBC1014FF47A756A4398
S214015D10B1F902404968521A04EBD47102EB6102F0
S214015D2092FBF4F29042CFDBB3F902009042CBDC57
S214015D3010B2C9E737F831E04E1CE645E3D33146E9
S214015D40DEE70248C0E700BF682000200080FFFFB2
S214015D5008B50448FFF71AFFBDE80840012024F003
S214015D6033BF00BF48CA030000487047280D002013
S214015D707FB50222084B0949CDE901234FF0007394
S214015D80CDE90313052301A94FF0FF30059324F055
S214015D9051FF07B05DF804FB006A1800000204001A
S214015DA01B0603F0706300F00F000902034301F4C1
S214015DB07061120402F470220B431343014A13600C
S214015DC0704700BF0020025C60B5054619B1013975
S214015DD0B1F5806F10D2094EF06810F48030FBD117
S214015DE043EA0121120741EA050302F080521343F8
S214015DF043F00043736060BD0120FCE70020025CB5
S214015E000122054B9A60DA68D203FCD4D86820F0E8
S214015E100F000004000C70470020025C014B18685C
S214015E20704700BF0040025C014B5868704700BFD6
S214015E300010025C014B186B704700BF0010025C3B
S214015E40014B1868704700BF0010025C014B986058
S214015E50704700BF0010025C014B1864704700BF1A
S214015E600010025C014B5864704700BF0010025CD2
S214015E70014B5863704700BF0010025C0022014BC3
S214015E801A6070470010025C024A136843F001036F
S214015E90136070470010025C43F20402014B1A6063
S214015EA0704700BF0010025C024A136843F03003DB
S214015EB0136070470010025C044B1A6842F480724B
S214015EC01A601A6822F480721A6070470010025C29
S214015ED0024A136843F48063136070470010025C43
S214015EE0034A136823F4702343EA004010607047A6
S214015EF00010025C044B1A6902605A6942609A6992
S214015F008260DB69C36070470010025C0268044B64
S214015F101A6142685A6182689A61C268DA6170479A
S214015F200010025C024B1A6BD207FCD41862704751
S214015F300010025C024B186B00F00E00704700BFA9
S214015F400010025C82B01FB507930A9B04AC8B421B
S214015F5028BF0B4604E907001048D100079948BF3F
S214015F6003330160099948BF23F0030323F070430C
S214015F7001F0E041194341F000518160002102F037
S214015F80E042019C134343F00053C1600461836106
S214015F90416304B0BDE8104002B070470000025CE7
S214015FA03F22034B1A631022DA6103229A63704779
S214015FB00000025C024AD36B9B07FCD4704700BF0B
S214015FC00000025C034B986A10F0240018BF0420FE
S214015FD0704700BF0000025C08B5FFF7F3FF064BF1
S214015FE0DB6B23F47F4323F0EF0303431EBF012241
S214015FF0024BC3F8FC2F08BD0000025C00F0FF3F17
S214016000032208B5054B186019615A63FFF7C8FFEC
S214016010FFF7D0FFBDE80840FFF7DEBF0000025CD7
S21401602042680346182A10B50AD0202A1DD0102A25
S2140160302BD1174AD2F80424D4010AD4012013E044
S214016040134AD2F804249001F8D50A6842F00802EF
S2140160500A6010481A6882424FF000000ED10A68A2
S21401606042F040020A60586010BD094AD2F8042482
S2140160705201E3D50A6842F00402E9E7064CA2425F
S214016080F2D10A6842F08002ECE70720ECE700BF95
S2140160900000025C7F2C0020802C00200B4607B5F8
S2140160A00749D1F80414C90708D500210092024611
S2140160B0084600F05BF803B05DF804FB0120FAE740
S2140160C00000025C1346064AD2F80424D20504D521
S2140160D00A46014600201BF0F2BC0120704700BFB3
S2140160E00000025C13B5084CD4F80444E40508D556
S2140160F0009313460A460146002000F061F802B0FC
S21401610010BD0120FBE700BF0000025C13B5084C80
S214016110D4F80444E40508D5009313460A4601461C
S214016120002000F071F802B010BD0120FBE700BFAF
S2140161300000025C70B504460D4616468CB00A4A4D
S21401614009AB07CA83E807001A462146CDE905636D
S214016150CDE90333CDE9013300954FF480301BF0D0
S214016160D2FB0CB070BD00BF58C00300F0B51C4692
S2140161705B6815468DB01A07129E1AD1CBB17268AC
S214016180934216D10C4B0D4A53F8217009AB07CA3E
S21401619083E807001A462946CDE90533CDE90333DE
S2140161A0CDE90163009447F480701BF0ACFB0DB0A1
S2140161B0F0BD0720FBE700BF64C0030058C0030022
S2140161C0F0B516465A688DB0102A0D46129F15D1A5
S2140161D07A68102A12D10A4A09AC07CA84E807006D
S2140161E022462946CDE90547CDE90344CDE90144D8
S2140161F0044800961BF087FB0DB0F0BD0720FBE7B7
S21401620058C0030030000100F0B516465A688DB03C
S214016210102A0D46129F15D17A68102A12D10A4A01
S21401622009AC07CA84E8070022462946CDE9057469
S214016230CDE90344CDE90144044800961BF063FB15
S2140162400DB0F0BD0720FBE758C0030010000100A9
S21401625082B070B586B0149D03AE202D86E8070087
S2140162600B9359D805EB85038B4203D006236B436A
S2140162708B4253D10C9BAB4250D10F9BB3EB450FD6
S2140162804CD1129A934249D1012229462220159BCC
S214016290FFF79AFD044630BB034606220E210C206A
S2140162A0FFF77EFD0123CDE900332B4696E8070074
S2140162B01BF0C6FA0E230BAA009307CA2B461BF047
S2140162C00AFA0C23164C00930EAA2B4607CA1BF09B
S2140162D032FA636823F07F0343F026036360FFF717
S2140162E08FFD30B10624204606B0BDE8704002B0EE
S2140162F07047636823F07F0343F022036360FFF770
S2140163007FFD04460028EDD1062311AA009307CA93
S2140163102B461BF043FAE6E70124E4E70724E2E70D
S2140163200020025C70B598B0002843D02C4C08AD14
S2140163300FCC0FC50FCC0FC50FCC0FC594E80F00BF
S21401634085E80F006D4604AE04F1100320340FCB30
S21401635085E80F0094E80F0086E80F00FFF7ACFD14
S2140163600420FFF7BDFDFFF797FD3046FFF7CEFD92
S214016370002408AE56F8040B0134FFF7D3FD102CA9
S214016380F8D1FFF751FD0328FBD90024FFF776FD6E
S2140163902646FFF743FD55F8043B01365840042EC8
S2140163A044EA0004F5D12CB1012206200D4B1A70E7
S2140163B018B070BDFFF780FD0820FFF747FD0020ED
S2140163C0FFF74AFD0720FFF74DFD4FF40070FFF77A
S2140163D04FFD0820FFF784FDFFF756FD0020E7E795
S2140163E040C10300822C002008B5FFF765FD01229D
S2140163F0014B1A7008BD00BF812C002030B589B052
S21401640005AC84E80700FFF715FDC30501D5FFF7C6
S214016410EBFF0A4D2B781BB11BF0CCFC00232B7035
S214016420074B069AD3E901018DE8030002921B6827
S21401643094E807001BF0C7FB09B030BD812C002093
S214016440A0C103001FB51BF0B5FC044630B1012204
S21401645006240D4B1A70204604B010BDFFF7DEFC73
S2140164600090FFF7DBFC0190FFF7D8FC0290FFF7E6
S214016470D5FC03906846FFF749FDFFF7B5FFFFF728
S21401648013FDFFF725FDE6E7822C002005289ABFBD
S214016490014B185C00207047ACC1030030B5154BAA
S2140164A087B00293144B0390049346F611030D46EE
S2140164B0059300F06DF91428044616D168461BF0C2
S2140164C031FD4FF0A843032202A95A6319601D61EA
S2140164D09A63DA6B9207FCD1142C02D168461BF042
S2140164E02FFD00F089F9044601E00028E9D0204696
S2140164F007B030BD80200020040000202DE9F04FB9
S214016500B1B005468C46E9466E4F3B9EDDF8F8E095
S214016510409C07F1100AC846386879680837A8E829
S21401652003005745C146F6D10EEB0208C8F1000933
S21401653009F00F09002E00F0AF80774207F00F0731
S2140165400121DDF8FCB0C4F1100ACDF810B00591B8
S21401655044F0005106914FEA0A2101F4F85141F046
S2140165602101079106B96B460893002D40F09680ED
S214016570002C00F0938004AB0993002E00F090806D
S21401658046F000530A93002D40F08D80002C14BF76
S2140165900123212343EA07230B9308A942F0005362
S2140165A0CDF830C03D980D910E934FEA092343F084
S2140165B041030F93109002B10CA9002A16BF0022C6
S2140165C04FF00052412342EA0E02119112921393A8
S2140165D03C9B3D4A149310AB15933C4B00211693FC
S2140165E040F6110317933A4B002D08BF1346189334
S2140165F014AB1993374B10221A9311231B931CAB20
S214016600184624F0E0FF01221D924AF080421E92B5
S21401661000220346239205B9EB46102C08BF01233E
S2140166200DF1900A102200215046CDF880B021933A
S214016630229424F0C8FF002C37D020AB00212593EC
S2140166408F4218BF534647F0804226923A9A2CA8AA
S2140166508A422892299313460CBF4FF080430B467B
S214016660102233432B912A9324F0ADFFFEB95346F3
S214016670C8442D932CA948F0804318A82E93FFF701
S2140166800DFF30B92DB90346A34212D1002818BF19
S2140166902C2031B0BDE8F08F102751E701236BE7BE
S2140166A047F000536EE7212374E70123C6E728ABC2
S2140166B0DEE703F1C0026A4412F8C02C013310432E
S2140166C0E2E700BFB2C10300C4C10300100000200E
S2140166D0C8C1030004000020F0B5C0299FB0249E65
S2140166E04FD0B1F5807F04D0802941D029201FB03A
S2140166F0F0BD40F2344440F21445002E08BF2C464B
S21401670021271025019401240296039404950597E8
S214016710259F069706B102AC0794012408950994B3
S2140167200A9221220B940C950D92174A0AAC0E92EE
S214016730164A0F94109242F6110211921293139474
S2140167401495159201AA1692CBB112AB1793042396
S21401675018931123199316AB1A901B9340F6110345
S214016760C9081C911AA806A91D93FFF797FEBEE754
S214016770002E14BF4FF486644FF48264C0E70EAB5C
S214016780E4E70F20B3E700BFCCC103001000001000
S21401679038B5164B5A6E42F004025A66D3F8802278
S2140167A042F00102C3F88022114B5B68C3F3080371
S2140167B043B14FF0A842D36B13F0430FFBD114241F
S2140167C0204638BD4FF0A843DC6B14F04304FBD1E0
S2140167D0084D2B681BB90421284603F059FB2B688A
S2140167E0013343F000432B60EAE700BF008000500E
S2140167F000ED00E080200020014B00205B68704720
S21401680000ED00E04FF40052034B00209A6603228D
S214016810C3F86022704700BF0090005008B5FFF72C
S2140168200FFBC30708D5FFF785FB062804D00A2807
S214016830F5D1FFF7D9FDF2E74FF40052034B0020E4
S2140168409A660322C3F8602208BD00BF00A000506C
S2140168501FB54FF40052164B9A660322C3F8602206
S214016860FFF7EEFAC30710D401201BF0B0FA002898
S21401687014BF6FF092040024FFF7D0FF00280CBF6E
S21401688020466FF0920004B010BD10220021684629
S21401689024F099FE6846FFF72DFBDDE9003213432D
S2140168A0029A1343039A1343DED00024E4E700BFA1
S2140168B000900050012300F01F02A0F506200949B0
S2140168C0A0F550604009934051F820201A4341F842
S2140168D02020054951F8202022EA030341F8203000
S2140168E0704700BF84200020982000200121A0F5D9
S2140168F006230F4AA3F550635B0900F01F0001FA57
S21401690000F052F8231008430A4942F82300D1E95F
S2140169100030034488680344C868096903445B1867
S21401692002BFC2E90033C2E902331361704700BFF8
S21401693098200020842000202DE9F04FA9B0029273
S2140169401F46DDE9328904460822CDE903014140AC
S21401695021FA02F34B40980702F1080218BF9B0088
S214016960202A1C44F4D18123B4FBF3F303EBC313B5
S214016970E41A784B04F506241B7804F55064002BC2
S2140169803CD1FDF74DFE014620B16FF0910029B0D4
S214016990BDE8F08F4022059008A824F014FE40229E
S2140169A0059918A824F00FFE6B4EDFF8C4A13346F4
S2140169B003F10F0B102208A9DAF80000CDF800B099
S2140169C0059323F09CFE00220146059B103608AD78
S2140169D0914244D1CDF800B01022DAF8000018A98F
S2140169E023F096FE4FF0000B034618AD5B4542D1EF
S2140169F05A4B9E42DBD10122564B1A708125002646
S214016A00DFF86CA1A4F50623554AA3F550635B098C
S214016A1052F8232004F01F01CA40D2073ED4514A3F
S214016A2052F82300C84010F001002DD0002E08BFF8
S214016A3026468123A4F50724A4F2FF44B4FBF3F30E
S214016A4003EBC313E41A04F50624013D04F5506470
S214016A50D8D1029BD3B1CEB1349B1E6063E055F80A
S214016A60040BCDE906230591FFF724FF069A079B41
S214016A7005990132ACE755F8040B05930BF1010BB0
S214016A80FFF734FF059BB1E7029B13B96FF08B004C
S214016A907DE7349B002E45D01E6078E7B8F1000FE5
S214016AA002D00023C8F80030B9F1000F02D000234D
S214016AB0C9F800304FF0100B00233A462146DAF8A9
S214016AC00000CDF800B012F019F970BBB8F1000F54
S214016AD001D0C8F800B03B68234A93422FD1B8F1E1
S214016AE0000F11D0B9F1000F0ED04B462146DAF84F
S214016AF0000018AA12F056F9B8B9D9F80030D8F83B
S214016B0000209B1AC9F80030D7E90223DDE90310FB
S214016B10834208BF8A428CD1029B13B17B68012B4A
S214016B2015D0349B1C60002031E7104B984206D0EC
S214016B301233984203D0133B9842E5D025E721460D
S214016B40DAF8000012F074F90028DDD09EE76FF045
S214016B5084001CE7832C0020006D080000710800EB
S214016B608420002098200020105D175EFFDF00F0D3
S214016B70F40A00202DE9F04F87B0824689469846F0
S214016B801646DDF840B02AB1002B4ED040F26C73A9
S214016B909A424DD8BBF1010F4DD8002406F11007DB
S214016BA03946012005941CF09DF80546002845D07D
S214016BB021463A4624F007FD05ABCDE90143009492
S214016BC02B46012250464946FFF7B6FE044680B1E1
S214016BD010F18C0F08BF6FF08D043A46002128464D
S214016BE024F0F1FC28461CF08EF8204607B0BDE8DC
S214016BF0F08F144BC5E902A92B60C5F804B02EB17D
S214016C003246414605F1100024F0B6FC0E483B46DC
S214016C102A460599006811F0D9FF18B90598FFF7BB
S214016C2049FEDAE76FF09104D7E76FF08604DCE7F8
S214016C306FF09104D9E76FF08504D6E76FF08C0406
S214016C40D3E700BF105D175EF40A00202DE9F0437C
S214016C508DB08146DDE914780C4615461E469BB17B
S214016C60B8F1000F05D16FF0860420460DB0BDE8DF
S214016C70F083002FF7D0B7F1005FF4D3C3F10053D0
S214016C8003F500439F42EED81022002108A824F005
S214016C909AFC002207AB029305AB019306AB214693
S214016CA00093484608ABCDE90522FFF745FE0446AA
S214016CB00028DAD10599DEB1A94203D80029D2D13C
S214016CC015B1D0E70029FBD0491BB14228BF314698
S214016CD0069B0948C8F8001000913A4607990068D3
S214016CE02B4412F00BF8002818BF6FF09104BCE794
S214016CF0A942E9D2B7E700BFF40A002030B58DB04B
S214016D000C4605461022002108A824F05CFC00224F
S214016D1007AB029305AB019306AB214600932846C9
S214016D2008ABCDE90522FFF707FE0446D0B9099B5B
S214016D30012B1AD0104B0799186812F079F8B8B9D8
S214016D40012207980D49A0F50623A3F550635B09B8
S214016D5000F01F05AA4051F823506A4041F823204D
S214016D60FFF7C4FD20460DB030BD6FF08404F9E78F
S214016D706FF09104F6E700BFF40A0020842000209B
S214016D802DE9F0438BB01746DDE91545DDE91326FD
S214016D909C46DDE91738894621B96FF086000BB0AD
S214016DA0BDE8F083002FF8D00EB9002CF5D112996A
S214016DB009B9002AF1D10DB9002BEED1B8F1000FB7
S214016DC0EBD0254A944544D10288B2F5105F40D1F4
S214016DD04288B7EBD20FE0D322F04001802902D0DF
S214016DE0B2F5807FD9D11CB92046C8F80040D6E755
S214016DF0AE421CD23219954219D29C42CDD83146A8
S214016E002246284624F0C5FB2E4614F00F03C4D1B3
S214016E10CDE90197CDE90336CDE90543CDE9075420
S214016E200993FFF7EFFC38B16FF09200B7E79C4289
S214016E30EBD96FF08900B2E707AA04A901A8FFF70A
S214016E402DF90546FFF7EAFC2843EDD1C8F80040C6
S214016E50A5E76FF08500A2E7004440042DE9F04F56
S214016E60A9B0834617469A460C46DDF8C890369E6A
S214016E7029B96FF08603184629B0BDE8F08F002ABD
S214016E80F7D0B9F1000FF4D0349B002BF1D0002ECF
S214016E90EFD000253F4B0DF1300893E8070088E856
S214016EA007003C22294619A8189524F08CFB228855
S214016EB0618802F4E040B0F5804FDAD0364C3748AE
S214016EC00BEA040444F0106484425CD1B1F5807F7F
S214016ED059D147F212118A4255D106203049BAF1EA
S214016EE01F0F0A69CB6800FB02F209680B93CDE914
S214016EF00C120E95BDD9339B402BBAD9359B1F2B4F
S214016F0044D909F1010220241292402299F8003056
S214016F100F97042B18AFCDE91325CDE91572109400
S214016F2011951795A5D1FFF76DFC03460028A2D150
S214016F300B9B15AACDE9084305AB07CA83E80700F2
S214016F4002AB12AA07CA83E80700DDE910018DE843
S214016F5003000F9B98E80700FFF77AF90446FFF74E
S214016F605DFC54EA000384D1349A3C4620AF2546A2
S214016F7003CDBD42106051602C4602F10802F6D1E5
S214016F802022326077E76FF0850374E76FF089039C
S214016F9071E700BF58C003000000FFF600000209B9
S214016FA02CC10300F0B50F461D468DB000285AD0FF
S214016FB0002958D0002A56D0002B54D00388B0F8A8
S214016FC002C0194603F44F44B4F5824F18BF00239C
S214016FD021F0FF01B1F5E24FDBB203D06FF085007F
S214016FE00DB0F0BD122B01D0172BF7D10CF1070114
S214016FF0B2EBD10F4FEAD10638D31F4A06ACBCF527
S214017000807F07CA84E80700E8D1122B07D11B4B03
S2140170101A691B681344CDE906320023089300233E
S214017020CDE909760B93FFF713FC0028D8D1FFF7BB
S214017030E9FB0028D4D1124B1149059302AB049009
S21401704083E803000CAB13E903008DE80300099BFA
S21401705094E807001AF03DFD0446FFF7DFFB2043E6
S21401706007D12E60BCE76FF08600B9E76FF08900A4
S214017070B6E76FF09200B3E758C003002CC10300D7
S214017080EF1D03002DE9F0438FB01D46DDE916C65E
S214017090002863D0002961D0002A5FD0002B5DD084
S2140170A0BCF1000F5AD0002E58D00388B0F802E089
S2140170B01C4603F44F47B7F5824F18BF002324F050
S2140170C0FF00B0F5824FDBB24ED0B7F5824F4BD101
S2140170D0122B01D0172B47D10EF10700B2EBD00FC0
S2140170E04FEAD0083AD34FEA4802571C674538D8CA
S2140170F0BEF5807F38D1122B18BF4FF000094FF034
S214017100000308BF1B4CCDE9081805F1010114BFA7
S2140171104C46D4F80C90CDE90B120A930D93FFF769
S21401712071FBC0B9CDE9058902AB08AA07CA83E895
S21401713007000EAB13E903008DE803000B9B94E8F0
S21401714007001AF0E5FC0446FFF768FB20430ED162
S21401715004232B7037600FB0BDE8F0836FF0860014
S214017160F9E76FF08900F6E76FF08500F3E76FF057
S2140171709200F0E72CC103002DE9F04389B00D46DB
S21401718014461F46DDF8488020B96FF0860009B026
S214017190BDE8F0830029F8D0002AF6D0B8F1000F38
S2140171A0F3D0028802F44F43B3F5824F0CBF134667
S2140171B00023DBB202D06FF08500E8E7122B01D086
S2140171C0172BF8D122F0FF02B2F5E24F40D14288E8
S2140171D0C8F80020002A36D1E200C8F80020D8F806
S2140171E00020B2F5807FE6D1122B09BF384B002272
S2140171F01A681B6905EB040608BFD2180023184657
S214017200224412F801CD16F8011D0843B1EB0C011A
S2140172100CBF4FF0FF3C4FF0000CB5420CEA0303E5
S21401722043EA0103EDD10028AFD0002BADDA109B65
S2140172309C4249D822462946384624F09DF9119B9E
S21401724000201C60A3E70732B4EBD20FC7D09CE73F
S2140172502A78042A99D1621ED2005208B2F5807F9C
S214017260C8F80020A7D1122B05F1010318BF4FF073
S21401727000094FF0400205934FF000030ABF144E79
S2140172804E46D6F80C90CDE90623FFF7BBFA002848
S2140172907FF47DAFCDF80C90D8F800300733DB08CB
S2140172A0029308AB13E903008DE80300059B96E8FB
S2140172B007001AF0D6FC0646FFF7B0FA00287FF45E
S2140172C066AF002EB3D060E76FF089005FE700BFBE
S2140172D02CC103002DE9F04F8FB00546DDE918A952
S2140172E093461E46DDF868801C9F09B300B3B8F1CB
S2140172F0000F1DD0E7B1BAF1000F02D1B9F1000FAE
S21401730016D1284B26F47E129A4247D128461AF007
S21401731048FE0446B0BB6B88BBEBD30F4FEAD302E3
S21401732006D316F47C1FC6F3054504D0102D03D9E9
S2140173306FF0860426E010251B9B9D422BD8002368
S214017340CDE901121022CDE905930DF12809CDE909
S214017350033ACDE90823CDF81C90FFF753FA04460B
S21401736080B907AA04A901A8FEF7ACFE0646FFF7F6
S21401737055FA044656B958B92A464946404624F0B5
S214017380FBF83D6020460FB0BDE8F08F6FF0920429
S21401739000233B60F6E76FF08904F3E76FF085049E
S2140173A0F0E700BF0002C0032DE9F041069F0C463E
S2140173B01646054610B309B302B9FBB96288B3EBAA
S2140173C0D20F4FEAD20819D34C220021284624F0C6
S2140173D0FAF80D4B27F47E129A4212D120461AF083
S2140173E0E0FD044638B942463146281D24F0C4F86B
S2140173F0C5F824802F602046BDE8F0816FF0860432
S214017400F9E76FF08504F6E70002C0032DE9F041C5
S2140174100E4614460546002840D000293ED012B933
S2140174200020BDE8F08103681F4823F47E138342E1
S21401743037D1AF6BE7B1C7F1100807F12800424515
S214017440284404D224F098F83C44AC63E8E742466A
S21401745024F092F81022103C3C19AA63E0D028468A
S21401746005F128011AF0B9FD0028DAD14644A863CF
S214017470102C0CD9671E27F00F073A4631462846CE
S2140174801AF0ABFD0028CCD1E41BC9D03E442246FD
S214017490314605F1280024F06FF8D6E76FF0860034
S2140174A0BFE76FF08800BCE70002C0032DE9F04398
S2140174B088461F4605468BB070B169B163B1036853
S2140174C0234923F47E1088423ED113F47C1FC3F374
S2140174D0054604D0102E03D96FF086042AE0102644
S2140174E096422BD8FFF78EF9044618BBAB6B05F115
S2140174F02802CDE901236B6A2A1DCDE90423102356
S214017500CDE9083007AB1A460390069005F13C0911
S21401751001A904A8CDF81C90FEF7F8FD0546FFF773
S2140175207DF904466DB928B932464946404624F0ED
S21401753023F83E6020460BB0BDE8F0836FF0890467
S214017540F8E76FF09204F5E76FF08504F2E700BF05
S2140175500002C00310B54FF42F720021044624F038
S21401756032F88023C4F88C30054B04F19C00C4F833
S2140175708430012384F88830BDE8104019F085BEB8
S214017580D0C1030010B5D0F8A0400A4674B91AF06D
S21401759057FF044640B12D2896BF074B074953F8BD
S2140175A0201007481BF090F8204610BDD0F8A41014
S2140175B01046A0470024F7E77CC20300D3C10300AE
S2140175C0E1C1030090F8803070B504460BB100208D
S2140175D070BD1AF06FFD0028F9D1012384F88030C0
S2140175E094F8883033B184F88800D4F884101648AB
S2140175F01BF06AF84FF0FF36D4F8B4526A1C1CD060
S214017600C4F8B46220461AF052FD2046E9B200F0F2
S214017610A5FB0028F0D020461AF04EFD94F888000D
S21401762038B1D4F8841008481BF04EF8002084F8CE
S2140176308800002384F88030CAE71BF02AF8431C30
S2140176400546DFD10120F4E7B7C30300F8B50B7890
S2140176500546302B0E46174604D14B7803F0DF0360
S214017660582B12D02A49721E12F8014F002C38D11D
S2140176700A222146304619F0BBFA202D03460A4657
S21401768034D1631A5842584117E04A1C204912F86F
S214017690013F9BB9304623F0BEFF1E4B02382B40FC
S2140176A0032B15D16B1C48BF2B1D9B1083420BD19E
S2140176B0B07837288CBF00200120F8BD5B5C13F042
S2140176C04403E4D11846F8E7CCBF01200020F4E7D4
S2140176D0002DB8BF0335B0EBA50FD4BF01200020A5
S2140176E0EBE7635C13F00403BED1EBE727B1084375
S2140176F002D0013B61F10002012000FA05F5013DCF
S2140177001D40002A08BF9D4218BF0020D5E700BFD4
S2140177106D0004000300008070B503787B2B16D142
S2140177200546022100220B4E15F8014F7D2C05D18E
S214017730435C63B9D04300F0010070BDA35D13F054
S214017740440302D001320131EEE7202CFBD00020A9
S214017750F3E700BF6D00040070B506460D4623F042
S2140177605AFF044630461AF0AFFF044EAC4200D32F
S21401777070BD30461AF0A8FF0134F7E7DEBF0300FC
S2140177802DE9F84F044602215048FFF7E5FF1E2178
S2140177902068FFF7E1FF636858681AF095FF4C48C8
S2140177A01AF092FF67683B7BFD2B12D8D7F808804A
S2140177B04FF0FF36404623F02EFF0546DFF80C91CA
S2140177C0DFF86CA1DFF844B10C3717F8013BFF2B4B
S2140177D001D1BDE8F88F212B17D8212B33D8DFE84C
S2140177E003F06D736F11181A1C1E323232323232A8
S2140177F0323220222426282A2C2E323232323232BB
S21401780032326930334C1DB31FE0FE2B5AD0324C56
S214017810F9E7324CF7E7324CF5E7324CF3E7324CF6
S214017820F1E7324CEFE7324CEDE7324CEBE7324C06
S214017830E9E7324CE7E7324CE5E7324CE3E7324C16
S214017840E1E7324CDFE7244C05B10136202BBCD0F2
S21401785002214846FFF780FF1E214846FFF77CFFBE
S21401786050461AF031FF5946204623F0CAFE2849F1
S214017870002818BF214627481AF026FF3B78202B00
S21401788002D12B201AF014FF23481AF01DFF4DB128
S21401789018F806301F2B05D018F806001F2801D04F
S2140178A0AE4203DB0A481AF00FFF8EE71AF000FF1C
S2140178B00136F1E7002D88D0184CC6E7184CA2E730
