S020000062745F736F635F746865726D6F6D657465725F636C69656E742E73333771
S214000000C00A00205928000047BF010047BF010072
S214000010A9D6010047BF010047BF010047BF010046
S21400002047BF010047BF010047BF010047BF0100AF
S21400003047BF010047BF010007BE010047BF0100E0
S21400004047BF010047BF010047BF010047BF01008F
S21400005047BF010047BF010047BF010047BF01007F
S21400006047BF010047BF010047BF010047BF01006F
S214000070CD7B000047BF010047BF010045270000B9
S214000080ADBE010047BF010047BF010047BF0100EA
S21400009047BF0100C130000047BF010047BF010055
S2140000A047BF01003D3200001932000047BF010083
S2140000B047BF0100FD97010047BF0100DDA1010019
S2140000C00965020005650200D99901001565020060
S2140000D00D650200B5A10100116502003DA20100F8
S2140000E09D7C01006D7E01001DA2010047BF01003E
S2140000F0C7D3010047BF010047BF010047BF01004B
S21400010047BF010047BF010047BF010047BF0100CE
S21400011047BF010047BF010047BF010047BF0100BE
S21400012047BF010047BF010047BF010047BF0100AE
S21400013047BF010047BF010047BF010047BF01009E
S2140001400368B34A23F47F4323F0070393422DE961
S214000150F347044600F0848226D8AE4A934200F065
S214000160DD810CD8A2F5A022934200F0D68002F5DD
S2140001708022934200F0768102B0BDE8F087A64A5E
S214000180934200F04D8302F540329342F4D1007959
S21400019002F078F8FF28EFD01822A04B02FB0030C0
S2140001A0D4F805308360E7E79D4A934200F0CC849C
S2140001B000F29D8002F17D42934200F0EB8302F153
S2140001C0817202F580329342D6D1837A042B40F2B4
S2140001D0A183007902F056F8FF2806465CD0002579
S2140001E0904FDFF87892DFF878821BF09BFE1BF0CA
S2140001F09AFE54FA85F3DA7A494638681DF026F9ED
S2140002001BF090FE1BF08FFE414638681DF01EF96D
S2140002100135A27AEBB29A42E7D8237B657B94F944
S2140002200E2003EA0501FF2994F90F0004D17F2A66
S21400023002D1002800F06C8307EE900AF8EEE77A09
S21400024045EA022543EA052317EE900A1D021AF036
S214000250F5F99FED6D0B41EC110B01F001F9281239
S21400026007EE900AF8EEE77A59EC108B17EE900A34
S2140002701AF0E4F942464B461AF038FA1AF018FD1E
S2140002801823664A03FB06231861E27A12F0010F70
S21400029014BF462243221A75207910F0BBF8054693
S2140002A0002800F04C835F4C5F4920681DF0CEF8B4
S2140002B05E4920681DF0CAF81BF034FE1BF033FEC2
S2140002C05B4B5C4A00935C4940F26B1320681DF060
S2140002D0BDF85A492B465A4A20681DF0B7F82846FA
S2140002E002F09AFA574920681DF0B0F8FEE7564A21
S2140002F0934200F0C58102F57D0293427FF43CAF45
S214000300007901F0BFFFFF283FF436AF1822434BB9
S21400031002FB0030A37903712EE7032002F036FAC1
S21400032090B1404D494928681DF090F81BF0FAFD41
S2140003301BF0F9FD63894649019323890093E388FE
S214000340A28828681DF082F801F0B4FF00224FF65C
S214000350FF735021CDE90023084664230FF09EFF6B
S214000360054610B32F4C304920681DF06FF82F4912
S21400037020681DF06BF81BF0D5FD1BF0D4FD2C4B50
S2140003802C4A00932C49C02320681DF05FF82B49A7
S2140003902B462B4A20681DF059F8284602F03CFAF6
S2140003A0284920681DF052F8FEE70121084610F0A3
S2140003B04FF8054610B31B4C1B4920681DF046F845
S2140003C01A4920681DF042F81BF0ACFD1BF0ABFD8F
S2140003D0174B184A00931849C42320681DF036F8B6
S2140003E016492B46164A20681DF030F8284602F0BB
S2140003F013FA184920681DF029F8FEE70022164B6C
S2140004001A70B9E6AFF30080000000000000244038
S214000410A0000902A0000600A0000601441100206A
S214000420A0000606E01400207C680200DC670200DC
S214000430746A0200E1670200EA670200F9670200D8
S214000440F66702000E680200A00009061F68020098
S2140004507E680200A5680200112C002008680200D1
S214000460816902000379032B7FF486AE002590F89D
S2140004701680DFF8B89200F11707A8457FF67CAE25
S2140004807B195B787E5D023B012B08D8A81C0222F4
S2140004904946384426F054F8002800F068830136B0
S2140004A03544EDB2E9E7964B1B78032B3FF664AE76
S2140004B029460095A27A637AD4F8050043EA022317
S2140004C063F30F01E27A01230FF00CFF054610B329
S2140004D08C4C8D4920681CF0B9FF8C4920681CF0B4
S2140004E0B5FF1BF01FFD1BF01EFD894B894A0093CC
S2140004F08949DB2320681CF0A9FF88492B46884AD7
S21400050020681CF0A3FF284602F086F9854920687B
S2140005101CF09CFFFEE70122834B71E70221834A11
S214000520007B0FF033FF252805463BD1022002F062
S2140005302DF960B1734C7E4920681CF087FF1BF0D4
S214000540F1FC1BF0F0FC7B4920681CF07FFF0121CA
S21400055008460FF07DFF054600283FF44FAF694C74
S214000560694920681CF072FF684920681CF06EFF1D
S2140005701BF0D8FC1BF0D7FC654B664A0093664917
S214000580EE2320681CF062FF64492B46644A20680C
S2140005901CF05CFF284602F03FF9624920681CF018
S2140005A055FFFEE710B3574C574920681CF04EFF26
S2140005B0564920681CF04AFF1BF0B4FC1BF0B3FC45
S2140005C0534B544A00935449F22320681CF03EFFD4
S2140005D052492B46524A20681CF038FF284602F043
S2140005E01BF9504920681CF031FFFEE7182263799A
S2140005F02179207B424C01EB032123784E4D5A4350
S214000600AE18A854F1800133012123700FF0AAFE22
S214000610054610B33B4C3C4920681CF017FF3B498D
S21400062020681CF013FF1BF07DFC1BF07CFC384B95
S214000630384A00933849FE2320681CF007FF3749E4
S2140006402B46374A20681CF001FF284602F0E4F8E3
S214000650344920681CF0FAFEFEE70222324BCFE651
S214000660007901F00FFEFF283FF486AD1822324BCA
S21400067002FB00306379A27943EA022383817BE59B
S2140006800579284601F0FEFDFF283FF475AD264E9D
S2140006903278022A54D11821274B01FB003081689A
S2140006A04B1C3FF469AD2846244B0FF085FE0546EB
S2140006B018B3144C144920681CF0C8FE134920686F
S2140006C01CF0C4FE1BF02EFC1BF02DFC104B114A38
S2140006D0009311494FF4937320681CF0B7FE0F493E
S2140006E02B460F4A20681CF0B1FE284602F094F80C
S2140006F00C4920681CF0AAFEFEE7032333703BE596
S214000700082C0020E01400207C680200DC67020051
S214000710746A0200E1670200EA670200F9670200F5
S214000720F66702000E680200112C0020856A02009F
S214000730D5680200DA68020044110020836A0200CD
S214000740032A38D11823B24D03FB00554FF6FF732A
S214000750AA899A423FF410AD0FF06EFEA9890222D4
S21400076020790FF03FFE054618B3AA4CAA49206828
S2140007701CF06CFEA94920681CF068FE1BF0D2FB3A
S2140007801BF0D1FBA64BA74A0093A7494FF49973D9
S21400079020681CF05BFEA5492B46A54A20681CF085
S2140007A055FE284602F038F8A24920681CF04EFE96
S2140007B0FEE70423A2E7042A7FF4DEAC9E4B1B78F8
S2140007C0032B2BD8012108460FF042FE05460028D1
S2140007D03FF414AE8F4C904920681CF037FE8F49CA
S2140007E020681CF033FE1BF09DFB1BF09CFB8C4B23
S2140007F08C4A00938C4940F23D1320681CF026FE7C
S2140008008A492B468A4A20681CF020FE284602F0B9
S21400081003F88A4920681CF019FEFEE705236DE7F9
S214000820807901F02FFDDFF810C29CF8003013B17C
S214000830013B8CF800301827754D9CF8002090423C
S21400084041D3FF244FF0FF313F267F274FF0010CA6
S2140008507C2002EB420305EBC303794D032A03F128
S214000860180340D9774B1B78002B3FF485AC012149
S21400087008460FF0EDFD054600283FF4BFAD654C79
S214000880654920681CF0E2FD644920681CF0DEFD26
S2140008901BF048FB1BF047FB614B624A0093624922
S2140008A040F24F1320681CF0D1FD60492B46604A89
S2140008B020681CF0CBFD284601F0AEFF6249206898
S2140008C01CF0C4FDFEE700FB077607FB00542E4431
S2140008D000F1010E0FCE0FC496E8030084E8030073
S2140008E05FFA8EF0A9E7013203F8184C43F8101CA3
S2140008F023F80C1C43F8085C03F8046C03F8177C18
S21400090003F816CC03F8150C03F8140CD2B2A5E7BE
S2140009104B48B5E4022001F039FF00283FF4BCAC98
S2140009203C4D4A4928681CF091FD1BF0FBFA1BF071
S214000930FAFAA27A464928681CF088FDACE42079C9
S2140009400FF0FEFC054600283FF416AC314C324949
S21400095020681CF07BFD314920681CF077FD1BF0F9
S214000960E1FA1BF0E0FA2E4B2E4A00932E494FF484
S214000970B77320681CF06AFD2C492B462C4A206869
S2140009801CF064FD284601F047FF2A4920681CF049
S2140009905DFDFEE7007901F075FCFF2805D0182202
S2140009A01B4B02FB0030A37943702A4E2A4B327849
S2140009B01978184C9142294F5AD01A7001233B706F
S2140009C0032001F0E3FE58B1254920681CF03EFDE7
S2140009D01BF0A8FA1BF0A7FA224920681CF036FD87
S2140009E00425DFF88480DFF8849033782068002BB5
S2140009F040F0A0804946013D1CF028FD15F0FF059B
S214000A00F3D1054920681CF021FD3D7033E000BF9E
S214000A1044110020E01400207C680200DC6702001D
S214000A20746A0200E1670200EA670200F9670200E2
S214000A30F66702000E680200082C002021690200FA
S214000A400000C07F112C002051690200D56802000A
S214000A508A690200132C0020122C0020700C002043
S214000A601F680200DA6E0200C3690200AE69020067
S214000A703B78002BA4D1032001F088FE58B15049E2
S214000A8020681CF0E3FC1BF04DFA1BF04CFA4D49B5
S214000A9020681CF0DBFC00274B4DDFF87481DFF884
S214000AA07491DFF874A195F9013020687F2B43D04C
S214000AB0EA8851461CF0CAFC286919F0BFFD0B46AF
S214000AC00246424920681CF0C1FC2A7D4049206845
S214000AD01CF0BCFC95F901203E4920681CF0B6FCD1
S214000AE03D4920681CF0B2FC33784BB13B4995F980
S214000AF0032020681CF0AAFC374920681CF0A6FCDE
S214000B00374920681CF0A2FCD5ED047AF5EEC07AD1
S214000B10F1EE10FA02D5334802F062F80137042FDE
S214000B2005F11805BFD13049206802B0BDE8F0478E
S214000B301CF08CBC41465EE733781BB949461CF076
S214000B4085FCEBE74146FAE7007901F09BFBFF28BE
S214000B5018BF18221C4B1EBFA17902FB0032D170B1
S214000B60182202FB003000238370FFF705BB0FF04E
S214000B7063FC054600283FF496AC1C4C1C492068D4
S214000B801CF064FC1B4920681CF060FC1BF0CAF9D2
S214000B901BF0C9F9184B194A00931949D423206849
S214000BA01CF054FC17492B46174A20681CF04EFCD4
S214000BB0284601F031FE154920681CF047FCFEE788
S214000BC01F680200DA6E020044110020E06902008D
S214000BD0E6690200EA690200EF690200F3690200B2
S214000BE0C1690200DC0A00202A6A0200E014002024
S214000BF07C680200DC670200746A0200E16702009B
S214000C00EA670200F9670200F66702000E68020053
S214000C100D6A0200F8690200086802000000000081
S214000C202DE9F04F2DED088B8DB09DED1E7B09EE66
S214000C30903ADDE920430A93229B09EE100A8A4681
S214000C400792069351EC170B53EC172BB0EE478A1E
S214000C50F0EE678A19F0B2FF80B14FF0FF3251EC28
S214000C60180BCF4B19F0D2FF40B94FF0FF326FF49C
S214000C70801351EC180B19F0ABFF98B1069B514648
S214000C8022930A9B19EE100ACDE9204319EE903AFA
S214000C90079A8DED1E8B0DB0BDEC088BBDE8F04FAE
S214000CA000F0A2B90022002351EC180B19F090FFB7
S214000CB0002800F0448118EE903A18EE108A03F1EE
S214000CC00049069BC9F30A5013F48063A0F2FF3074
S214000CD008BF06240B9319F09FFCA1A3D3E90023B9
S214000CE019F004FDA0A3D3E9002319F049FBC9F3CA
S214000CF013050F4645F07F5106460022A94B404695
S214000D0041F4401119F03AFB99A3D3E9002319F0F6
S214000D10EDFC02460B463046394619F031FB19F019
S214000D207FFF834619F078FC93A3D3E90023064699
S214000D300F4619F0DBFC00229B4B19F021FB19F043
S214000D406FFF8FA3D3E9002305463946304619F0D6
S214000D50CDFC064628460F4619F05EFC8AA3D3E96A
S214000D60002319F0C3FC02460B463046394619F0FC
S214000D7005FB02460B4606460F4619F0B7FC324600
S214000D8041EC1A0B3B463046394619F0F9FA002278
S214000D9041EC1B0B854B51EC1A0B19F0D1FD0022D0
S214000DA0834B19F0EDFA02460B4651EC1A0B19F07C
S214000DB0C7FD00227F4B19F0E3FA02460B4651ECC2
S214000DC01A0B19F0BDFD324641EC1A0B3B460020CB
S214000DD04FF0804119F0D2FA02460B4651EC1A0B3E
S214000DE019F0CEFA02460B4651EC1B0B19F0A8FD83
S214000DF005F2FF350022704B19F0C2FA00222B05CF
S214000E0019F074FC42464B4606460F4619F0FEFEA5
S214000E10002840F09780CDE908670BF16303C72BE5
S214000E20069B34BF04250525190521D558A3D3E90B
S214000E3000234046494619F0DFFE002800F0BE8039
S214000E4055A3D3E900234046494619F0C1FE0028C1
S214000E5000F0B48000255C45CCBFA4EB0B0000245A
S214000E60AB46069BC8BF00F1FF3443F4806306938D
S214000E700A9B9D4238BF5E1B069B28BF002613F0C8
S214000E80020702D0002D18BF0026BBF1000F07D0C6
S214000E90DDE908234046494619F052FD804689465A
S214000EA00022002351EC180B19F092FE10B109F144
S214000EB000439946069B514623F40063CDE903633D
S214000EC019EE100A19EE903ACDE90089079A0294B5
S214000ED000F08AF875B3069B024613F0200F00F167
S214000EE0010619EE903A14BF45206520514619EECA
S214000EF0104AA0470523002205930A238BEAEB70CD
S214000F00CDE90232A0EBEB704FEADB73013D0193B3
S214000F10009019EE903A3246514619EE100A0495A2
S214000F201DF03EF937B1079BC51A079B58190A9B57
S214000F30AB424CD80DB0BDEC088BBDE8F08F59EC39
S214000F40188BBEE6002230463946194B19F0F8FCDD
S214000F500BF1FF3BCDE908015FE700BFAFF3008070
S214000F60FB799F501344D33FB3C8608B288AC63F93
S214000F7061436F63A787D23F71A379094F930A40F5
S214000F801655B5BBB16B0240EF39FAFE422EE63F6E
S214000F902D431CEBE2361A3F0000000080842E41F1
S214000FA0FFFFEF7F0000F83F0000E03F00002C400E
S214000FB000002440000018400000F03F002C3FF4E2
S214000FC057AF0B9B002B3FF453AF013C50E7024654
S214000FD019EE903A5146202019EE104AA0470135E6
S214000FE0A3E700BF000000002DE9F04F2DED088BB1
S214000FF08FB0DDE920AB08EE100A0F4608EE902A07
S21400100009EE103ADDE922535246049350465B46F9
S2140010105946249E19F0D2FDA0B9049B239622932C
S21400102003232193B84B209318EE902A19EE103A1A
S214001030394618EE100A0FB0BDEC088BBDE8F04F2D
S2140010401CF0E6BF4FF0FF326FF48013504659464F
S21400105019F0BEFD30B1049B2396229304232193FE
S214001060AA4BE0E74FF0FF3250465946A84B19F01E
S214001070CDFD70B1A74A06F00403002B08BF03227B
S214001080A54B1CBF1346042204992396CDE92121C3
S214001090C9E7504698A3D3E90023594619F0B6FD90
S2140010A038B997A3D3E900235046594619F090FD66
S2140010B098B1049B18EE902ACDE92253394619EED2
S2140010C0103A18EE100ACDE920AB24960FB0BDEC0E
S2140010D0088BBDE8F04FFFF7A3BD00220023504663
S2140010E0594619F075FD002800F081805B4652468F
S2140010F00020002119F042F9012382468B46059311
S21400110016F4806F08BF06253021A94606ABA5F168
S2140011102002B9F1090FA5EB090406D909F1FF3938
S2140011204A4503F8011BF4D120245946504619F0CD
S21400113077FD7A4B054603EBC90393ED007BB0EED3
S21400114047AAF0EE67AA19F067FA02460B46504621
S214001150594619F013F953EC1A2B19F0C7FA024640
S2140011600B4643EC1B2B19F083FD804619F044FA1E
S21400117002460B4651EC1B0B19F000F902460B46D3
S21400118043EC1B2B0022664B19F040FD88B308F198
S2140011900108404619F030FA02460B4651EC1A0B8D
S2140011A019F020FD10B14FF000080135B9F1000F1D
S2140011B051D1284619F030FA02460B465046594699
S2140011C019F0DCF80022564B8046894619F000FDDF
S2140011D030B1002240464946514B19F017FD10B178
S2140011E0E80700D5013506AB0A2223445AE00590ED
S2140011F086E7002251EC1B0B494B19F0E9FC00284E
S214001200D4D1B8F1000F02D018F0010FCED008F1FB
S2140012100108CBE7B8FBF1F001FB1082B8F1090F2B
S21400122002F1300209F1FF3904F1010403F8012B41
S21400123028D83021A14406AA202C11D04C4504F110
S214001240010321D104F138020DEB02042E2204F82A
S214001250202C1C46C7E70A2106AB2344202CD9D1F4
S21400126006F00303012B06AB39D1049A002A36D0C8
S214001270059A12B916F00C0F02D0049A013A04929D
S214001280302214E08046E9E7A1541C46D4E795FBDB
S214001290F2F102FB1155303503F8015B01340D46BF
S2140012A00029DDD0202CF2D1DAE71A550134049952
S2140012B0A14214D9202CF8D1049A0093CDE901421A
S2140012C019EE103A18EE902A394618EE100A0396D0
S2140012D01CF09EFE0FB0BDEC088BBDE8F08F202CF6
S2140012E0EAD0059AF2B12D2104F138026A4402F8D8
S2140012F0201C0134E0E700BF0000000065CDCD41B2
S2140013000000000065CDCDC1E66F0200EA6F020066
S214001310FFFFEF7FE16F0200DD6F0200F06F02005B
S2140013200000E03F710704D504F138022B216A441F
S214001330DDE73207C0D504F1380220216A44D6E73B
S21400134070B505463E4C8AB020B100230088236065
S2140013500CF05CFB3B4824F088FB3B4E3B4B304696
S21400136033603B4B73601FF0F0FE0021304612F0F6
S21400137075FC31A3D3E90023A062C4E906231FF05D
S214001380ECFED4E90623194310434FF0FF33C4E9BB
S2140013900601CDE900014FF0FF32A06A24F0CCFB35
S2140013A002224FF0FF31A06A24F0CBFB01200CF0A4
S2140013B00FF94FF4007300222649A06A24F01AFCA5
S2140013C0B0F5007F36D100239422CDE90733099388
S2140013D03C23CDE9033205939623A06A03A906931E
S2140013E012F07CFD25B3287C0CF068FD0546E0B9BC
S2140013F0A06A24F0E0FC0CF009FD0CF0CBF820B15C
S2140014004FF4807000210AF017F80CF0D3F820B1E2
S2140014104FF4006000210AF00FF8012012F072FC71
S2140014200D4A0E49A06A1FF08EFE28460AB070BD0F
S214001430FF20D9E70725F8E709D501552000000069
S214001440D80E0020690345ECE826002065DC000085
S214001450DC260020DC240020EF1002002F11020002
S214001460F8B555EC114B2DED028B57EC106B00F0D8
S2140014706FF822462B4620462946B0EE408AF0EE0C
S214001480608A1AF09DFC78B900220023304639465F
S21400149019F094FBF0B1002200232046294619F0EB
S2140014A08DFB40B19FED288BB0EE480AF0EE680A3F
S2140014B0BDEC028BF8BD45EC104B1AF073FC00280F
S2140014C0F2D0204629460022002319F081FB00288E
S2140014D0EAD02EE0B0EE480AF0EE680A1AF062FC97
S2140014E0A0B10022002351EC180B19F067FB00286E
S2140014F0DAD047EC106B1AF055FC0028D4D045EC37
S214001500104B1AF04FFC0028CED012E047EC106BC0
S2140015101AF048FC0028E4D045EC104B1AF042FCC8
S2140015200028DED053EC182B51EC180B1AF048FCB0
S21400153020B91AF049F922230360B5E71AF044F9F6
S21400154021230360B0E700BF000000000000F03F6A
S2140015502DE9F04F55EC114B25F0004A5AEA0401EC
S2140015602DED0C8B57EC106B87B029D1B31987F48F
S214001570002265485241994270EB020319D2224676
S2140015802B463046394618F0FBFE41EC100B07B0F0
S214001590BDEC0C8BBDE8F08F5C4B43441A43EED198
S2140015A0231985F40021584849419A4270EB0103FB
S2140015B0E5D39FED530B07B0BDEC0C8BBDE8F08F69
S2140015C0534927F00049B84610EE102A8945E3DC57
S2140015D0AB4611EE103A01D1002ED0D14C498A45C7
S2140015E0DADC01D1002BD7D1B8F1000F43DB0021A4
S2140015F0009183B9464B9A4559D0464B9A4569D0D7
S214001600BBF1804F00F0B884434B9B4503D1B8F143
S214001610000F80F20885029247EC106B1AF0B8FBB8
S214001620029A4AB928F040433A4A934200F0A78308
S214001630B9F1000F00F0A3834FEAD873009A013B7C
S214001640049313434DD0354B9A456DDD03F1047377
S2140016509A45334B40F32284994540F39784BBF177
S214001660000F40F39784002007B0BDEC0C8BBDE85C
S214001670F04F1AF083BB2B498A4528DCA1F1547140
S2140016808A45B4DD4FEA2A51A1F2FF31142940F30E
S2140016908384C1F1340123FA01F000FA01F1994282
S2140016A0A5D100F00100C0F102010091A1E7174B9F
S2140016B04B4413433FF47DAF194B994540F3A48345
S2140016C0BBF1000FC0F28A8445EC104B5FE70221A5
S2140016D000918EE7BBF1000FC0F2448447EC106B1C
S2140016E055E732463B461046194618F047FE024676
S2140016F00B4619F025F941EC100B48E7AFF30080D4
S214001700000000000000F03F0000F0FF000010C0E6
S2140017100000F07F0000F03F0000E03F0000E041E6
S214001720FFFFEF3FFFFF3F43E34B002208EA0303C0
S21400173053B9E24B51EC100B18F0D8FF6FF034029F
S21400174041EC100B10EE909A4FEA2953C9F3130997
S214001750DB4EA3F2FF3349EA06069A18D94B9945A1
S214001760059207DDD84B994540F324840132A6F54F
S2140017708016059200279FEDB87B9FEDB96BB0EE03
S21400178047DAF0EE67DAB0EE47CAF0EE67CA51EC19
S214001790160B53EC102B3346761043EC192B41EC0A
S2140017A01A0B02460B4646F0005651EC190B18F081
S2140017B0E5FD8046894653EC1A2B51EC190B18F0C0
S2140017C0DFFD02460B460020BD4919F0B9F841EC92
S2140017D01B0B53EC1B2B4046494618F087FF0A4666
S2140017E006F5002341EC180B01460020CDE9021255
S2140017F00021064602460291D919DDE902AB0F46E2
S2140018000B465046594618F071FF02460B464046B6
S214001810494618F0B3FD804689463046394653ECB3
S2140018201A2B18F0ABFD02460B4651EC190B18F0BC
S214001830A5FD52465B4618F059FF02460B46404649
S214001840494618F09BFD53EC1B2B18F04FFF53EC4A
S214001850182B41EC190B51EC180B18F047FF0646F5
S2140018600F4681A3D3E9002318F040FF80A3D3E9F5
S214001870002318F085FD32463B4618F037FF7EA35E
S214001880D3E9002318F07CFD32463B4618F02EFFC5
S2140018907BA3D3E9002318F073FD32463B4618F0CD
S2140018A025FF79A3D3E9002318F06AFD32463B46AC
S2140018B018F01CFF76A3D3E9002318F061FD8046DC
S2140018C0894632463B463046394618F00FFF0246F8
S2140018D00B464046494618F009FF524606460F4654
S2140018E05B4651EC180B18F04BFD53EC192B18F017
S2140018F0FDFE32463B46002618F042FD5246804624
S21400190089465B465046594618F0F0FE02460B469E
S21400191043EC1A2B00226D4B18F032FD42464B4624
S21400192018F02EFD0F46324650463B46594618F0F4
S214001930DDFE002282468B46644B3046394618F060
S2140019401DFD53EC1A2B18F019FD02460B464046B7
S214001950494618F013FD53EC182B18F0C7FE8046C6
S214001960894632463B4651EC190B18F0BFFE02463C
S2140019700B464046494618F003FD804689465046C9
S214001980424659464B4618F0FBFC0F46304642A3EB
S214001990D3E9002318F0AAFE52465B4641EC190B29
S2140019A03046394618F0EAFC02460B4640464946A1
S2140019B018F0E4FC3AA3D3E9002318F097FE80461B
S2140019C089463046394638A3D3E9002318F08EFE00
S2140019D002460B464046494618F0D2FC53EC1C2BF8
S2140019E018F0CEFC06460F46059818F015FE32464F
S2140019F0804689463B4651EC190B18F0C1FC53EC67
S214001A001D2B18F0BDFC42464B4618F0B9FC0020D2
S214001A1042464B4682468B4618F0B0FC53EC1D2BD4
S214001A2018F0ACFC53EC192B18F0A8FC02460B4639
S214001A303046394618F0A2FC009B049A013B13433B
S214001A4041EC180B40F0D9819FED197BB0EE479A18
S214001A50F0EE679A3CE000BF0000000000000000C7
S214001A60000000000000F03FEF4E454A287ECA3FC7
S214001A7065DBC9934A86CD3F01411DA96074D13FFD
S214001A804D268F515555D53FFFAB6FDBB66DDB3F0F
S214001A90033333333333E33F000000E009C7EE3F40
S214001AA0FD033ADC09C7EE3FF5015B14E02F3EBEAE
S214001AB0000000000000F0BF0000F07F0000404380
S214001AC00000F03F8E98030079B60B000000084037
S214001AD0002320462946CDE900450093DDE900892C
S214001AE042464B4618F04AFC52465B4618F0FEFD4E
S214001AF006460F4622462B4651EC180B18F0F6FD0C
S214001B0002460B463046394618F03AFC42464B46EB
S214001B1006460F465046594618F0E8FD04460D4660
S214001B203046394622462B4618F02AFCD44B8046CF
S214001B30894699428A4640F33A81D24B0B44034386
S214001B4040F0588230463946B7A3D3E9002318F050
S214001B5017FC22462B4641EC180B4046494618F027
S214001B600DFC02460B4651EC180B19F04FF80028F6
S214001B7040F04082CAF30A534FF48012A3F2FE33B9
S214001B80C149002042FA03F3BAF1000F5344C3F3ED
S214001B900A52A2F2FF3241FA02FCC3F31301C2F169
S214001BA0140241F4801141FA02F223EA0C01009279
S214001BB00B46024602DA0099494200912046294621
S214001BC018F0DCFB009B024604461B050D4630461B
S214001BD002930B46394618F0D3FB89464FF00008AF
S214001BE0494693A3D3E90023404618F07FFD2246DA
S214001BF082468B462B464046494618F0BFFB0246B7
S214001C000B463046394618F0B9FB8BA3D3E90023C0
S214001C1018F06CFD04460D464046494688A3D3E9B5
S214001C20002318F063FD02460B462046294618F0AE
S214001C30A7FB06460F465046324659463B4618F026
S214001C409FFB524604460D465B4618F097FB02463D
S214001C500B463046394618F091FB224682468B46A4
S214001C602B462046294618F041FD06460F4676A329
S214001C70D3E9002318F03AFD75A3D3E9002318F042
S214001C807DFB32463B4618F031FD73A3D3E90023B3
S214001C9018F076FB32463B4618F028FD70A3D3E9D1
S214001CA0002318F06BFB32463B4618F01FFD6EA370
S214001CB0D3E9002318F064FB32463B4618F016FDC5
S214001CC002460B462046294618F058FB06460F46A5
S214001CD02046324629463B4618F008FD804689468F
S214001CE03046394600224FF0804318F047FB024644
S214001CF00B464046494618F023FE524606460F4617
S214001D005B462046294618F0F1FC52465B4618F022
S214001D1037FB02460B463046394618F02FFB224664
S214001D202B4618F02BFB02460B460020574918F0AE
S214001D3025FB0C460B46029902460C44B4F5801F60
S214001D40C0F250811046214653EC192B18F0CEFCF9
S214001D5041EC100B1BE447EC106B00921AF018F8DD
S214001D60009A002A7FF4BDAC28F04043474A9342CD
S214001D7003D0B9F1000F7FF4B4AC00230093BBF19D
S214001D80000F07DA0020414953EC102B18F0D8FD5D
S214001D9041EC100BB8F1000FBFF6F9AB3C4B009AC4
S214001DA04B44134340F0318153EC102B9BE421F05D
S214001DB00043DFF8E4C0634540F3CC80354B0B446A
S214001DC003430AD122462B4618F0D8FA32463B4641
S214001DD018F012FF00283FF4CDAE0022002351EC8D
S214001DE0190B18F0F5FE003818BF012007B0BDEC3F
S214001DF00C8BBDE8F04F19F0B7BF9FED1D7BB0EE22
S214001E00479AF0EE679A63E6BBF1000F9FED1A0B58
S214001E10BFF6BDAB05F1004300EE104A00EE903A67
S214001E20FFF7B5BBAFF30080FE822B654715973CE6
S214001E3000000000432EE63FEF39FAFE422EE63F52
S214001E40396CA80C615C20BED0A4BE726937663EB1
S214001E50F16BD2C541BDBB3E2CDE25AF6A56113FA5
S214001E6093BDBE166CC1663F3E5555555555C53F8C
S214001E70000000000000F03F00000000000000002E
S214001E80FFFF8F40000070BFFFFF0F000000F03F15
S214001E90000010C000346F3FFFCB9040994575DBC3
S214001EA07B4B99453FF7DBAB0022794B51EC100B8F
S214001EB018F064FA06460F4665A3D3E9002318F027
S214001EC015FC82468B463046394663A3D3E9002389
S214001ED018F00CFC00226F4B41EC180B30463946CC
S214001EE018F004FC02460B465DA1D1E9000118F08B
S214001EF045FA32463B4618F0F9FB02460B460020F0
S214001F00654918F03BFA8046894632463B463046DD
S214001F10394618F0EBFB02460B464046494618F099
S214001F20E5FB51A3D3E9002318F0E0FB02460B467D
S214001F3051EC180B18F022FA06460F465046594642
S214001F4032463B4618F01CFA002052465B46824654
S214001F508B4669E5504A934275DCDDE90012029132
S214001F6000913BE600204A4932463B4618F0E8FC22
S214001F7041EC100BFFF70BBB32463B46304639466A
S214001F8018F0B4FB41EC100BFFF701BBBBF1000FE0
S214001F90FFF669AB002029E7002B7FF4DCAEC1F129
S214001FA014014AFA01F000FA01F1514544D00093B9
S214001FB0FFF723BB9FED2E7B4FF48027B0EE47DA6A
S214001FC0F0EE67DA9FED2C7BB0EE47CAF0EE67CAFC
S214001FD09FED2B7B51EC170BFFF7DBBB9FED2A0B1E
S214001FE0FFF7D5BA009843EC102B00F059F851ECE7
S214001FF0100BA9E60022002351EC190B18F0E8FD9F
S214002000003818BF0120FFF72FBB009B012B7FF481
S214002010BEAA10EE901A10EE102A01F1004343EC0F
S214002020102BFFF7B4BA47EC106B07B0BDEC0C8B67
S214002030BDE8F04F19F0B2BD00F00100C0F1020398
S2140020400093FFF7DABA1B1596E500BFAFF30080E2
S214002050000000604715F73F44DF5DF80BAE543EC6
S214002060555555555555D53FFE822B654715F73FB7
S2140020700000004003B8E23F06D0CF43EBFD4C3EE5
S214002080000000000000F83F000000000000000014
S2140020900000F03F0000D03F0000E03F00000000DE
S2140020A038B553EC102BC3F30A519C46044689BB43
S2140020B023F0004C10EE101A5CEA010129D03E4DC8
S2140020C0194600223D4B10EE100A18F00FFBAC42EA
S2140020D002460B4616DB8C46C1F30A5136392144BC
S2140020E040F2FE70814221DC002947DC11F1350FF9
S2140020F034DA4CF250318C4218DC002B26A1D1E9A0
S214002100000143DB24A3D3E9002318F0EFFA41ECE7
S214002110100B38BD40F2FF7E7145E0D110EE100A7C
S214002120194618F02DF941EC100B38BD002B1CA1F8
S214002130D1E9000107DB1AA3D3E9002318F0D6FA89
S21400214041EC100B38BD18A1D1E9000114A3D3E966
S214002150002318F0CBFA41EC100BF3E718483631A1
S2140021601446184B0CEA0000002240EA01552046AF
S214002170294618F0BBFA41EC100B38BD10480CEAA3
S214002180000040EA015343EC102B38BD08A1D1E90A
S2140021900001B7E7AFF3008059F3F8C21F6EA50140
S2140021A09C7500883CE4377E9C7500883CE437FECE
S2140021B059F3F8C21F6EA581B03CFFFF00005043E4
S2140021C0FFFF0F800000903C10B5054C237833B914
S2140021D0044B13B1044800E000BF0123237010BD78
S2140021E0281100200000000068B8020008B5034B64
S2140021F01BB10349034800E000BF08BD0000000013
S2140022002C11002068B80200A3F5803A704700BF82
S214002210174B002B08BF134B9D46FFF7F5FF002119
S2140022208B460F461348144A121A24F0C0F90E4B78
S214002230002B00D098470D4B002B00D0984700206D
S214002240002104000D000D48002802D00C4800E0D4
S21400225000BF18F029FF2000290019F0C8FD18F06B
S2140022600FFF00BF00000800000000000000000094
S214002270C00A00206C0E0020242D00200000000064
S2140022800000000070B5094B024619781825002397
S214002290074CD8B2814201D8FF2006E0013305FB87
S2140022A0034616F8186C9642F3D170BD082C002031
S2140022B04411002030B52B4C87B023785BBB2A49ED
S2140022C02A480EF0D9F8054618B3294C2949206843
S2140022D01BF0BCF8284920681BF0B8F819F022FE5D
S2140022E019F021FE254B264A0093264940F22B235F
S2140022F020681BF0ABF824492B46244A20681BF0C4
S214002300A5F8284600F088FA214920681BF09EF8B8
S214002310FEE701232370144B03201D7800F036FAE5
S214002320E8B1134C1B4920681BF090F819F0FAFD31
S21400233019F0F9FD0D4B18491A7804925A78039251
S2140023409A780292DA7801921A790092134A5B79A7
S214002350002D18BF0A46206811491BF077F807B011
S21400236030BD00BF102C00200F2C0020092C0020B0
S214002370E01400207C680200DC670200536A02005A
S214002380E1670200EA670200F9670200F6670200EA
S2140023900E6802001F680200C0670200CE670200D7
S2140023A0246802000022F8B54FF0FF0C4FF0FF3013
S2140023B03F267F2501247C21144B154F1A70154BA0
S2140023C00132042A83F800C0986098811F611E7548
S2140023D05D709C70D970197103F11803F0D1032059
S2140023E000F0D4F960B10C4C0C4920681BF02EF8B4
S2140023F019F098FD19F097FD094920681BF026F89A
S214002400BDE8F8402821074819F058BE082C0020DF
S2140024100000C07F44110020E01400201F68020066
S21400242059680200DC0A002008B5FFF743FFBDE844
S2140024300840014800F002BCDC0A0020024A13787B
S21400244083F0010313707047132C002010B5044668
S21400245019F0C1FD01280BD1104B9C4208D119F090
S21400246061FD19F060FD0E4B0E4918681AF0EEFF7C
S214002470204619F0B0FD80B9084B9C420DD119F0EA
S21400248051FD19F050FD064B074918681AF0DEFF9B
S214002490BDE81040054800F0D1BB10BD346B02000B
S2140024A0E01400202C6A02003F6A0200DC0A0020CA
S2140024B030B50A4C0A4B22680A4D1A600A4B85B0A2
S2140024C02B600A4B019304F04DF82B68029001A98B
S2140024D0206803931AF0E5FB05B030BDCC0A002057
S2140024E0A41F0020A01F0020C00A0020006B0200CE
S2140024F0014B18681AF0E9BBCC0A002038B504F086
S21400250031F80446064D2B68D3F8B00204F01EF8E6
S21400251028681AF0EDFB2046BDE8384004F016B8EF
S214002520CC0A002010B5234C01F078F901F04EFBE0
S214002530236F23F0070343F00303236719F0D9FE44
S2140025401D4B00209B6A9B075EBF01221B4B9A62B5
S214002550D4F8203123F0030343F00203C4F82031FB
S214002560D4F8243123F0070343F00203C4F82431DF
S214002570D4F8403123F0030343F00203C4F840319B
S214002580D4F8603123F0030343F00203C4F860314B
S214002590D4F8403223F0030343F00203C4F8403279
S2140025A0D4F8003223F0070343F00203C4F80032E5
S2140025B010BD00BF0080005000C0005000E000507A
S2140025C008B5174B1B68C3F30743012B0ED1154BF9
S2140025D004205A6E4FF480231349520358BF134AFF
S2140025E04B6601F51041086258BF536603F0D0FEF3
S2140025F019F0A5FC03F05EFE1AF0E3FE03F07CFE85
S2140026001AF0D9FE03F0AEFEFFF78CFF03F062FE71
S21400261019F08CFC00F024FEBDE8084004F064BC11
S2140026200080E00F008000500090005000A0005096
S21400263030B51C4D95B00DAC0FCD0FC495E8070016
S214002640032384E807008DF84D302923164A1749DE
S214002650CDE90223164B1024CDE904134FF4807302
S2140026602246002109A8069323F0A1FF4FF4A020DC
S214002670104B0DAACDE907030F238DF824300E4B1F
S21400268007A90A9320230B9301238DF831300B4BB7
S2140026900B48009302AB8DF8254004F00DFA15B0F8
S2140026A030BD00BF186B0200000006500005000693
S2140026B00008000724000650142C00206014002098
S2140026C0BC140020831E012B10B513D8012911D885
S2140026D0124B04221B6905210020C3F3401301F0AE
S2140026E089FCBDE810400E4B01211A680D4B10689E
S2140026F05B6A18478B1E012B0CD801280CD8BDE846
S21400270010400022054B05211B691046C3F34013F9
S21400271001F070BC0129E4D910BD00BF00C0035011
S214002720D80A00206014002008B50449044804F0C4
S2140027309DFCBDE80840FFF77BBF00BFD00A002025
S214002740B414002001481AF065BF00BFBC14002076
S214002750014B1A6A18681047BC14002007B5064BD0
S21400276069460093002305488DF8043000F0B6F95A
S21400277003B05DF804FB00BF400D0300DC0A002038
S214002780014819F023BC00BF346B02000B4B024615
S2140027901B788BB10A4B1B78834234BF0020012084
S2140027A0084B1B783BB1084B1B7843FA02F212F039
S2140027B0010F08BF002070470120F1E7710C0020D0
S2140027C0720C0020342C0020730C0020012208B567
S2140027D0074B1A700022074B1A700422064B1A7019
S2140027E01F22064B1A7003F0BDFE054B186008BD8D
S2140027F0710C0020342C0020720C0020730C00207A
S214002800E0140020024B034918681AF01FBE00BFF0
S214002810E01400204C6B020070B50C4C0C490646C8
S21400282020681AF013FE03F09DFE0546206803F0AC
S2140028308DFE3046FFF7E6FF284603F087FE206849
S2140028400449BDE870401AF001BE00BFE014002045
S2140028504E6B0200506B020008B500F02DF8124BCC
S21400286012498B4212D30020114B12498B4218D3C7
S214002870FFF7CEFC186850F82240586840F822400F
S214002880013298688242F5D30C33EAE70022F8E773
S2140028901C6844F8220001325C68A242F8D3083370
S2140028A0E4E70022F8E700BF70B802007CB8020038
S2140028B07CB802007CB802004FF400414FF0FF30B5
S2140028C0124B134A10B59A60D3F8882042F470026F
S2140028D0C3F888200F4A916601F1884101F500523D
S2140028E010664FF6DF7050660220C3F8D000BFF3C4
S2140028F04F8FBFF36F8F08244FF440330648C0F85D
S2140029008041D36004600B6110BD00BF00ED00E0A5
S214002910000000000090005000E100E0014B186845
S214002920704700BFE80A0020084B1B6F03F0070340
S214002930022B04D0032B05D0012B05D0FEE7044B59
S21400294018687047034BFBE7034870470080005049
S214002950E80A0020EC0A0020002D310108B5FFF738
S214002960E3FF054B1B6FC3F303330133B0FBF3F0F8
S214002970024B186008BD00BF00800050E40A00202B
S2140029800048704700B4C404014B1868704700BF85
S214002990EC0A0020054B1860054B1B6F03F007037D
S2140029A0032B01D1FFF7DABF704700BFEC0A002007
S2140029B00080005000487047002D3101014B186818
S2140029C0704700BFF00A002070B5D0B1C9B10E4EF6
S2140029D0431E013913F8014F2046A25D02F00302A0
S2140029E0012A11F8012F08BF04F12000B55C05F09C
S2140029F00305012D08BF2032801A01D1002CE9D131
S214002A0070BD0120FCE700BFE1AA020005490A6884
S214002A101318054883428CBF4FF0FF320B601046F8
S214002A20704700BFF40A00200080002037B5046815
S214002A30012105463A2000F015FE002301226179A7
S214002A40207901F0D7FA14223023217913FB0123D1
S214002A5003F1A04303F570331B686279D340DB4370
S214002A6003F001032370A379022B0ED100F07EFB46
S214002A702A460749607900F0A3FB012302466179E4
S214002A802079CDE9003301F05DFA002003B030BDB7
S214002A90E1BF01000F4B984215D00AD8A3F50043BA
S214002AA0984212D003F58043984214BF8020252018
S214002AB07047094B98420AD003F58043984214BFEA
S214002AC080205220704726207047242070472720F9
S214002AD0704700BF000005500040055070B5044622
S214002AE088B00068FFF7D6FF0D460121064600F0C5
S214002AF0B9FD01213A2000F0B5FD2B790422A17919
S214002B00607901F077FA0D220021684623F04FFD28
S214002B1003238DF8063001238DF8053002238DF847
S214002B2001302B7921795A1E5342534120686A4658
S214002B308DF80A3019F07DFC2268224B9A4239D073
S214002B4003F580439A4237D003F580439A4235D046
S214002B5003F580439A4233D01B481C49A3F5BD3386
S214002B60824218BF0B46A0796279217942EA004278
S214002B7043F82120304619F0F4FA2B682568B0FB9C
S214002B80F3F001382B6BE86123792A6B00241022BE
S214002B9005EB431321469C660DEB020023F007FD70
S214002BA00123284604A98DF8103019F0EEFB2046C4
S214002BB008B070BD064BD6E7064BD4E7064BD2E707
S214002BC0064BD0E7008004500080055060C50350D7
S214002BD080C50350A0C50350C0C50350E0C50350D0
S214002BE0012301790268134803FA01F182421AD0E0
S214002BF000F5804082420DD00F4B9A4215D003F567
S214002C0080439A4213D003F580439A420CBF0423B4
S214002C104FF0FF3341F27C525B0103F1A04303F512
S214002C207033995070470023F4E70223F2E703233A
S214002C30F0E700BF00800450000005500123017932
S214002C400268134803FA01F182421AD000F5804068
S214002C5082420DD00F4B9A4215D003F580439A421C
S214002C6013D003F580439A420CBF04234FF0FF3382
S214002C7042F27C525B0103F1A04303F57033995096
S214002C8070470023F4E70223F2E70323F0E700BFD0
S214002C9000800450000005502DE9F04F9A46564B30
S214002CA085B01B7806460F461546DDF83C909DF825
S214002CB044B0DDF85080002B00F08D80072A00F22B
S214002CC08C800E9B002B00F08880B9F1000F00F07E
S214002CD08480129BB3F5006F7FDC012802D1109B25
S214002CE0002B7AD0454B03EB05131B7B002B76D0CD
S214002CF0434C10220021684623F059FC04EB45148F
S214002D001022002F59D13946204623F050FC43F2BA
S214002D1010036380BBF1000F03D1E37843F0030395
S214002D20E370374A0E9B02EB451CCCE90193129BDD
S214002D306901013BC3F30A009DF84C30012E03F0F5
S214002D4003034FEA836343EA001E53582D48CDF829
S214002D5000A000EA03004EEA0003535041D11323BB
S214002D600CF1100ECCF80C309CE80F008EE80F002B
S214002D706FF00301DCF81C20109B61F39F02012F0B
S214002D80CCF81C20CCF8143003D1CCF81890CCF832
S214002D9004300027194A290102EB051342F8018086
S214002DA0159A28465A60694622469F605E7301F06F
S214002DB0C1F9384605B0BDE8F08F0021204623F063
S214002DC0F6FB4FF444736380BBF1000FA9D1E378A0
S214002DD043F03003A4E70C48ECE70C48EAE70C485D
S214002DE0E8E7B8F1000FD4D19CF8023068F304137A
S214002DF08CF80230CDE700BF352C0020E41400200C
S214002E00641500200F80FFF3028000F0018000F0C0
S214002E10078000F038B5124B05461B78DBB1E0B1F1
S214002E2019F083FA0F4A00231146147B54B92B601D
S214002E3001251A0101EB03131D738C5019F07BFA60
S214002E40204638BD0133082B02F11002EDD119F0EF
S214002E5072FA0548F5E70548F3E70548F1E700BFCD
S214002E60352C0020E4140020048000F0028000F0DE
S214002E70018000F013B519F058FA00230B4A147BB2
S214002E807CB90133082B02F11002F8D1019001F051
S214002E90F3F8074B01981C7019F04DFA204602B063
S214002EA010BD19F048FA0348F9E700BFE414002003
S214002EB0352C0020058000F00D4B10B51B7804461D
S214002EC093B1072812D819F030FA0A4B03EB041313
S214002ED01A7B2AB100241C7319F02DFA204610BD67
S214002EE019F029FA0448FAE70448F8E70448F6E730
S214002EF0352C0020E4140020068000F0028000F04C
S214002F00018000F0154B13B51868002301908DF86A
S214002F10043019F00AFA124B1C7824B119F00BFA97
S214002F20104802B010BD01221A7019F004FA0E4BB8
S214002F3001A81C731C7783F82C4083F83C4083F868
S214002F404C4083F85C4083F86C4083F87C40082350
S214002F508DF8073001F0BCF82046E2E7536B02001C
S214002F60352C0020038000F0E41400200A4A08B53F
S214002F7012785AB107280BD8084A02EB00131B7BBD
S214002F8043B1002101F096F8002008BD0448FCE794
S214002F900448FAE70448F8E7352C0020E41400203B
S214002FA0028000F0018000F0078000F00A4A08B5B1
S214002FB012785AB107280BD8084A02EB00131B7B7D
S214002FC043B1012101F076F8002008BD0448FCE773
S214002FD00448FAE70448F8E7352C0020E4140020FB
S214002FE0028000F0018000F0078000F00A4A08B571
S214002FF0127852B107280AD8084A02EB00131B7B46
S2140030003BB101F0E5F8002008BD0548FCE705489F
S214003010FAE70548F8E700BF352C0020E414002046
S214003020028000F0018000F0078000F00D4B1B7856
S21400303093B1072812D889B10B4B03EB00131B7B07
S21400304073B10A4B1A6D012303FA00F010401ABF41
S21400305000200B7008707047054870470548704799
S21400306005487047352C0020E4140020000004506A
S214003070028000F0018000F0078000F00B4A10B5D7
S21400308012780C4662B107280CD859B1084A02EBF0
S21400309000131B7B43B101F0ADF82070002010BD7B
S2140030A00448FCE70448FAE70448F8E7352C002013
S2140030B0E4140020028000F0018000F0078000F099
S2140030C02DE9F843174B1F6D5B6D1F4000D5FEE7DB
S2140030D001260025144CDFF85480DFF85490374260
S2140030E017D02368C8F850609BB1A1682846013104
S2140030F06268A1609847637B012B0AD148B909EB47
S21400310045131A7B60F341021A731A7F60F341027B
S2140031101A770135082D4FEA460604F11004DED171
S214003120BDE8F88300000450E4140020002004509A
S2140031306415002070B5044601250B4E04B970BD19
S21400314094FAA4F0B0FA80F005FA00F306EB001249
S21400315024EA03045368002BF0D0117B11B1916868
S2140031609847EBE79847E9E76416002008B519206A
S21400317000F04EFD28B14FF00072074BC3F88021D7
S2140031801A601A2000F044FD28B14FF08062024B0E
S214003190C3F880211A6008BD00E100E038B5054696
S2140031A00C4619F0C2F80022044B03EB05135C60D2
S2140031B01A73BDE8384019F0BEB800BF6416002088
S2140031C0F8B505460F46164619F0AFF8104B05F051
S2140031D0FC02D3F824140023EC1804F00304144370
S2140031E021FA04FC1CF0010F07D00133042BF3D1A5
S2140031F0FF2419F0A0F82046F8BDFF2CF9D00122D4
S214003200044B03EB0413C3E901761A73F1E700BF1E
S21400321000C0035064160020074BD3F82404D3F8EC
S214003220202403F50053104000F0553020F05020C5
S214003230C3F82004FFF77EBF00C00350074BD3F847
S2140032402404D3F8202403F50053104000F0AA30DD
S21400325020F0A020C3F82004FFF76CBF00C0035086
S214003260024B1968024B186810F00CB9FC0A0020D3
S214003270F80A002037B5920004460D46019223F066
S21400328087FA431C0BD060B929462046019A23F0E2
S21400329057F90028044808BF002003B030BD034893
S2140032A0FBE70348F9E700BF10E000F021E000F07C
S2140032B024E000F013B5044601A801F03FF89DF89D
S2140032C00630012223804FF4807300206380054B74
S2140032D09B680A3303F01F0302FA03F3636002B02D
S2140032E010BD00BF0080E00F10B5044623F058FA6A
S2140032F0431C15D0B0B90C4B20469B680A3303F02C
S2140033001F020123934023F003032344984201D174
S214003310002010BD50F8042B0132F7D00348F8E720
S2140033200348F6E70348F4E70080E00F0EE000F0FD
S21400333021E000F024E000F008B518F0EFFF014BA4
S214003340186008BDA41E0020014B186818F0EABFDC
S214003350A41E0020044BD3F88420D206FBD4D3F856
S2140033608400C0F3811070470040005038B5104B01
S2140033700546D3F820310C4603F00303022B0BD08E
S214003380032B0DD0012B0FD1FFF7C8FA052305B18B
S214003390286004B1236038BDFFF7F6FA0323F6E78A
S2140033A0FFF708FB0223F2E700231846EFE700BF0B
S2140033B00080005073B50D4600210E4B0191D3F8E6
S2140033C08041064604F00304012C09D0022C0CD0E0
S2140033D00C460EB1019B336005B12C6002B070BD87
S2140033E001A8FFF7C3FF0F24F3E7FFF7E3FA019006
S2140033F0EFE700BF0080005038B5174B0546D3F8FE
S21400340024310C4603F00703013B052B20D8DFE8E8
S21400341003F0030F171B0B13FFF780FA052305B104
S214003420286004B1236038BDFFF778FA0623F6E774
S214003430FFF7AAFA0323F2E7FFF7A6FA0423EEE75C
S214003440FFF7B8FA0223EAE718F07EFD0723E6E75F
S21400345000231846E3E700BF0080005038B5104B45
S2140034600546D3F840310C4603F00303022B0BD07D
S214003470032B0DD0012B0FD118F068FD092305B1E1
S214003480286004B1236038BDFFF798FA0823F6E7F2
S21400349018F05FFD0B23F2E700231846EFE700BFA6
S2140034A00080005038B5134B0546D3F800320C4662
S2140034B003F00703013B032B18D8DFE803F0020AEA
S2140034C00E1218F043FD092305B1286004B12360ED
S2140034D038BDFFF773FA0823F6E718F03AFD0B231A
S2140034E0F2E7FFF73BFA0E23800AEDE700231846C3
S2140034F0EAE700BF0080005038B5104B0546D3F809
S21400350040320C4603F00303022B0BD0032B0DD0E6
S214003510012B0FD118F01AFD092305B1286004B15C
S214003520236038BDFFF74AFA0823F6E718F011FDC6
S2140035300B23F2E700231846EFE700BF0080005099
S21400354038B5104B0546D3F860310C4603F003033C
S214003550022B0BD0032B0DD0012B0FD118F0F6FC4D
S214003560092305B1286004B1236038BDFFF726FAA9
S2140035700823F6E718F0EDFC0B23F2E700231846C5
S214003580EFE700BF0080005010B40D4C0B46D4F897
S214003590204204F00304012C0AD0022C0CD008B1FF
S2140035A0002101600BB100221A605DF8044B7047E1
S2140035B05DF8044BFFF7DABE5DF8044BFFF74EBF2D
S2140035C000800050B0F5207F1FD009D8B0F5007FEE
S2140035D015D003D868B1B0F5C07F0AD000200CE043
S2140035E0B0F5607FFAD10B4BD3F88000C0F3011022
S2140035F003E0084B186FC0F3033001307047054BEB
S214003600D3F89000C0F30460F7E7024B186FC0F3DE
S2140036108020F2E7008000504FF400320E4B014647
S21400362010B500209A66FFF7CDFF41F67132484389
S2140036300A490B4B88428CBF4FF480100020DC698F
S214003640DA639A6822F4401202439A60E20344BFA7
S2140036500022DA6310BD00BF00900050005A6202DC
S21400366000000350420910B510D0012A10D00B4BB1
S2140036700B4C022A18BF234600F01F0051B103F579
S2140036808053012202FA00F0186010BD1346F3E7DB
S214003690044BF1E703F50053F3E700BF68800050E2
S2140036A0608200506480005008B5802018F059FDF4
S2140036B0034B98429EBF4FF48032024B1A6708BDF8
S2140036C0005A620200A000501FB50023B0F5807FAC
S2140036D0019377D028D8382800F094800BD8243867
S2140036E0092810D809280ED8DFE800F06767676752
S2140036F00D0D620D377D52285FD008D83D283BD08F
S2140037003E2800F08480019805B05DF804FB802810
S214003710F9D1414B1B6F03F00703013B032BF2D893
S214003720DFE803F044413F6CB0F5D06F5BD019D8AA
S214003730B0F5A06F66D00AD8B0F5806F3DD0B0F572
S214003740906FE0D1002001A9FFF756FEDBE7B0F549
S214003750B06F2DD0B0F5C06FD5D1002001A9FFF70E
S2140037607DFED0E7B0F5006FECD00AD8B0F5E06F7C
S2140037704DD0B0F5F06FC6D1002001A9FFF7E0FEEE
S214003780C1E7B0F5086FBED1234BD3F8003103F084
S2140037900303022B2CD0032B2ED0012B30D1FFF7A6
S2140037A0F3F8032300E005230193ACE70223FBE7CD
S2140037B0002001A9FFF7FEFDA5E7002001A9FFF7FD
S2140037C0D5FDA0E702934FF0E0231B695B0705D504
S2140037D0FFF7C4F80C230393039BE5E703A902A8AD
S2140037E0FFF73CFEF8E7002001A9FFF75BFE8AE73B
S2140037F0FFF7E4F80823D7E718F0A6FB0723D3E77C
S2140038000123D1E7002001A9FFF7BEFE7BE70020D9
S21400381001A9FFF771FE76E7008000504FF4002202
S214003820034B5A66012203F580439A62704700BF35
S2140038300090005008B5FFF747FF082811D0093858
S214003840012811D84FF40012094B4FF6FF705A6644
S21400385003F5D8335B6A13F0010F18BF4FF4FA7004
S21400386008BD044B1888FBE74FF6FF70F8E700BF6B
S214003870009000505C0C002070B504468020FFF7D6
S21400388023FF032800F082804FF40022444B0221DD
S2140038905A6645F60E03434AC2F88030424B996298
S2140038A0012103F580539962936DD903FCD4D4E9C2
S2140038B000131B0543EA0163E17B94F822500B4397
S2140038C0217B94F8236043EA0143617B43EA01339A
S2140038D0A17B43EA811313619169D4E904031B06B3
S2140038E043EA806301F000410B43A17EE07E0B4378
S2140038F0217E43EA0143617E43EA01239361E36943
S214003900126A002B0CBF0021082122F00D0242EAA9
S214003910030242EA8002234B42EA01021A6294F84A
S21400392020204FEA421232D1986A94F8211020F0F3
S214003930330042EA0112024342F001029A621B4A35
S214003940996D32EA0101FBD1022217498A621A6593
S2140039509A6D5200FCD41869A26820F4700040EA00
S21400396002504FF0004218610F4B9A611DB90222B7
S21400397003F580539A6216B901220D4B9A6294F8A9
S21400398024301BB1074B0B4AC3F8802070BD996AE0
S21400399021F0330131430A4342EA4502EEE700BF15
S2140039A00090005000C0005000D0005003000140BE
S2140039B000E00050F1A7FFFF0121114A114B10B59E
S2140039C0946A9962916D8907FCD502220C499A6225
S2140039D01A658B6D5B00FCD40B4B8A6993F900303B
S2140039E022F47F020344000280B222F47F42104396
S2140039F083F3080340EA034088618C6210BD00BF71
S214003A0000C0005000D00050362C0020014B93F927
S214003A1000007047362C0020F0B5D0E901434FF483
S214003A2080061A4A4178057856664FF4D156022722
S214003A3002F5B8325662164E4F2977604FF00107EE
S214003A4028BF4F2106F5805677601669F603FCD42A
S214003A5041EA052151611B01417B43EA04230B43E4
S214003A60017B43EA41039360C37B817B1B0143EAEE
S214003A704113417C0B43017C43EA41035360837C42
S214003A8013B16FF4D1535362F0BD00BF00900050E5
S214003A9000100250014B1880704700BF5C0C0020DD
S214003AA04FF4001208B5184B5A660223174A5360A3
S214003AB0936813F48033FBD1012822D1FEF764FF0C
S214003AC0134B984215D003F5122303F5F86398427A
S214003AD013D0104B00EB8002400AB3FBF0F0520A02
S214003AE00A4BDA62012218635A620022074B5A60B8
S214003AF008BD45F67A10084AF2E745F61A00074A66
S214003B00EEE75362F1E700BF00900050004002501D
S214003B1000F0490264666666D8B80500BBCF0500AB
S214003B20B0F5207F10B50C4642D008D8B0F5007F1F
S214003B3033D003D888B1B0F5C07F0ED010BDB0F535
S214003B40607FFBD11F4B013CD3F8801021F0300181
S214003B5041EA0414C3F88040F0E718F0FAFA18F0C7
S214003B60C3FB4FF48031184A164B1167196F013C9E
S214003B7021F4704141EA04341C67FEF7EFFE044668
S214003B80FFF7E8FBC0F10201204618F0A7FB00F0A3
S214003B902DF8BDE81040FFF787BD0A4B013CD3F86F
S214003BA0901021F0F85141EA0464C3F89040C5E74C
S214003BB0044B013C196F21F4806141EA84241C67A0
S214003BC0BCE700BF008000500090005008B50121FF
S214003BD0022000F0DBF818F0BCFA18F085FB4FF472
S214003BE08032014B1A6708BD0090005008B54FF4AC
S214003BF0C07018F0B6FABDE80840044988428CBF89
S214003C00022101214FF42070FFF78ABF80F0FA02EC
S214003C10054B420953F8223000F01F0023FA00F04B
S214003C20C04300F00100704700E100E0194B10B5FA
S214003C301B6873B3184A5268012A2AD0174A802094
S214003C40C2F80031FFF740FD05281FD14FF4C070C1
S214003C50FFF7B8FC0128044604D102214FF4C070D7
S214003C60FFF75EFF07220E4B1A610122A3F5805371
S214003C705A60094A1369DB07FCD5012C09D1214695
S214003C80BDE810404FF4C070FFF74ABF0122054B55
S214003C905A6010BD581F002000C001500080005020
S214003CA000E0015000D0015000224FF40031074BD5
S214003CB01A60074A516602F598325268012A02BF16
S214003CC0044AD2F800211A60704700BF581F00202F
S214003CD00090005000800050044A4178536F23F44F
S214003CE0407343EA01235367704700BF004000500B
S214003CF010B5044608B1FFF7D7FF0E4A136943F024
S214003D000403136103F0A6FB18F018FB18F006FB7B
S214003D1022F04EFD18F006FB18F011FB03F0AEFB88
S214003D201CB1BDE81040FFF781BFBDE81040FEF7AC
S214003D3015BE00BF00ED00E010B5044608B1FFF761
S214003D40B3FF0C4A136943F00403136103F082FBCC
S214003D5018F0E4FA22F02CFD18F0E4FA03F08EFBDB
S214003D601CB1BDE81040FFF761BFBDE81040FEF78C
S214003D70F5BD00BF00ED00E0034A0179D36E23F0E5
S214003D8030030B43D366704700400050F8B5044636
S214003D901C4BD3F88420D106FBD4D3F88430C3F36D
S214003DA081139C422CD0FEF7BFFD012C064602D1A3
S214003DB0214618F093FA18F0B1FA4FF00072124B41
S214003DC007465A66204618F0BFFA4FF480630D4D3A
S214003DD0621E93402B676B6E9A0103D4D5F884302D
S214003DE09B060AD5384618F09DFA022C08D13046B4
S214003DF0BDE8F840002118F071BAD5F88430EAE73B
S214003E00F8BD00BF004000500060005007B518B96C
S214003E100191FEF789FD0199064B1B7843B1064BCD
S214003E20984205D8012003B05DF804EBFFF7AEBF5B
S214003E300220F8E7372C0020005A62020278034B73
S214003E40012100201A70FFF7E1BF00BF372C0020C9
S214003E504FF0004210B501244AF6CD31154B5A6694
S214003E60154A03F50B2354605A6C1964224088B92E
S214003E70996811F0010F114903D08C60D86AC00709
S214003E80FCD501234B6012B10D4B0E4A1A6421F08B
S214003E906DFE10BDD96A0907FCD42021074B596274
S214003EA00121A3F58053996005494B6A9B06FCD512
S214003EB0E9E700BF0090005000500950006009502C
S214003EC0004009503254FFFF4FF0004238B5194BFE
S214003ED0194C5A66012203F50C235A604AF6CD3374
S214003EE0656C23644378154093401343134AD363A9
S214003EF0A368827823F0740343EA0213C278002A88
S214003F0014BF042200221343A3600279837943EA94
S214003F10022323614279C37943EA0223636100786E
S214003F20FFF796FF0DB1064B236421F01FFE01201C
S214003F3038BD00BF009000500040095000400050BF
S214003F403254FFFF072AF7B501F0030614461F4652
S214003F504FF003012CD89500A94000FA05F21C4842
S214003F60019118F0F2F901991A4806FA05F218F0CC
S214003F70ECF9194B19499DF82000002F08BF194687
S214003F80012303FA04F40C60154B1649002808BFF9
S214003F900B461C60144B9DF82400C3F820441031D7
S214003FA0A3F6DC33002808BF0B461C6003B0F0BD48
S214003FB0A2F10805AD00A94000FA05F20B480191F0
S214003FC018F0C3F901990A4806FA05F2CFE700BFD0
S214003FD000C4035008C4035010E4035010D4035028
S214003FE014D4035014E4035000E0035004C40350F8
S214003FF00CC40350F8B504460D461F4616464AB193
S21400400001238B403021194A01FB0022FFB141F207
S2140040101001535004EB4403072D4FF00F014FEAF5
S214004020031317D8A80006FA00F281401048184477
S21400403018F08BF956B9012130230C4801FA05F522
S21400404003FB040077B141F21003C550F8BD42F2FD
S2140040501001DEE7A5F10800800006FA00F28140B4
S2140040600448E4E742F21003EFE700BF00C0035045
S21400407004C003500CC003504FF400120B4B10B595
S214004080C3F88020BFF34F8FBFF36F8F0024FF224B
S214004090074B21465C6520209A625C60FFF7E2FAD7
S2140040A02146BDE810402120FFF7DCBA00E100E021
S2140040B000000450044A054B002918BF134601228D
S2140040C002FA00F018607047402004504010045078
S2140040D010B5012104462020FFF7C4FA0121212053
S2140040E0FFF7C0FA0122114B5A60227812069A6036
S2140040F06178A27842EA01429A61FF229A6200221F
S2140041009A631A644FF000425A654FF0FF324FF43C
S214004110001103F500531A65054AC2F88011E378CA
S2140041201B01DBB282F81533116010BD000004508D
S21400413000E100E02DE9F04101250C46C3B2DFF8AE
S21400414088E0D1F800809D408F7ACB7A94F80DC035
S214004150097BCEF850500EF5005E4EF820804FF0EA
S214004160300E184E1B050EFB006043EA074343EA79
S214004170415322F00302C0F860C0C365026718F01E
S214004180D4F8736D2B437365237A13B1336C2B43CA
S2140041903364637A13B1B36B2B43B3632279A37989
S2140041A043EA0243084A93616179E37943EA0143AB
S2140041B006498B61034B55639D64BDE8F04118F0DA
S2140041C0BAB800BF0000045000200450001004508D
S2140041D010B50124C0B2844018F0A7F8044B5A6DFD
S2140041E022EA04025A659C62BDE8104018F0A3B8A3
S2140041F00000045010B50124C0B2844018F095F8B1
S214004200074BDA6A224209D15B6B34EA03030CBF20
S2140042100124002418F08FF8204610BD0024F9E78A
S214004220000004504FF40032054B9A6641F6713296
S21400423003F51C33DA63012203F50053DA60704796
S2140042400090005041F671320121064BDA6303F507
S2140042500052D1600022DA634FF40032A3F518331F
S2140042609A66704700000350CB784A7810B55B0119
S2140042700C7843EA82030A79234343EA02130C22AA
S214004280424302F1B0421363012C02BF8A78024B0C
S21400429043F8202010BD00BFE880035008B54FF05B
S2140042A0B0435A6802B960B15B680BB118F05EF8AB
S2140042B04FF0B04130B10120074B586018F056F867
S2140042C0C86008BD18F052F80223CB6018F04EF80C
S2140042D00122024B5A60F4E70010005800200058F4
S2140042E04FF0B0435B6870B50BB118F03FF8012192
S2140042F0104B4578596083780679002BC37814BF35
S21400430002240024002B14BF042200224379DB0081
S21400431043EA06132B43234313434FF0B042936004
S214004320054B59600378002B14BF0B460223D3605D
S21400433070BD00BF00200058001000584FF48032B7
S214004340064B5A6603F5E6235B69C3F38512827053
S21400435003F03F021B0B4270037070470090005042
S21400436030B5174CA0421BD004F58044A04219D0AB
S21400437004F58044A04217D004F58044A04215D02E
S21400438004F58044A0420CBF04204FF0FF30062501
S2140043900C4C6BB105FB001004EB8000C26030BD16
S2140043A00020F4E70120F2E70220F0E70320EEE722
S2140043B005FB0010120204EB8004E260EFE700BF8A
S2140043C0008004500081035070B5054616461C4612
S2140043D021B94FF4207017F0C4FE0146402C1BD0C4
S2140043E003D8DCB1202C1BD070BD602CFCD104237C
S2140043F003FB06F2560806EB4113B3FBF2F3094A39
S214004400203B02EAC303AA6822F06002AA60AA68F8
S2140044101443AC60EB61E7E70623E9E71023E7E720
S2140044200823E5E7F8FF7F00012200F5805310B56A
S2140044305A6040F6AA6341F20502436100230E4922
S2140044408360C365C26000F500520361C361C36444
S21400445091640A498365884202D0094CA04207D17C
S2140044608842036502D0064B984201D1002343657B
S2140044700123536010BD00BFFFFF010000C00550C0
S2140044800000065070B50D46FFF7CEFF012300F57D
S21400449080567360AB7C04461BB1836843F0804350
S2140044A08360EB7C5BB1354A2B7D944245D1A2F507
S2140044B01032C2F88C31E36D43F08003E3652A8A3C
S2140044C06B7B20461343EA891343E3602B7BD5E9D5
S2140044D00112FFF779FF6B7D1BB1A36843F48033AD
S2140044E0A360AB7D1BB1A36843F40043A360EB7DE0
S2140044F02A7E1B07120502F4E00203F0E043134392
S214004500A365697E1D4A8B1E012B1D4B1FD8944246
S2140045101BD002F5804294420CBF01224FF0FF32BE
S21400452003EB4213022041F21C620329985020D16B
S2140045300423F3652B78636170BD124A944204BF6E
S214004540A2F52032C2F89C31B5E70022E8E7944293
S2140045500DD00C4A94420CBF01224FF0FF3203EB01
S2140045604213022042F21C6201299850DFE7002223
S214004570F5E7042204F50053DA65DBE700C00550D2
S21400458000C003500000065038B50446054D21F023
S21400459014FB0FCC0FC594E8030085E80300002049
S2140045A038BD00BF5C1F002047F6FF739A42F0B587
S2140045B067D0022967D8354DCF0015F8313005EBA6
S2140045C0C100012B847813D10025C3781B1B9D42A4
S2140045D002D3E018C0B2F0BD591B4668A3EB5101E8
S2140045E036F911609642D4BF0D4601F1FF33EEE76F
S2140045F040680028EFD0B0F90030934204DBB0F9F1
S21400460002309342B8BF134682883D44FF2A19BF42
S214004610C8214FF0280CB0F90610B0F908C0A1EB7D
S21400462003020CBF0126002692FBFCF26D78324492
S21400463012B2954201DD002A01DA6A1E12B24FF468
S2140046407A7700EBC206F188B668013213FB016187
S21400465012B221EAE17101F5FA719542B1FBF7F168
S21400466004DD00EBC206B6888E42EAD200EBC20238
S21400467032F8040C884228BF0846A04238BF2046BD
S214004680A8E7FF20A7E70020A5E700BF5C1F0020E3
S2140046900229F0B553D82B4800EBC10410F83110AE
S2140046A0636801290FD1E078A478904294BFC4EBE8
S2140046B00001C4EB0201001BCAB28242C8BF00223E
S2140046C033F91200F0BD002B39D0A178914202D305
S2140046D0B3F90200F6E7E178B3F900009142F1D9A8
S2140046E099886478A1F1FF06013C714203F1040544
S2140046F0E4B2714103F10C071FFA82FCCEB2B44259
S21400470016D805EBC1014FF47A756A43B1F9024039
S2140047104968521A04EBD47102EB610292FBF4F280
S2140047209042CFDBB3F902009042CBDC10B2C9E76F
S21400473037F831E04E1CE645E3D33146DEE7024863
S214004740C0E700BF5C1F00200080FFFF08B50448DC
S214004750FFF71AFFBDE80840012021F032BA00BF7B
S214004760BC740200004870475E0C00207FB5022231
S214004770084B0949CDE901234FF00073CDE9031337
S214004780052301A94FF0FF30059321F050FA07B03A
S2140047905DF804FB006A1800000204001B0603F024
S2140047A0706300F00F000902034301F47061120405
S2140047B002F470220B431343014A1360704700BF94
S2140047C00020025C60B5054619B10139B1F5806F6D
S2140047D010D2094EF06810F48030FBD143EA012174
S2140047E0120741EA050302F08052134343F00043E8
S2140047F0736060BD0120FCE70020025C0122054BCF
S2140048009A60DA68D203FCD4D86820F00F0000045F
S214004810000C70470020025C014B1868704700BF10
S2140048200040025C014B5868704700BF0010025CF5
S214004830014B186B704700BF0010025C014B1868F4
S214004840704700BF0010025C014B9860704700BFC5
S2140048500010025C014B1864704700BF0010025C39
S214004860014B5864704700BF0010025C014B586350
S214004870704700BF0010025C0022014B1A607047B0
S2140048800010025C024A136843F00103136070478D
S2140048900010025C43F20402014B1A60704700BF2E
S2140048A00010025C024A136843F03003136070473E
S2140048B00010025C044B1A6842F480721A601A6890
S2140048C022F480721A6070470010025C024A136875
S2140048D043F48063136070470010025C034A136859
S2140048E023F4702343EA0040106070470010025C17
S2140048F0044B1A6902605A6942609A698260DB69F1
S214004900C36070470010025C0268044B1A6142687C
S2140049105A6182689A61C268DA6170470010025C68
S214004920024B1A6BD207FCD4186270470010025C68
S214004930024B186B00F00E00704700BF0010025CC0
S21400494082B01FB507930A9B04AC8B4228BF0B4668
S21400495004E907001048D100079948BF03330160F7
S214004960099948BF23F0030323F0704301F0E041A8
S214004970194341F000518160002102F0E042019CA1
S214004980134343F00053C16004618361416304B084
S214004990BDE8104002B070470000025C3F22034BA7
S2140049A01A631022DA6103229A6370470000025CE1
S2140049B0024AD36B9B07FCD4704700BF0000025C22
S2140049C0034B986A10F0240018BF0420704700BFFD
S2140049D00000025C08B5FFF7F3FF064BDB6B23F421
S2140049E07F4323F0EF0303431EBF0122024BC3F8AD
S2140049F0FC2F08BD0000025C00F0FF3F032208B554
S214004A00054B186019615A63FFF7C8FFFFF7D0FF20
S214004A10BDE80840FFF7DEBF0000025C42680346C0
S214004A20182A10B50AD0202A1DD0102A2BD1174AD2
S214004A30D2F80424D4010AD4012013E0134AD2F891
S214004A4004249001F8D50A6842F008020A6010486B
S214004A501A6882424FF000000ED10A6842F0400207
S214004A600A60586010BD094AD2F804245201E3D502
S214004A700A6842F00402E9E7064CA242F2D10A684C
S214004A8042F08002ECE70720ECE700BF0000025C83
S214004A90382C0020392C002013B5084CD4F80444D8
S214004AA0E40508D5009313460A460146002000F0A8
S214004AB01BF802B010BD0120FBE700BF0000025C3F
S214004AC013B5084CD4F80444E40508D500931346FF
S214004AD00A460146002000F02BF802B010BD012067
S214004AE0FBE700BF0000025CF0B516465A688DB0C2
S214004AF0102A0D46129F15D17A68102A12D10A4A3A
S214004B0009AC07CA84E8070022462946CDE90547CE
S214004B10CDE90344CDE901440448009617F0D2FDE0
S214004B200DB0F0BD0720FBE77C6B020030000100F3
S214004B30F0B516465A688DB0102A0D46129F15D14C
S214004B407A68102A12D10A4A09AC07CA84E8070014
S214004B5022462946CDE90574CDE90344CDE9014452
S214004B600448009617F0AEFD0DB0F0BD0720FBE739
S214004B707C6B02001000010070B598B0002843D08E
S214004B802C4C08AD0FCC0FC50FCC0FC50FCC0FC5E6
S214004B9094E80F0085E80F006D4604AE04F110039C
S214004BA020340FCB85E80F0094E80F0086E80F004E
S214004BB0FFF780FE0420FFF791FEFFF76BFE3046FE
S214004BC0FFF7A2FE002408AE56F8040B0134FFF7E8
S214004BD0A7FE102CF8D1FFF725FE0328FBD90024EA
S214004BE0FFF74AFE2646FFF717FE55F8043B013648
S214004BF05840042E44EA0004F5D12CB101220620C8
S214004C000D4B1A7018B070BDFFF754FE0820FFF762
S214004C101BFE0020FFF71EFE0720FFF721FE4FF4C5
S214004C200070FFF723FE0820FFF758FEFFF72AFE66
S214004C300020E7E75C6C02003B2C002008B5FFF77D
S214004C4039FE0122014B1A7008BD00BF3A2C002025
S214004C5030B589B005AC84E80700FFF7E9FDC30569
S214004C6001D5FFF7EBFF0A4D2B781BB117F08CFE32
S214004C7000232B70074B069AD3E901018DE8030049
S214004C8002921B6894E8070017F0FAFD09B030BDE1
S214004C903A2C0020BC6C02001FB517F075FE0446C7
S214004CA030B1012206240D4B1A70204604B010BD08
S214004CB0FFF7B2FD0090FFF7AFFD0190FFF7ACFDE8
S214004CC00290FFF7A9FD03906846FFF71DFEFFF769
S214004CD0B5FFFFF7E7FDFFF7F9FDE6E73B2C002001
S214004CE005289ABF014B185C00207047C86C02006C
S214004CF030B5154B87B00293144B0390049346F6D9
S214004D0011030D46059300F06DF91428044616D1DC
S214004D10684617F0E9FE4FF0A843032202A95A633B
S214004D2019601D619A63DA6B9207FCD1142C02D1CC
S214004D30684617F0E7FE00F089F9044601E000280F
S214004D40E9D0204607B030BD741F002004000020C4
S214004D502DE9F04FB1B005468C46E9466E4F3B9EB6
S214004D60DDF8F8E0409C07F1100AC8463868796814
S214004D700837A8E803005745C146F6D10EEB0208EF
S214004D80C8F1000909F00F09002E00F0AF80774245
S214004D9007F00F070121DDF8FCB0C4F1100ACDF8CA
S214004DA010B0059144F0005106914FEA0A2101F433
S214004DB0F85141F02101079106B96B460893002D82
S214004DC040F09680002C00F0938004AB0993002EF0
S214004DD000F0908046F000530A93002D40F08D803E
S214004DE0002C14BF0123212343EA07230B9308A9B1
S214004DF042F00053CDF830C03D980D910E934FEA27
S214004E00092343F041030F93109002B10CA9002A26
S214004E1016BF00224FF00052412342EA0E021191C3
S214004E20129213933C9B3D4A149310AB15933C4B44
S214004E300021169340F6110317933A4B002D08BF36
S214004E401346189314AB1993374B10221A93112359
S214004E501B931CAB184621F0AAFB01221D924AF0B8
S214004E6080421E9200220346239205B9EB46102C80
S214004E7008BF01230DF1900A102200215046CDF8FC
S214004E8080B02193229421F092FB002C37D020ABE7
S214004E90002125938F4218BF534647F08042269242
S214004EA03A9A2CA88A422892299313460CBF4FF0B0
S214004EB080430B46102233432B912A9321F077FB35
S214004EC0FEB95346C8442D932CA948F0804318A831
S214004ED02E93FFF70DFF30B92DB90346A34212D12A
S214004EE0002818BF2C2031B0BDE8F08F102751E7FE
S214004EF001236BE747F000536EE7212374E7012395
S214004F00C6E728ABDEE703F1C0026A4412F8C02CFD
S214004F1001331043E2E700BFCE6C0200E06C0200F3
S214004F2010000020E46C020004000020F0B5C02948
S214004F309FB0249E4FD0B1F5807F04D0802941D009
S214004F4029201FB0F0BD40F2344440F21445002E34
S214004F5008BF2C46212710250194012402960394AD
S214004F6004950597259F069706B102AC0794012481
S214004F70089509940A9221220B940C950D92174AD3
S214004F800AAC0E92164A0F94109242F61102119233
S214004F90129313941495159201AA1692CBB112ABE4
S214004FA01793042318931123199316AB1A901B9387
S214004FB040F61103C9081C911AA806A91D93FFF70D
S214004FC097FEBEE7002E14BF4FF486644FF482644B
S214004FD0C0E70EABE4E70F20B3E700BFE86C0200C3
S214004FE01000001038B5164B5A6E42F004025A668E
S214004FF0D3F8802242F00102C3F88022114B5B688E
S214005000C3F3080343B14FF0A842D36B13F0430F2A
S214005010FBD11424204638BD4FF0A843DC6B14F0B7
S2140050204304FBD1084D2B681BB90421284603F026
S214005030C7F82B68013343F000432B60EAE700BF54
S2140050400080005000ED00E0741F0020014B00209F
S2140050505B68704700ED00E04FF40052034B002001
S2140050609A660322C3F86022704700BF0090005083
S21400507008B5FFF7E3FBC30708D5FFF759FC06287A
S21400508004D00A28F5D1FFF7D9FDF2E74FF4005215
S214005090034B00209A660322C3F8602208BD00BFB7
S2140050A000A000501FB54FF40052164B9A6603221C
S2140050B0C3F86022FFF7C2FBC30710D4012017F025
S2140050C070FC002814BF6FF092040024FFF7D0FF96
S2140050D000280CBF20466FF0920004B010BD1022CE
S2140050E00021684621F063FA6846FFF701FCDDE917
S2140050F000321343029A1343039A1343DED000246C
S214005100E4E700BF00900050012300F01F02A0F566
S21400511006200949A0F550604009934051F8202028
S2140051201A4341F82020054951F8202022EA0303BB
S21400513041F82030704700BF781F00208C1F0020E9
S2140051400121A0F506230F4AA3F550635B0900F082
S2140051501F0001FA00F052F8231008430A4942F8EB
S2140051602300D1E90030034488680344C86809690D
S21400517003445B1802BFC2E90033C2E9023313617D
S214005180704700BF8C1F0020781F00202DE9F04FCD
S214005190A9B002921F46DDE9328904460822CDE90D
S2140051A00301414021FA02F34B40980702F108023E
S2140051B018BF9B00202A1C44F4D18123B4FBF3F3D0
S2140051C003EBC313E41A784B04F506241B7804F5A6
S2140051D05064002B3CD1FEF743F8014620B16FF037
S2140051E0910029B0BDE8F08F4022059008A821F074
S2140051F0DEF94022059918A821F0D9F96B4EDFF8A0
S214005200C4A1334603F10F0B102208A9DAF80000F8
S214005210CDF800B0059320F06FFA00220146059BFA
S214005220103608AD914244D1CDF800B01022DAF81D
S214005230000018A920F069FA4FF0000B034618ADDD
S2140052405B4542D15A4B9E42DBD10122564B1A7027
S21400525081250026DFF86CA1A4F50623554AA3F5A0
S21400526050635B0952F8232004F01F01CA40D2079E
S2140052703ED4514A52F82300C84010F001002DD009
S214005280002E08BF26468123A4F50724A4F2FF4477
S214005290B4FBF3F303EBC313E41A04F50624013D51
S2140052A004F55064D8D1029BD3B1CEB1349B1E60B6
S2140052B063E055F8040BCDE906230591FFF724FFBC
S2140052C0069A079B05990132ACE755F8040B05933F
S2140052D00BF1010BFFF734FF059BB1E7029B13B9F7
S2140052E06FF08B007DE7349B002E45D01E6078E77C
S2140052F0B8F1000F02D00023C8F80030B9F1000F53
S21400530002D00023C9F800304FF0100B00233A46B5
S2140053102146DAF80000CDF800B00EF021FA70BB96
S214005320B8F1000F01D0C8F800B03B68234A93429A
S2140053302FD1B8F1000F11D0B9F1000F0ED04B46A7
S2140053402146DAF8000018AA0EF05EFAB8B9D9F8C5
S2140053500030D8F800209B1AC9F80030D7E902239D
S214005360DDE90310834208BF8A428CD1029B13B149
S2140053707B68012B15D0349B1C60002031E7104B56
S214005380984206D01233984203D0133B9842E5D099
S21400539025E72146DAF800000EF07CFA0028DDD07A
S2140053A09EE76FF084001CE73C2C0020006D080090
S2140053B000710800781F00208C1F0020105D175E0B
S2140053C0FFDF00F0F80A00202DE9F04F87B0824694
S2140053D0894698461646DDF840B02AB1002B4ED0D6
S2140053E040F26C739A424DD8BBF1010F4DD80024A1
S2140053F006F1100739460120059418F009FA05460B
S214005400002845D021463A4621F0D1F805ABCDE933
S214005410014300942B46012250464946FFF7B6FE4C
S214005420044680B110F18C0F08BF6FF08D043A4629
S2140054300021284621F0BBF8284618F0FAF9204645
S21400544007B0BDE8F08F144BC5E902A92B60C5F87C
S21400545004B02EB13246414605F1100021F080F826
S2140054600E483B462A46059900680EF0E1F818B942
S2140054700598FFF749FEDAE76FF09104D7E76FF07B
S2140054808604DCE76FF09104D9E76FF08504D6E771
S2140054906FF08C04D3E700BF105D175EF80A00209B
S2140054A02DE9F0438DB08146DDE914780C461546AB
S2140054B01E469BB1B8F1000F05D16FF0860420465A
S2140054C00DB0BDE8F083002FF7D0B7F1005FF4D33E
S2140054D0C3F1005303F500439F42EED8102200218B
S2140054E008A821F064F8002207AB029305AB0193ED
S2140054F006AB21460093484608ABCDE90522FFF7E8
S21400550045FE04460028DAD10599DEB1A94203D843
S2140055100029D2D115B1D0E70029FBD0491BB142F2
S21400552028BF3146069B0948C8F8001000913A4645
S214005530079900682B440EF013F9002818BF6FF087
S2140055409104BCE7A942E9D2B7E700BFF80A0020F9
S21400555030B58DB00C4605461022002108A821F073
S21400556026F8002207AB029305AB019306AB214653
S2140055700093284608ABCDE90522FFF707FE044650
S214005580D0B9099B012B1AD0104B079918680EF05A
S21400559081F9B8B9012207980D49A0F50623A3F5AD
S2140055A050635B0900F01F05AA4051F823506A407B
S2140055B041F82320FFF7C4FD20460DB030BD6FF044
S2140055C08404F9E76FF09104F6E700BFF80A0020BC
S2140055D0781F00202DE9F04389B00D4614461F467B
S2140055E0DDF8488020B96FF0860009B0BDE8F0838A
S2140055F00029F8D0002AF6D0B8F1000FF3D00288C0
S21400560002F44F43B3F5824F0CBF13460023DBB2C0
S21400561002D06FF08500E8E7122B01D0172BF8D1E7
S21400562022F0FF02B2F5E24F40D14288C8F80020CF
S214005630002A36D1E200C8F80020D8F80020B2F5DB
S214005640807FE6D1122B09BF384B00221A681B69EF
S21400565005EB040608BFD21800231846224412F8A9
S21400566001CD16F8011D0843B1EB0C010CBF4FF03D
S214005670FF3C4FF0000CB5420CEA030343EA01037B
S214005680EDD10028AFD0002BADDA109B9C4249D854
S21400569022462946384620F063FF119B00201C60F6
S2140056A0A3E70732B4EBD20FC7D09CE72A78042AC8
S2140056B099D1621ED2005208B2F5807FC8F8002049
S2140056C0A7D1122B05F1010318BF4FF000094FF0C8
S2140056D0400205934FF000030ABF144E4E46D6F81C
S2140056E00C90CDE90623FFF7B7FC00287FF47DAFCA
S2140056F0CDF80C90D8F800300733DB08029308ABDF
S21400570013E903008DE80300059B96E8070017F0F1
S21400571005F90646FFF7ACFC00287FF466AF002EBE
S214005720B3D060E76FF089005FE700BF486C020007
S2140057302DE9F041069F0C461646054610B309B300
S21400574002B9FBB96288B3EBD20F4FEAD20819D37D
S2140057504C220021284620F02AFF0D4B27F47E120B
S2140057609A4212D1204617F0FEF9044638B942464E
S2140057703146281D20F0F4FEC5F824802F60204610
S214005780BDE8F0816FF08604F9E76FF08504F6E770
S2140057900002C0032DE9F0410E46144605460028D7
S2140057A040D000293ED012B90020BDE8F081036841
S2140057B01F4823F47E13834237D1AF6BE7B1C7F19E
S2140057C0100807F128004245284404D220F0C8FEFD
S2140057D03C44AC63E8E7424620F0C2FE1022103C90
S2140057E03C19AA63E0D0284605F1280117F0D7F93E
S2140057F00028DAD14644A863102C0CD9671E27F07F
S2140058000F073A463146284617F0C9F90028CCD18A
S214005810E41BC9D03E442246314605F1280020F05C
S2140058209FFED6E76FF08600BFE76FF08800BCE704
S2140058300002C0032DE9F04388461F4605468BB09C
S21400584070B169B163B10368234923F47E108842BE
S2140058503ED113F47C1FC3F3054604D0102E03D9A3
S2140058606FF086042AE0102696422BD8FFF7F4FB4A
S214005870044618BBAB6B05F12802CDE901236B6A21
S2140058802A1DCDE904231023CDE9083007AB1A46BC
S2140058900390069005F13C0901A904A8CDF81C90D8
S2140058A0FFF70EF90546FFF7E3FB04466DB928B986
S2140058B032464946404620F053FE3E6020460BB036
